:020000022000DC
:1060000000000120B5620200DD620200DF620200D2
:10601000E1620200E3620200E562020000000000AB
:10602000000000000000000000000000E762020025
:10603000E962020000000000EB620200ED62020073
:1060400009970200EF620200399A0200EF62020033
:10605000EF620200EF6202006D970200D9B9020000
:10606000EF620200EF620200EF620200EF620200E4
:10607000EF62020025C30200EF620200EF6202003D
:10608000EF6202004D7A0200EF620200EF6202004E
:10609000EF620200EF620200E5B60200EF6202006A
:1060A000EF620200EF620200EF620200EF620200A4
:1060B000EF620200EF62020000000000000000003A
:1060C000EF620200EF620200EF620200EF62020084
:1060D000EF620200EF620200EF62020000000000C7
:1060E00000000000000000000000000000000000B0
:1060F00000000000000000000000000000000000A0
:10610000000000000000000000000000000000008F
:10611000000000000000000000000000000000007F
:10612000000000000000000000000000000000006F
:10613000000000000000000000000000000000005F
:10614000000000000000000000000000000000004F
:10615000000000000000000000000000000000003F
:10616000000000000000000000000000000000002F
:10617000000000000000000000000000000000001F
:10618000000000000000000000000000000000000F
:1061900000000000000000000000000000000000FF
:1061A00000000000000000000000000000000000EF
:1061B00000000000000000000000000000000000DF
:1061C00000000000000000000000000000000000CF
:1061D00000000000000000000000000000000000BF
:1061E00000000000000000000000000000000000AF
:1061F000000000000000000000000000000000009F
:1062000010B5054C237833B9044B13B10448AFF3F0
:1062100000800123237010BD302500200000000005
:1062200014DF020008B5034B1BB103490348AFF369
:10623000008008BD000000003425002014DF0200AB
:10624000154B002B08BF134B9D46A3F5803A002148
:106250008B460F461348144A121A06F07BFE0F4B6A
:10626000002B00D098470E4B002B00D09847002001
:10627000002104000D000D48002802D00C48AFF3A7
:10628000008006F009FE2000290004F039F906F02C
:10629000EFFD00BF0000080000000120000000002A
:1062A000000000003025002018320020000000000F
:1062B000000000000649074A074B9B1A03DD043B18
:1062C000C858D050FBDC02F0E3FFFFF7B9FF000035
:1062D00068E002006022002030250020FEE7FEE793
:1062E000FEE7FEE7FEE7FEE7FEE7FEE7FEE7FEE786
:1062F000704700BF00B583B0044B0093044A4023AD
:1063000000F036F803B05DF804FB00BF156302002F
:106310005025002002B32DE9F843114B114E884659
:10632000144643F0010903270025224608EB050126
:10633000002004F09FF903461D444FF47A40E41A0C
:1063400023B9337833B1C847013F06D001233370F6
:10635000002CEAD1BDE8F88370473770BDE8F883B8
:10636000C0CF02004C250020704700BF04F036BAB1
:10637000F0B595B0002415460F4608461E4602F0BB
:106380002DFE384623460895082205A91A9D099630
:106390000D950A948DF82C400C9402F079FE9DF82E
:1063A00014308DF81140DDE9061003F00302012AD4
:1063B000CDE9020127D0022A04D0384602F012FEAD
:1063C00015B0F0BDBDF81650C3F3C2038DF8103000
:1063D000AD090826082D2C4628BF0824334622463E
:1063E0000EA9384602F054FE2D1B214608AB02AA26
:1063F0000EA8264400F09EFD002DEBD1384602F099
:10640000F1FD15B0F0BDBDF81460059DC6F383160F
:10641000C3F3C204B2000EA9384608238DF8104019
:10642000C5F3952502F034FE08AB324628460EA986
:10643000009302AB00F0D8FC384602F0D3FD15B053
:10644000F0BD00BF014B01221A707047D425002017
:10645000704700BF00B583B0044B0093044A40234B
:10646000FFF786FF03B05DF804FB00BF7564020010
:106470009425002038B50E480E4D03780E4CEB5C89
:106480000025D2B2257053B90C3003F025FD58B960
:106490000A4B1B7813B12378002BFCD038BD043095
:1064A00003F0BCFF0028F3D000F0F4FDF0E700BFDC
:1064B0006022002028310020D425002090250020D3
:1064C00070B51348134A0378D35C88B0DBB90C303D
:1064D00003F096FC104D0FCD6C460FC495E80F00ED
:1064E00008AD062645F8206D84E80F0029460022F5
:1064F000074803F0C9F808B100F0CCFD074B0022B3
:106500001A7008B070BD043003F0EAFEE2E700BF85
:106510006022002028310020D4CF020090250020E6
:1065200070B50D4D0FCD88B06C460FC495E80F00C7
:1065300008AD062645F8206D84E80F002946074A75
:10654000074803F0A1F808B100F0A4FD054B0122B3
:106550001A7008B070BD00BFD4CF020045640200BD
:10656000602200209025002038B50A4DFFF7FEFE7E
:106570000421284600F0F0FB074B01245C71FFF773
:10658000CFFF05F11000042100F0E6FB034B5C7126
:1065900038BD00BF40E00200742200207C220020B1
:1065A000F0B52F4C85B004F5836001F071FB04F267
:1065B000144001F06DFBA368DAB2D01C04EB80013B
:1065C00014F8200010F0040041D09F1C0E7806F053
:1065D0000306012E3D4633D0022E02F1030621D0E0
:1065E00004EB86010028F1D104EB82020133D2686A
:1065F0000192DBB204EB830302F00302012ADE689E
:1066000027D0022A21D1BDF806309B090333360C6E
:1066100005EB9305134801F047FB00B1A560304638
:1066200005B0F0BD4B8807EB9313DAB2D11C9F1C69
:1066300014F821003D4604EB810100F00400D1E78D
:106640000B88C3F383133B44EFE70026E2E79D1C6E
:10665000CAE7BDF80430C3F38313360C1D44D9E7F1
:10666000A8260020BC2A0020064B074810B50022AF
:106670001A7002F06FFC044610B9044802F07CFD69
:10668000204610BDA8260020F0DF020024D0020022
:1066900021B9124B03EBC00000687047104A0F4944
:1066A000521AD20815D030B40E4D2B88834212D026
:1066B000002303E035F82340844205D001339A4299
:1066C000F8D1002030BC704701EBC300006830BC3B
:1066D0007047104670470846F8E700BF50DF0200D9
:1066E000F0DF020018250020094B013903EBC00040
:1066F00003290BD8DFE801F00208060402207047E6
:106700004079704700797047042070470020704737
:1067100050DF0200704700BF2DE9F04182B002ABAC
:10672000002203F8012D334C07461846884600F036
:10673000FDFFD4E9015303F580735B1B012B56D891
:1067400004F21C460121304601F07EFAFFF728FFD3
:106750000146304601F078FAD4E9012303F580734D
:106760009B1A012BEED9D3B20333023205219DF8D7
:10677000070044F82310626000F0FEFF00211E486D
:1067800001F040FA80F310006B1CDBB204EB8303D2
:106790000004EDB2033540EA1740D86014F8253004
:1067A00067F3C50304F8253034F825306FF38913F7
:1067B00024F8253054F8252068F39F221346012140
:1067C00061F301036FF3820344F8252004F82530B8
:1067D00023781BB906E000F011F818B1D4E90132B2
:1067E0009A42F8D1FFF796FF02B0BDE8F0812A4641
:1067F000B9E700BFA8260020C42A00202DE9F043F5
:106800008A4C002385B0C4F81834BFF34F8FA568B5
:10681000EAB2D31C04EB830114F82330580718D5CF
:1068200066680B7803F00303012B42D0022B03D1DF
:106830004B88023505EB9315EAB2D4F81804D31C43
:1068400004EB830128B9AE4239D914F823305B0731
:10685000E7D404EB82026B1CD2680192DBB204EB3A
:10686000830302F00302DB680293022A05F10206A9
:1068700000F08C80012A26D0D4F810543DB12B684A
:1068800028469B689847EB681D68002DF7D168483B
:10689000684B6949C01AC008000440F00200FFF7C5
:1068A0003BFFD4E90130C01A18BF012005B0BDE894
:1068B000F0830B880235C3F383131D44BCE7A66045
:1068C00005B0BDE8F083BDF804205C48C2F3831333
:1068D000062B28BF062363F3891202339900ADF813
:1068E000042002F039FB07460028C5D002F076FBF1
:1068F0000023082201A9384602F096FBBDF80430B7
:1069000013F4707F00F08F806FF00109A9EB050987
:106910000825F1B203312B46042204EB81013846ED
:1069200002F082FBBDF8043006F1010809EB080211
:10693000C3F383139342464605F10405E9D8D4F81E
:106940001834002B65D1D4F8105465B1EB685A792E
:1069500028463946002A58D02B681B689847EB68B0
:106960001D68002DF2D1384602F03CFB04A800233C
:1069700000F80D3D00F0DAFED4F818340BB9C4F875
:1069800008809DF8030000F0F7FE8AE7BDF80630A6
:106990002A484FEA93194D46502D28BF502565F3DC
:1069A0008F1305F10801ADF8063002F0D5FA07465D
:1069B00000283FF461AF6FEA06085FFA88F802F03A
:1069C0000DFB08F1010801A900230822384602F056
:1069D0002BFB4FEA8808F1B20331454504EB8101F6
:1069E0001BD9A5EB0805082342463846EDB202F054
:1069F0001BFB2A4608F108031149384602F014FB34
:106A000009F1030806EB980899E71D68002D9DD150
:106A1000A9E7384602F0E6FA43E72A460823384653
:106A200002F002FBECE7B04689E700BFA826002091
:106A300088DF020050DF020030D00200F0DF0200E9
:106A4000B42600202DE9F04383B002AB002403F804
:106A5000014D364C074618468846914600F066FEC2
:106A6000D4E9015303F580735B1B022B5CD804F25D
:106A70001C460121304601F0E7F8FFF791FD014681
:106A8000304601F0E1F8D4E9012303F580739B1A45
:106A9000022BEED9D3B203334521033244F823103D
:106AA0009DF80700626000F067FEAB1CDBB204EBF0
:106AB000830300211E48C3F80C9001F0A3F880F373
:106AC00010006B1CDBB204EB83030004EDB2033552
:106AD00040EA1740D86014F8253067F3C50304F87E
:106AE000253034F82530012161F3891324F825304D
:106AF00054F8252068F39F22134661F301036FF3D6
:106B0000820344F8252004F8253023781BB906E0D9
:106B1000FFF774FE18B1D4E901329A42F8D1FFF7B9
:106B2000F9FD03B0BDE8F0832A46B3E7A8260020AC
:106B3000C42A00202DE9F04782B002AD002405F8F8
:106B4000014D3A4C0746284699468846924600F041
:106B5000EDFDD4E9015303F580735B1B032B63D870
:106B600004F21C460121304601F06EF8FFF718FDD3
:106B70000146304601F068F8D4E9012303F580733B
:106B80009B1A032BEED9D3B20333852144F823108B
:106B900004329DF80700626000F0EEFDAA1CEB1CB9
:106BA000D2B2DBB204EB820204EB83030021204863
:106BB000C2F80CA0C3F80C9001F024F880F3100088
:106BC0006B1CDBB204EB83030004EDB2033540EA37
:106BD0001740D86014F8253067F3C50304F8253052
:106BE00034F82530022262F3891324F8253054F852
:106BF000252068F39F221346012161F301036FF3FF
:106C0000820344F8252004F8253023781BB906E0D8
:106C1000FFF7F4FD18B1D4E901329A42F8D1FFF739
:106C200079FD02B0BDE8F0872A46ACE7A82600202F
:106C3000C42A00202DE9F04B82B002AD002405F8F3
:106C4000014D3D4C804628461F468946934600F03C
:106C50006DFDD4E9015303F580735B1B042B68D8E9
:106C600004F21C460121304600F0EEFFFFF798FCCD
:106C70000146304600F0E8FFD4E9012303F58073B4
:106C80009B1A042BEED9D3B20333C52144F8231049
:106C900005329DF80700626000F06EFDA81CEA1C3A
:106CA0002B1DC0B2D2B204EB800004EB8202DBB237
:106CB00004EB8303C0F80CB00021D7601F480A9A88
:106CC000DA6000F09FFF80F310006B1CDBB204EB76
:106CD00083030004EDB2033540EA1840D86014F88D
:106CE000253068F3C50304F8253034F82530032235
:106CF00062F3891324F8253054F8252069F39F2284
:106D00001346012161F301036FF3820344F8252048
:106D100004F8253023781BB906E0FFF76FFD18B1A2
:106D2000D4E901329A42F8D1FFF7F4FC02B0BDE891
:106D3000F08B2A46A7E700BFA8260020C42A00201F
:106D4000044BD3E901239A4201D0FFF757BD00203D
:106D5000704700BFA826002030B4184DD5F8104465
:106D600000215CB1E3681A798A4204D116E0DB683D
:106D70001A798A4212D01B68002BF8D1C3681971A6
:106D8000D5F8103493B1DA68C36812681A60D5F880
:106D90001034DB68186030BC0846704701310A299E
:106DA000DFD14FF0FF31084630BC7047C5F8100402
:106DB000C2681360084630BC704700BFA826002098
:106DC00038B5084BD3F8104401251D704CB1E36869
:106DD0005D71236820465B689847E3681C68002C57
:106DE000F5D138BDA82600202DE9F04784B01D4616
:106DF0000C9C002394F80C802373EB8881460E468C
:106E00001746002B40D1297A05290ED06B7AA88825
:106E100073BB404B53F821A00021FFF739FC5246C9
:106E200003463D49204600F0B7FF062F09D8DFE8AA
:106E300007F0046A4249525D33004946204600F09B
:106E4000ABFF2B7A052B05D06B7A5BB93349204613
:106E500000F0A2FF204600F093FF84F80C8004B0FD
:106E6000BDE8F0872E4A2F49204600F095FFEDE758
:106E7000FFF73AFC2C4B2B4953F82020204600F01A
:106E80008BFF297AA888C4E7254A00922749284A17
:106E9000204600F081FFB6E7D6E90410D6E90023CA
:106EA0000390D6E902070291CDE900074946204642
:106EB00000F072FFC5E74946D6E90023204600F0FE
:106EC0006BFFBEE7B168D6E9002320460091494632
:106ED00000F062FFB5E7D6E90201D6E9002301918F
:106EE00000904946204600F057FFAAE7D6E9037113
:106EF000B068D6E900230291CDE900074946204653
:106F000000F04AFF9DE732684946204600F044FF02
:106F100097E700BFBCD00200ACD00200B8D002009E
:106F2000A0D00200A8D0020048D0020088D0020001
:106F300080D00200082900D970472DE9F04F1D4686
:106F4000904600232A7B2B7385B0B8F80630039255
:106F500007460E46002B7BD198F80810052911D062
:106F600098F80930B8F80400002B63D13C4B53F873
:106F700021400021FFF78CFB224603463949284671
:106F800000F00AFFDFF8FCB0DFF8FC90002405E019
:106F90003A5D013400F000FF082C09D0A6424946B2
:106FA0002846F5D85946013400F0F6FE082CF5D1F4
:106FB0002D49DFF8D8B0DFF8D890284600F0ECFE75
:106FC00000240CE017F804A0BAF17E0F23D92E227A
:106FD00049462846013400F0DFFE082C08D0A642BE
:106FE000F0D859462846013400F0D6FE082CF6D1D8
:106FF00098F80830052B02D098F80930A3B91B493E
:10700000284600F0C9FE284600F0BAFE039B2B7309
:1070100005B0BDE8F08F05F063FF50445246437859
:1070200013F0970FD3D0D3E7114A1249284600F046
:10703000B3FEE4E7FFF758FB0F4B0E4953F820204F
:10704000284600F0A9FE98F80810B8F804008DE76B
:10705000074A009209490A4A284600F09DFE7BE74C
:10706000BCD00200ACD0020078D00200B8D0020040
:10707000A0D00200A8D0020048D0020088D00200B0
:1070800080D0020074D002006CD00200B4D00200A4
:107090007CD0020000B585B000230390194601AAF8
:1070A00044F20100CDE9013300F004F805B05DF8C9
:1070B00004FB00BF10B572B6FFF782FEFFF740FE7B
:1070C0000028FBD1104B114C1149E41AE4082404A8
:1070D00044F00100FFF720FB0E4B1B68DB0700D5D7
:1070E00000BE44F002000C49FFF716FBBFF34F8FC0
:1070F0000A490B4BCA6802F4E0621343CB60BFF34A
:107100004F8F00BFFDE700BF50DF020088DF0200A5
:1071100034D10200F0ED00E040D1020000ED00E0CB
:107120000400FA05D0E90223D1E90201994208BF1F
:1071300090422CBF01200020704700BF2DE9F04F86
:1071400087B0029000F03EFC40B1B849D1E900237D
:1071500012F1807443F10005C1E900450021029855
:10716000DFF8E48200F04AFC002800F0D080D8F874
:107170000030002B00F0CB80AD4BD8F800401B78DE
:107180003BB334B3AB4800F04BFCA84AAA4BD2E95E
:107190000067D3E9002316EB000947F1000A9A457E
:1071A00008BF91454846514603D219F180704AF113
:1071B0000001D4E90223994208BF904280F0858102
:1071C000013308BFB2F1FF3F03D021469B4801F0D5
:1071D000F7FF05AB0393002301210298C8F80030A4
:1071E00000F00CFC002800F09B809248924E00F0CA
:1071F00017FC8E4BD3E90045D6E9002314EB0009B8
:1072000045F1000A9A4508BF91454846514603D2C8
:1072100019F180704AF10001039FC6E90001394667
:10722000874800F093FC002840F08280DFF80C9241
:10723000804DDFF8F8A1484601F0DCFF00285ED061
:10724000D0E902235F1C08BFB2F1FF3F00F0EA80E3
:10725000D8F80010B1B1D8F80010D1E902018B4282
:1072600008BF824280F09C80D8F80030D3E9022326
:10727000013308BFB2F1FF3F04D0D8F800104846F0
:1072800001F09EFF484601F0AFFF0446D4E9022317
:107290002846CDE9002300F0C3FBDAE90023664E5F
:1072A000121843F1000393469C46D6E900239C45FF
:1072B00008BF9345DDE9002303D21BF1807B4CF12D
:1072C000000CB2EB0B0063EB0C01012871F100071D
:1072D00069DB5C4FB84200F294804FF41603002142
:1072E000284600F0E9FA002854D00D285FD000238A
:1072F0004846C8F8003001F07DFF0028A0D1D8F83A
:107300000030002B4CD1029800F0ACFA48E005ABFD
:1073100001210298039300F071FB00287FF465AF10
:10732000039F4748394600F011FC00283FF47EAF28
:107330000378434E012B4FF0FF344FF0FF3520D040
:1073400064D3022B0FD1DFF8F490484601F04CFFD4
:1073500030B1C0E90245484601F046FF0028F8D1A7
:10736000334B01221A703946304600F01DFC394675
:10737000304600F0EBFB00283FF458AF0378012BB8
:10738000DED14168D8F80030994263D02B4801F033
:1073900035FFE8E7D8F80030002B57D0C8F8004098
:1073A00007B0BDE8F08F0021284600F01BFB204B02
:1073B0001B78002B9BD0284600F032FBDAE9002333
:1073C000D6E9006712EB000B43F1000CBC4508BF87
:1073D000B3455846614603D21BF180704CF1000161
:1073E000D4E90223994208BF904237D2013308BF43
:1073F000B2F1FF3F3FF47BAF2146484601F0E0FE8B
:1074000075E7284600F00CFBC21966E74168D1E930
:107410000223013308BFB2F1FF3FA4D0074801F0B7
:10742000CFFEA0E7484601F0DFFE04E7682B00200E
:10743000702B002084220020E02B002050D102007D
:10744000CC2B0020FFFF6900E82B0020029800F001
:1074500005FAA3E70023C8F8003084E70023039867
:107460008DF8143000F062F923692BB94FF0FF3228
:107470004FF0FF33C4E902239DF8140000F07CF9BB
:10748000D4E905309847002303988DF8143000F0B4
:107490004DF92369A3B1D4E90212561C08BFB1F11A
:1074A000FF3F9DF814000DD0CE1842F10007C4E94B
:1074B000026700F061F92146484601F081FE16E7B7
:1074C0009DF8140000F058F911E706AB1A460023A6
:1074D00002F8043D1046039200F028F923692BB905
:1074E0004FF0FF324FF0FF33C4E902239DF8140040
:1074F00000F042F9D4E905309847002303988DF84D
:10750000143000F013F9216921B99DF8140000F03E
:1075100033F960E6D4E90256731C08BFB5F1FF3FAA
:107520009DF814000BD06A1846F10003C4E9022349
:1075300000F022F92146034801F042FE4BE600F03C
:107540001BF948E650D1020030B583B0072400256E
:1075500008235822124913488DF80640ADF804500C
:1075600000F07EFA044610B1204603B030BD0E4A4A
:107570000E4801A900F018F904460028F4D10121B1
:107580000A4800F015FA01231946094A074800F095
:107590006DF9084B012220461A7003B030BD00BFC0
:1075A000742B0020CC2B00203D710200842200208F
:1075B000FFFF7F00702B00208AB130B4A1F10101E0
:1075C0000368B1FA81F14FF0FF344FF0FF354909FC
:1075D000C3E90412C3E90245002030BC704707200C
:1075E000704700BF2DE9F04F83B002AD002405F8CD
:1075F000044D8246284617460E4600F097F8DAE911
:107600000223013308BFB2F1FF3F07D09DF8040009
:1076100000F0B2F8204603B0BDE8F08F204800F03B
:10762000FFF9204B2049D3E90023D1E9008912EB6F
:10763000000B43F1000CCC4508BFC34558466146DA
:1076400003D21BF180704CF10001831941F1000459
:10765000CAE902349DF8040000F08EF8DAF8103020
:10766000CAF818700BB1CAF8106029460F4800F02C
:1076700031FA80B10024C0F804A0047029460B48F8
:1076800000F054FA0028C6D0054800F0CDF9204695
:1076900003B0BDE8F08F042003B0BDE8F08F00BF59
:1076A00084220020682B0020E02B0020CC2B00201F
:1076B00070B582B002AC002504F8045D0646204691
:1076C00000F034F8D6E90223013308BFB2F1FF3FDE
:1076D00018D04FF0FF324FF0FF339DF80400C6E999
:1076E000022300F049F821460E4800F0F3F980B17A
:1076F00001234660037021460A4800F017FA58B982
:1077000002B070BD9DF8040000F036F8284602B0C3
:1077100070BD042002B070BD034800F085F9284612
:10772000EEE700BFCC2B00208422002070B4EFF3E2
:10773000108472B60D4B9A68AAB90D490D4E0125F9
:107740009D60D1F8805035401D60C1F88060D1F84F
:1077500084505D604FF0FF33C1F88430027004B98B
:1077600062B670BC704701230370F8E71C3100203B
:1077700000E100E0FC06FFBD094B9A687AB170B9E0
:1077800010B4EFF3108172B6064A1C6814605C688E
:107790005460986001B962B65DF8044B7047704759
:1077A0001C31002000E100E0F8B5244E4579244C5E
:1077B000244B254F9B1B04EBC506DB08367947F8A5
:1077C00025201B0496BB02680D88C2F8085590F965
:1077D00004208978002A21DB02F1604202F561422F
:1077E0004901C9B282F8001390F90420002A07DB8E
:1077F000164D02F01F0601215209B14045F8221032
:107800004279134944F8320004EBC20443F0030008
:1078100001232371FEF780FF0020F8BD0D4D02F01B
:107820000F0249011544C9B22976DDE743F0020091
:107830000949FEF771FF0820F8BD00BF50DF0200C4
:10784000EC2B002098DF0200F42B002000E100E088
:107850009CD10200FCEC00E078D102000368012218
:107860001A607047036801225A607047F0B40468D8
:107870004FF480358D40C4F8085306688C00C6F874
:10788000485304F5A0740668A4B20027375182B0AB
:1078900036590468019601F5A87122F07F42019ED5
:1078A00044F821200268C2F8445313B10368C3F8B6
:1078B000045302B0F0BC70472DE9F04788464FF4FE
:1078C0008037016807FA08F7C1F848730168C1F802
:1078D0000873064600684FEA88040119D0F8045579
:1078E000D1F84005C1F8405504F5A074A4B2316840
:1078F0004FF0000941F8049082B0401B09590091F3
:1079000020F07F4001289A4622F07F45009B0BD152
:10791000264B4FF4806043F001039847336843F8E7
:1079200004901B590193019B3368D3F80445C3F8B5
:1079300044732B1B23F07F43012B08F5A87817D144
:1079400030681A4B013540F8285043F001034FF4DA
:10795000806098473268D2F804359C4222D1C2F840
:10796000447333680020C3F8047302B0BDE8F087A5
:10797000336843F828503268D2F804156B1ACAF1FC
:10798000FF1A013B0AF57F4A23F07F439A4509D34A
:10799000002BE4D1013542F828503268D2F8043582
:1079A0009942DCD00D2002B0BDE8F08770D1020012
:1079B00002680223C2F8443311B10268C2F80433EA
:1079C000704700BF0368D3F8040150B1002282B0B1
:1079D000C3F80421D3F804310193019B012002B0C4
:1079E000704770474FF48033026803FA01F1C2F820
:1079F00048130368C3F80813704700BF890001F5F6
:107A0000A07189B20368585840B100225A5082B020
:107A10005B580193019B012002B07047704700BF83
:107A20000368D3F80405704790F90430002B09DB94
:107A30005A09403203F01F030121034801FA03F3FE
:107A400040F82230704700BF00E100E0024A034BDB
:107A500010681B68184700BFEC2B0020F42B002097
:107A600099B110B4B2FBF3F403FB1424A4B244B9EB
:107A7000C0E9001484608281C38120465DF8044B14
:107A8000704709205DF8044B70470E20704700BF17
:107A900082B050E8022FC188B2EB324F4FF00003A2
:107AA00017BF92B241EA014142EA014104E0426853
:107AB000B2EB324F08BF012340E80212002AE8D19E
:107AC0008DF807309DF80730002B0CBF11200020E7
:107AD00002B0704730B482B050E8013F9DB2C48913
:107AE00025448489A54228BF2D1B0489A54202BFD5
:107AF000BFF32F8F002207E0C5EA030540E80154D9
:107B0000002CE9D14FF001028DF803200193019B75
:107B10009DF803200B602AB10B880068184402B05E
:107B200030BC704702F0FF031846F8E70A884B881C
:107B30009A4201D00020704750E8012FC2EA024269
:107B400040E80123002BF7D10120704730B482B008
:107B500050E8023F1FFAA3F5C488A54202BFBFF355
:107B60002F8F00220DE0C48925448489A54228BFB7
:107B70002D1BC3EA054540E80254002CE8D14FF024
:107B800001028DF803200193019B9DF803200B60F7
:107B90002AB14B880068184402B030BC704702F02C
:107BA000FF031846F8E700BF0A884B889A4201D0C5
:107BB0000020704750E8022FC2EA224240E8022328
:107BC000002BF7D10120704701F01F024B09012162
:107BD00000EB8300914000F01FB800BF01F01F02CE
:107BE00001234909934000EB8100D94300F020B8FC
:107BF0004B0901F01F0150F82300C84000F00100BC
:107C0000704700BF50E8002F0B4640E8003C9CF056
:107C1000000FF7D11046704750E8003F43EA0102D9
:107C200040E8002C9CF0000FF6D11046704700BFD2
:107C300050E8003F03EA010240E8002C9CF0000FEE
:107C4000F6D11046704700BF50E8003F03EB010239
:107C500040E8002C9CF0000FF6D11046704700BFA2
:107C600050E8003FA3EB010240E8002C9CF0000F1D
:107C7000F6D11046704700BF012350E800CF4CEA10
:107C8000030240E8002191F0000FF6D160467047F2
:107C9000012350E8002F42EA030C40E800C191F0B4
:107CA000000FF6D160467047002350E800CF0CEA81
:107CB000030240E8002191F0000FF6D160467047C2
:107CC000B8B130B4D0E90112521A0468D2B2531ECE
:107CD0002160DBB242B101680A685C1E551C0D6070
:107CE0001370E3B2FF2BF6D103680020187130BC8B
:107CF00070470E20704700BFF0B583B002AB00257F
:107D000003F8015D04461846FFF710FDD4E9003181
:107D10001A688A4210D9511E19602168A3680F6839
:107D200012F8015C0A79268AE068DB1BDBB29A4212
:107D300006FB050538BF0B719DF80700FFF71CFD1A
:107D4000284603B0F0BD00BF30B583B002AB0022BF
:107D500003F8012D054618460C46FFF7E7FC2A6894
:107D60001368591C1160E9682A8A641AB4FBF2F49A
:107D70001C709DF80700FFF7FFFC03B030BD00BF8B
:107D8000826842B110B504464369016800699847AA
:107D90000023A36010BD70470EB400B582B00399F4
:107DA00029B102AA04AB42F8043D00F08BF802B0FE
:107DB0005DF804EB03B070472DE9F84F8846904515
:107DC000174605461E46DDE90AB175D343464FF016
:107DD0000109B3FBF7F39F4209F10109F9D9B14554
:107DE00038BFB14611F0010AAA6802D1BBF1000FF9
:107DF00043D1012402E0013E07FB04F4012EFAD82E
:107E0000B8FBF4F18F42F7D92D4E05E0B4FBF7F43F
:107E1000A4B1B8FBF4F1AA68705C531CAB602B688A
:107E20009854D5E901329A4204FB1188EED32846D2
:107E3000FFF7A6FFB4FBF7F4002CEAD1BAF1000F6C
:107E400015D0BBF1000F12D0CB4510D92024AB6860
:107E50002A68591CA960D454D5E901329A420BF121
:107E6000FF3B06D2BBF1000F01D0CB45EFD1BDE8FF
:107E7000F88F2846FFF784FFF4E78B0717D42024F8
:107E8000CB45B6D92B68511CA9609C54D5E9013269
:107E90009A420BF1FF3B05D2BBF1000FA9D0CB45B5
:107EA000F0D1A6E72846FFF76BFFAA68F4E7002E9B
:107EB0000CBF30242024E3E74FF001098FE700BF17
:107EC000B0D10200002900F0F4812DE9F04F054601
:107ED00085B092460C460B78DFF8A8B501E0237810
:107EE00093B1013483B1252B15D0AA682968501CA1
:107EF000A8608B54D5E901329A42F0D32846FFF7A7
:107F00003FFF2378002BECD12B7B002B40F014811A
:107F100005B0BDE8F08F2146002711F8012B2D2A6E
:107F200000F0E180302A00F0E2802B2A00F0D280BD
:107F30002A2A00F0E080A2F13006F3B2092B03D91F
:107F4000B8E1A3F130060146084606EB860310F8B7
:107F5000012BA2F13004092C02EB4303F1D92E2AA4
:107F600000F0D5800023013101E011F8012B02F06F
:107F7000FB0068280C46F8D0253A532AAFD801A157
:107F800051F822F045810200DF7E0200DF7E020010
:107F9000DF7E0200DF7E0200DF7E0200DF7E020065
:107FA000DF7E0200DF7E0200DF7E0200DF7E020055
:107FB000DF7E0200DF7E0200DF7E0200DF7E020045
:107FC000DF7E0200DF7E0200DF7E0200DF7E020035
:107FD000DF7E0200DF7E0200DF7E0200DF7E020025
:107FE000DF7E0200DF7E0200DF7E0200DF7E020015
:107FF000DF7E0200DF7E0200DF7E0200DF7E020005
:10800000DF7E0200DF7E0200DF7E0200DF7E0200F4
:10801000DF7E0200DF7E0200DF7E0200DF7E0200E4
:10802000DF7E0200DF7E0200DF7E0200DF7E0200D4
:10803000DF7E0200DF7E0200DF7E0200DF7E0200C4
:10804000DF7E0200DF7E0200DF7E0200DF7E0200B4
:108050005F810200DF7E0200DF7E0200DF7E020021
:10806000DF7E0200DF7E0200DF7E0200DF7E020094
:10807000DF7E0200DF7E0200DF7E020079810200E7
:108080009B810200DF7E0200DF7E0200DF7E0200B5
:10809000DF7E02009B810200DF7E0200DF7E0200A5
:1080A000DF7E0200DF7E0200DF7E0200DF7E020054
:1080B000EB810200DF7E0200DF7E02005F820200B1
:1080C000DF7E020099820200DF7E0200DF7E020076
:1080D0005F81020047F004070C46214611F8012B8E
:1080E0002D2A7FF41FAF47F001070C46F5E747F054
:1080F00002070C46F1E7DAF800301A1DCAF8002032
:1081000062781E682E2A04F102007FF42BAF4A78B1
:10811000A2F13003092B00F25081002303EB83030B
:1081200002EB430310F8012FA2F130010929A3F15A
:108130003003F3D9014616E7284605B0BDE8F04FF5
:10814000FFF71EBEAB682A68591CA9604FF02501D5
:10815000D154D5E901329A42FFF4C1AECEE6DAF845
:108160000020111DCAF8001011682846CDE90067EB
:108170001022FFF721FEB2E6DAF80020131DCAF83C
:108180000030AB6829681278581CA860CA54D5E939
:1081900001329A42FFF4A3AEB0E6DAF80020111DD6
:1081A000CAF80010D2F8008088EAE872A2EBE87200
:1081B000092A4FF0010107DDB148A0FB0202D208F5
:1081C000092A01F10101F7DC994238BF19468946B5
:1081D00007F00202002E71D12AB1002B00F04B8172
:1081E000FA0700F18D8000268AE0DAF80020131DDE
:1081F000CAF80030AB6829681768581C3022A8609C
:10820000CA54D5E90123934280F02C812A68581C76
:108210007821A860D154D5E90123934280F01D81D3
:108220000F2F03D93A4612090F2AFCD84FF0805677
:1082300003E036093FF453AEAB682968B7FBF6F2AA
:10824000581CA8601BF80200C854D5E901319942B6
:1082500006FB1277EDD32846FFF792FDE9E7DAF83F
:1082600000301A1DCAF80020D3F80080FB077ED525
:108270004746A7EB080917F8013B002B5DD0AA6819
:108280002968501CA8608B54D5E901329A42F0D37A
:108290002846FFF775FDECE7DAF80020111DCAF853
:1082A000001011682846CDE900670A22FFF784FD17
:1082B00015E6704708460026214650E6B8F1000F43
:1082C00001DB780700D5013E02B1CBB1F90717D425
:1082D000002E88D0B14513D220220393A9682B68C1
:1082E000481CA8605A54D5E90131994206F1FF367D
:1082F0005DD2002E00F0C180B145EFD1039B4E4608
:10830000B8F1000FC0F296807A070AD5A9684A1C16
:10831000AA602A682B205054D5E90121914280F0AF
:10832000968007F00302022A5FD0CDE9006741463C
:108330000A222846FFF740FDD1E54E457FF6CFAD36
:10834000202705E04E453FF4CAAD002E3FF4C7ADEF
:10835000AB682A68591CA960D754D5E901329A4202
:1083600006F1FF36EED32846FFF70AFDEAE7B8F13B
:10837000000F24D0404604F0FDFD0746BE4220D940
:10838000FEB14FF0200902E0BE421AD0CEB1AB6878
:108390002A68591CA96002F80390D5E901329A4273
:1083A00006F1FF36F0D32846FFF7EAFCECE7284653
:1083B0000292FFF7E5FC029A9BE70146D2E54746A9
:1083C000DCE708F1FF3818F8013F002B3FF487ADD8
:1083D000AA682968501CA8608B54D5E901329A42DA
:1083E000F1D32846FFF7CCFCEDE7002B9DD1002E02
:1083F0003FD0B14599D2029323464C46B1461E4622
:10840000AA682B68501C4FF03001A8609954D5E938
:1084100001329A4209F1FF3908D2B9F1000F26D092
:108420004C45EDD13446029B4E467EE72846FFF789
:10843000A7FCF2E7A9684A1CAA602A682D205054BC
:10844000D5E901219142C8F10008FFF46AAF28463E
:108450000293FFF795FC029B63E72846FFF790FC29
:10846000AB68DDE62846FFF78BFCAB68CEE6029BE7
:108470003446002659E71E4642E7039BB3E600BF99
:10848000CDCCCCCCB0D1020010B582B038B1B9B1EE
:1084900001600B68114602B0BDE8104018470B4858
:1084A0000B4C0C4B0C4A0D49001BC0080E24000459
:1084B00040F001000094FEF7BDFB0E2002B010BD9D
:1084C0000248034C034B064AEDE700BFA8DF020059
:1084D00050DF0200C0D1020088D2020090D2020018
:1084E000BCD20200F0B583B000283CD0002A4BD0AB
:1084F0000668002E4DD003B38F072FD1C768B9424D
:1085000010D22C482C4C2D4B2D4A2E49001BC00854
:108510001024000440F001000094FEF78BFB20467D
:1085200003B0F0BD4C1E05691C44AC42E9D8B468E8
:10853000A44603B0BDE8F04060471F4C1D481F4BE8
:10854000214A2049001BC0080924000440F0010012
:108550000094FEF76FFB204603B0F0BD1548164CA3
:10856000164B1A4AD1E71348134C144B184A1549B5
:10857000001BC0080E24000440F001000094FEF728
:1085800059FB204603B0F0BD0A480B4C0B4B114A77
:10859000EDE7094C0748094B0F4A0A49001BC00880
:1085A0000824000440F001000094FEF743FB20463D
:1085B000B6E700BFA8DF020050DF0200D4D10200FE
:1085C000E8D2020090D20200CCD20200D0D2020047
:1085D00088D20200C4D2020010D302002DE9F0417B
:1085E00082B0002854D0002A64D0D0F800C0BCF17A
:1085F000000F69D01C46002B33D04768D7F80480A1
:10860000B3FBF8F708FB1737002F3CD18F0723D1B6
:1086100012F0030F53D1C768B94211D23248334C1C
:10862000334B344A3449001BC0081024000440F086
:1086300001000094FEF7FEFA204602B0BDE8F0818A
:108640004E1E05693444AC42E8D8DCF80C40A44620
:1086500002B0BDE8F04160472348244C244B274A30
:10866000E0E72148214C224B254A2349001BC00842
:108670000924000440F001000094FEF7DBFA2046D4
:1086800002B0BDE8F0811848184C194B1D4AECE7C0
:108690001548164C164B1C4A1749001BC0080E24DF
:1086A000000440F001000094FEF7C4FA204602B036
:1086B000BDE8F0810C480D4C0D4B144AECE70A481C
:1086C0000A4C0B4B124AADE7084C0748084B114ABD
:1086D0000949001BC0080824000440F00100009470
:1086E000FEF7A8FA2046A8E7A8DF020050DF020044
:1086F000E8D102008CD3020090D2020050D30200D5
:10870000CCD2020024D3020088D202001CD3020083
:1087100068D3020010D30200F0B583B0002843D024
:10872000D0F800C0BCF1000F4ED03AB34768D7F87C
:1087300000E00EF1FF370F4231D1C768B94210D2C5
:1087400029482A4C2A4B2B4A2B49001BC0081024CD
:10875000000440F001000094FEF76CFA204603B0DC
:10876000F0BD4D1E04690EFB0255A542E8D8DCF8A9
:108770001040A44603B0BDE8F04060471B4C1A48C7
:108780001B4B1E4A1C49001BC0080924000440F072
:1087900001000094FEF74EFA204603B0F0BD1248E7
:1087A000124C134B164ACFE7104C0F48104B154A8A
:1087B0001149001BC0080E24000440F00100009481
:1087C000FEF738FA2046CAE7084C0748084B0E4A1D
:1087D0000949001BC0080824000440F0010000946F
:1087E000FEF728FA2046BAE7A8DF020050DF0200B1
:1087F000FCD1020038D2020090D20200CCD202009A
:1088000010D2020088D2020010D3020018B103680F
:108810000BB1DB69184770B50D4C0E4D0E4B2D1B7F
:10882000A3FB05352D0910D005EB850504EB850567
:1088300001E0AC4209D0236820461434002BF8D064
:10884000DB6998470028F4D070BD002070BD00BFE0
:10885000182500202C250020CDCCCCCC29DF70475A
:1088600028DF70470846704700207047024B187A8F
:10887000003018BF01207047942C0020034B187A59
:108880000122B0FA80F05A7440097047942C0020FD
:1088900008B510461A4604F052FB002008BD00BF80
:1088A00008B514220021044804F054FB0348FFF7E4
:1088B000EFF8002008BD00BF942C0020842C00207D
:1088C00010B5094C094B43602046FFF7D5F940B974
:1088D00002F002FF1C2320748C2205490548FFF793
:1088E000BFF8002010BD00BF942C0020C4D30200AC
:1088F000F82B0020842C002030B55E4C237A87B002
:10890000002B3AD05C4B1B68022222721A79002A93
:108910003ED0012A0CD1D3E903021044FFF7A0FF97
:10892000002849D0112803D10123237207B030BD9C
:1089300019688A68C2B1002268460092C0E9022222
:108940000325026101959A6805921A79002A4BD095
:10895000012A07D102228DF80020DA681203029260
:108960005B6904938B689847002344494448237209
:108970006360FFF719F907B030BD40494048FFF781
:10898000E5F83D4A034610600028BDD16060F2E77B
:10899000D3E90525521BB2F5805F28BF4FF4805202
:1089A000D3E903109208012A38BF01222944284440
:1089B000FFF754FF0028B5D1227C002ADBD1227AB0
:1089C000002AD8D0022A0AD1E0601A79DAB1012A45
:1089D00005D1D3E9042101328A421A611FD0637C98
:1089E00073B102F069FEC6E701228DF800201A6912
:1089F0000292DA6803925B6904938B689847B3E745
:108A0000FFF77AFFB7E7D3E90512881AB0F5805F60
:108A100094BF121802F5805291429A61DFD1002270
:108A2000227219688868A8B168460092C0E90122DC
:108A3000C0E903229A6805921A7982B1012A07D106
:108A400002228DF80020DA68120302925B69049317
:108A50008B68984709490A48FFF7A6F8BFE7012243
:108A60008DF800201A690292DA6803925B69049318
:108A7000EEE700BF942C0020AC2C0020A82C002096
:108A8000842C00202DE9F04782B0824689461748A1
:108A900001A990461F46FFF71DF810B304460021B8
:108AA0001C220D46124E04F055FA0A9BC4F800A091
:108AB000A360C4E90389676101A925710B48FFF729
:108AC00035F8301DFFF7D8F838B9747C34B9FFF7A2
:108AD00013FF204602B0BDE8F087284602B0BDE88B
:108AE000F087042002B0BDE8F08700BF842C00208E
:108AF000942C00202DE9F04383B081460D461648A2
:108B000001A917469846FEF7E5FF08B304461C2264
:108B1000002104F01FFA114EC4F8009001232D0B20
:108B2000C4E90285676101A923710B48FEF7FEFFC6
:108B3000301DFFF7A1F838B9747C34B9FFF7DCFEBB
:108B4000204603B0BDE8F083002003B0BDE8F08309
:108B5000042003B0BDE8F083842C0020942C002076
:108B600000F0FD03012B00D0704730B5604CA0F140
:108B70000100B0FA80F0237A4009002287B0207407
:108B80006274002B3AD05B4B1B68022222721A7966
:108B9000002A3ED0012A0CD1D3E903021044FFF78A
:108BA0005FFE002849D0112803D10123237207B0AA
:108BB00030BD19688A68C2B1002268460092C0E9D7
:108BC00002220325026101959A6805921A79002A0A
:108BD0004BD0012A07D102228DF80020DA68120357
:108BE00002925B6904938B6898470023424943488B
:108BF00023726360FEF7D8FF07B030BD3E493F489F
:108C0000FEF7A4FF3B4A034610600028BDD1606018
:108C1000F2E7D3E90525521BB2F5805F28BF4FF478
:108C20008052D3E903109208012A38BF0122294457
:108C30002844FFF713FE0028B5D1227C002ADBD19F
:108C4000227A002AD8D0022A0AD1E0601A79CAB161
:108C5000012A05D1D3E9042101328A421A611DD0CB
:108C6000637C63B102F028FDC6E701228DF8002085
:108C70001A690292DA6803925B690493B3E7FFF71B
:108C80003BFEB9E7D3E90512881AB0F5805F94BFBF
:108C9000121802F5805291429A61E1D100222272AB
:108CA00019688868A8B168460092C0E90122C0E945
:108CB00003229A6805921A7982B1012A07D1022209
:108CC0008DF80020DA68120302925B6904938B68C6
:108CD000984709490948FEF767FFC1E701228DF867
:108CE00000201A690292DA6803925B690493EEE746
:108CF000942C0020AC2C0020A82C0020842C0020D8
:108D0000831E012B00D9704730B58E4C237A87B073
:108D1000002B31D0022B2BD103286BD1E368013318
:108D2000082B79D9884B00221B68E26022720D253E
:108D300019688A68C2B1002268460092C0E902221E
:108D4000026101959A6805921A79002A00F0B980AB
:108D5000012A07D102228DF80020DA68120302925C
:108D60005B6904938B68984778497948FEF71CFF44
:108D7000637C1BB102F0A0FC07B030BD237A002B4E
:108D80005BD0714B1B68022222721A79002A5FD0D5
:108D9000012A0BD1D3E903021044FFF761FD00283B
:108DA00069D0112802D101232372E5E719688A6886
:108DB000C2B1002268460092C0E902220325026186
:108DC00001959A6805921A79002A70D0012A07D174
:108DD00002228DF80020DA68120302925B69049384
:108DE0008B68984700235949594823726360FEF7FE
:108DF000DBFEC1E7544B00221B68E2601A796AB1BE
:108E0000012AB5D1D3E9042101328A421A6111D075
:108E1000637C002BAED1B4E7E360F9E7D3E9051238
:108E2000881AB0F5805F94BF121802F58052914203
:108E30009A61EDD1002525727AE744494448FEF74E
:108E400085FE414A0346106000289CD1606093E78C
:108E5000D3E90525521BB2F5805FD3E9031028BF83
:108E60004FF480529208012A38BF01222944284435
:108E7000FFF7F4FC93E7227C002A7FF47DAF227A8F
:108E8000002A3FF479AF022A0AD1E0601A7912B3BE
:108E9000012A05D1D3E9042101328A421A6126D080
:108EA000637C002B7FF466AFFFF726FD64E70122A9
:108EB0008DF800201A690292DA6803925B690493C4
:108EC0008EE701228DF800201A690292DA68039277
:108ED0005B69049346E7D3E90512881AB0F5805F11
:108EE00094BF121802F5805291429A61D8D10022A3
:108EF000227219688868A8B168460092C0E9012208
:108F0000C0E903229A6805921A7982B1012A07D131
:108F100002228DF80020DA68120302925B69049342
:108F20008B68984709490A48FEF73EFEB8E70122D8
:108F30008DF800201A690292DA6803925B69049343
:108F4000EEE700BF942C0020AC2C0020A82C0020C1
:108F5000842C0020FEF7B4BE2DE9F041058ACE1C1A
:108F6000043D2E440746B6FBF5F6FEF7C5FE78B382
:108F7000F6B24FF48073013E0446C58007608380DB
:108F800027D08046002509E06379AE4203F1010352
:108F90006371C8F80000076080461AD03846FEF7B3
:108FA000ABFE01350028EFD16679721E14D023463E
:108FB000013082421B68FBD11F684EB10025236837
:108FC0002146013538461C46FEF7BEFEAE42F6D1BC
:108FD00000242046BDE8F0812768EFE70430012136
:108FE000FEF732BEF8B5012104460430FEF738FE24
:108FF000C0B200B1F8BD6679721E12D023460130AE
:1090000082421B68FBD11F68002EF3D00025236825
:109010002146013538461C46FEF796FEAE42F6D193
:10902000F8BD2768F2E700BF2DE9F843C788467905
:1090300007FB06F6043E02EB030C0446664503F10B
:10904000040015468846B0FBF7F238BFF51A07FB57
:10905000120012B1013A2468FCD13E1AAE4228BF78
:109060002E469DB14FF000090430AD1B204432461E
:1090700008EB090103F063FFAF42B14424683E46A8
:109080004FF0000028BF2E46002DEDD1BDE8F8833B
:109090002DE9F843C7884679154607FB06F6043ED6
:1090A00005EB030C1A1D664504468846B2FBF7F033
:1090B00038BFF51A07FB102110B101382468FCD124
:1090C0007E1AAE4228BF2E469DB14FF000090431F2
:1090D0002144AD1B324608EB090003F030FFAF42DC
:1090E000B14424683E464FF0000128BF2E46002DB3
:1090F000EDD1BDE8F88300BF41DF7047064A074B5A
:1091000010B5002414701C60BFF35F8F044905483C
:1091100000F040F8204610BDB82C0020BC2C0020E8
:10912000F0D30200B02C002000B583B002A80023C9
:1091300000F8013DFEF7FAFAF1EE103A23F09F0332
:10914000E1EE103ABFF35F8F0A4B4022C3F884214F
:109150009DF80700FEF710FB02F0BEFA28B920BF09
:1091600040BF20BF03B05DF804FBFFF7C5FF03B0AD
:109170005DF804FB00E100E08268002393608268F0
:109180001361826853618268D36082685360826829
:109190001360704701600B6843604A68934204BFE4
:1091A00000234360704700BF436843B10268916881
:1091B0000B4443605268934204BF002343607047EE
:1091C00070B54468064620680D4618B908E0246862
:1091D000206828B1B368294698470028F7D120684D
:1091E0002860256070BD00BF4368186808B1026838
:1091F0001A60704743681868704700BF406803688A
:1092000073B18B4203D107E0814204D00346186852
:109210000028F9D1704718460B6803600120704799
:109220001846704730B4184DA5F59472AB1ADB1090
:1092300003EBD3735B1002EBC30152F83330984257
:1092400028BF0C4605D311E052F8333098420CD2B7
:1092500021468B1ADB1003EBD3735B108A4202EBBF
:10926000C304F1D3094830BC70470D46984204D975
:1092700004F10802AA42D9D3F4E76068034B00283E
:1092800008BF1846EFE700BF50D5020014D4020013
:1092900030B4AA4B1B685A1C04BFA94B1B78062B81
:1092A00005D1A84BA84A1B68C3F304231360A44B41
:1092B0001B78062B00F00F81A04B1B685D1C04BFC0
:1092C0009F4B1B78062B05D1A04BA14A1B68C3F30B
:1092D000423313609A4B1B78062B00F0E980974BC2
:1092E0001B685C1C04BF964B1B78062B08D14FF003
:1092F00080430022C3F80C21C3F81021C3F838259D
:109300008F4B1B78062B00F0B3808C4B1B68581CCE
:1093100000F0A1808F4A062B126822D08E4AD2F824
:10932000883043F47003C2F88830BFF34F8FBFF327
:109330006F8F824B1B68062B00F0DE804FF01023EE
:10934000D3F80022002AC0F23381D3F80432002B74
:10935000C0F22E81814B824A1A6030BC7047C2F342
:109360000312033A042A40F2DD804FF080537D4A15
:10937000D3F80414C2F82015D3F80814C2F8241541
:10938000D3F80C14C2F82815D3F81014C2F82C1511
:10939000D3F81414C2F83015D3F81814C2F83415E1
:1093A000D3F81C14C2F84015D3F82014C2F84415A1
:1093B000D3F82414C2F84815D3F82814C2F84C1571
:1093C000D3F82C14C2F85015D3F83014C2F8541541
:1093D000D3F83414C2F86015D3F83814C2F8641501
:1093E000D3F83C14C2F86815D3F840145348C2F8B7
:1093F0006C15D3F844140368C2F87015591C00F0BA
:109400009780062B8AD1584A4C4B12681B685749E3
:1094100002F04F020A605A1C24D0062B7FF47EAF64
:109420004FF08042D2F80034DB0774D4434B1B6802
:10943000062B7FF473AF474B1B68033B042B04D808
:109440004B4AD35C002B3FF469AF4A4A136843F49C
:109450008063136062E73A49474A0978126806292F
:109460003FF47DAF364B1B78062B7FF457AFD7E721
:10947000414B1B68C3F30313033B042B3FF645AF7B
:109480003E4AD25C12B13E4A032111603D4AD35C90
:10949000002B3FF43AAF3C4A3C4C3D493D4B052044
:1094A0001060012500203F22256008601A602CE72B
:1094B000314B1B68C3F30313033B042B3FF60FAF81
:1094C000354AD35C002B3FF40AAF344AD36823F00B
:1094D0008073D36003E7284B1B68C3F30313033B7C
:1094E000042B3FF6E9AE2E4AD35C002B3FF4E4AEEA
:1094F0002C4B2D4A1A60DFE6164B1B68033B032BEF
:109500007FF61CAF4FF010224FF08043D2F80822B4
:10951000C3F8582512E7094B6FF001011B68C2F828
:10952000001485E721498A5C002A3FF467AF1CE7F5
:10953000034B1B78062B3FF466AF93E73001001016
:10954000E00F00F0240300104035014044020010F9
:109550003C0500403401001000ED00E08C220020AA
:109560000090D00300C0004058020010E40E0040FC
:1095700044D902003C170040E80F00F04CD902002B
:10958000A00500404CD9020010560040885600400B
:1095900018560040145600404CD90200F0ED00E08F
:1095A0004CD9020074C007400DF0ADBA3CD902009E
:1095B000184B0122C3F80425D3F80024002AFBD05D
:1095C0004FF0102315221349C3F80022D1F80034BC
:1095D000002BFBD04FF0102215210E4BC2F80412C5
:1095E000D3F80024002AFBD000220A49C3F804253E
:1095F000D1F80034002BFBD0BFF34F8F0649074B47
:10960000CA6802F4E0621343CB60BFF34F8F00BF20
:10961000FDE700BF00E0014000ED00E00400FA05B6
:1096200030B585B0047845688DF80040D0E9024037
:10963000064A074B039053F8213001958DF80840F6
:1096400052F821106846984705B030BDC02C002064
:10965000C42C002030B585B0047845688DF80040F2
:10966000D0E90240064A074B039053F82130019598
:109670008DF8084052F821106846984705B030BD73
:10968000C02C0020C42C0020F0B51A4B06781A4DCF
:109690000C6991F81DE045F826400746174803F885
:1096A00006E040F826200C4694460FCC89B06D4663
:1096B0000FC594E80F0085E80F000496BEF1000F77
:1096C0000BD0BCF1000F0E4A694607F1040008BF39
:1096D000002200F011FD09B0F0BDBCF1000F094AF5
:1096E000694607F10C0008BF002200F0BDFA09B07E
:1096F000F0BD00BF28310020C02C0020C42C002069
:10970000219602005596020010B5154B1A6882B0DA
:109710007AB10021134A19601B68507900934FF009
:1097200080410123009CC1F8083310B911685371BE
:1097300088470D4B1A6882B100221A601B6801939A
:109740004FF080420221074B0198C2F808131B68B2
:10975000012002B0BDE81040184702B010BD00BFA4
:1097600000010040C82C0020040100402DE9F04316
:1097700085B00023A34A01931168012900F0AC8051
:109780001E46A14B1A68012A00F0B6809F4B1A684A
:10979000012A00F0C3809E4B1A68012A00F0D08095
:1097A0009C4B1A68012A00F0DD809B4B1A68012A45
:1097B00000F0EA80994B1A68012A00F0F780984B74
:1097C0001A68012A0CD0974B1B68012B00F0FC8013
:1097D00016F0FF0F15D1002E30DB05B0BDE8F08389
:1097E000914AD2F804231206EDD500221A601A68B5
:1097F00002926033029A1B68012B46F0800600F04B
:10980000E3808A4F00240125A30003F180432E4208
:1098100003F5C0434FEA45050BD0D3F8100557F8C0
:109820002420D3F81015C0F30420C1F3014102B184
:1098300090470134082CE7D1002ECEDA7C4E4FF051
:10984000A047A6F154087B4C012514F9011B4B1CC1
:1098500036D0C9B204AB21F0C00003EBD00201F056
:10986000070312F80C2C05FA03F31A4228D08300E0
:1098700003F1A04305FA00FED3F80097D3F80027C0
:1098800022F4403CC3F800C7C9F30142022AD3F8CE
:10989000009714BF4FF4003C4FF4403C49EA0C09D8
:1098A00008EB000CC3F80097C7F820E59CF93030AE
:1098B00058F8233023B18909032940F0958098474F
:1098C000B442C2D1D7F820350193C7F82035002B18
:1098D000B9D105B0BDE8F0835349D1F8046316F05F
:1098E00001063FF44EAF136013680293029B464B90
:1098F0001A68012A7FF44AAF4B4AD2F80423920730
:109900007FF544AF00221A601B680293029B3F4B15
:109910001A68012A46F002067FF43DAF424AD2F8A7
:10992000042357077FF537AF00221A601B680293A4
:10993000029B374B1A68012A46F004067FF430AFC9
:10994000394AD2F8042315077FF52AAF00221A609E
:109950001B680293029B2F4B1A68012A46F00806E7
:109960007FF423AF304AD2F80423D4067FF51DAF2D
:1099700000221A601B680293029B274B1A68012A77
:1099800046F010067FF416AF274AD2F8042390065B
:109990007FF510AF00221A601B680293029B1F4BD9
:1099A0001A68012A46F020067FF409AF1E4AD2F851
:1099B000042351067FF503AF00221A601B6802934F
:1099C000029B46F04006FAE6164B00221A601B681E
:1099D00003934FF0A043039AD3F82025019246F059
:1099E0000046C3F82025F3E6022A06D0032A7FF4B6
:1099F00067AF02297FF464AF61E701297FF460AFAC
:109A00005DE700BF00610040046100400861004064
:109A10000C6100401061004014610040186100407A
:109A20001C6100407C61004000600040D02C0020A0
:109A3000242D0020202D0020014B1B68184700BF5B
:109A40002C2D0020104B984201D00020704730B5DB
:109A500083B002A8002300F8013D0D46FDF766FE25
:109A60000A4B1C7934B19DF80700FDF785FE1120E3
:109A700003B030BD01229DF807001D601A71FDF78B
:109A80007BFE2046F4E700BF002000402C2D002084
:109A9000034B984203D1034B00221A601A7170479E
:109AA000002000402C2D002030B56D4AD2F8043340
:109AB00099058BB068D5D2F82431002B64D00023EF
:109AC000C2F82431D2F8243101934FF40171654B6F
:109AD0000198C2F8081393F8291009B901215160BF
:109AE0005F4902228DF81820D1F88024C1F8802423
:109AF0009869D96809920022CDE90710C3E90622C6
:109B0000D3E9001406A8A047554AD2F81C31CBB1BE
:109B1000544B5869196A88426BD851490022C1F8E0
:109B20001C21D1F81C1102910299596951B158694F
:109B300099688DF8182008905A61079106A8D3E912
:109B400000129047464AD2F84431DBB10021454B20
:109B5000C2F84411D2F8440193F8291000900098FB
:109B600009B1012111609A6962B10022586AD9686D
:109B70009A610122CDE907108DF8182006A8D3E9D3
:109B8000001290470BB030BD354AD2F804335B0762
:109B9000BAD5D2F80831002BB6D0324B99690029DA
:109BA0003CD00021C2F80811D2F8081104910499A0
:109BB000D868596AD2F8182542545A6A996901320C
:109BC0005A625A6A8A429FD1DA691968002A2ED0ED
:109BD000D8685D6A1C699A61079000220120DC60E8
:109BE000DA615A628DF8180008955B6806A89847F4
:109BF0008AE793F8281001F0FF0000298DD1C2F800
:109C00001C01D2F81C11039103999C68186A196A07
:109C1000205C01311962C2F81C0593E7C2F80811F3
:109C2000D2F8080105900598D2F81825C9E793F8ED
:109C3000292012B90A4A01205060094A4FF40170E4
:109C4000C2F80803586ADA680890002401200792D5
:109C50008DF818005A689C6106A8904754E700BF29
:109C600000200040342D00202DE9F0415F4F06799F
:109C70002C2505FB067582B095F82A30002B40F0A4
:109C800089800D4604465A4900689046FFF7DAFE7F
:109C900000287BD12B68591C0CD001224FF0A04129
:109CA00002FA03F3C1F808352B6803F5E0730322C9
:109CB00041F823206B685A1C06D003F5E0734FF07F
:109CC000A042002142F823102368AA69C3F8242582
:109CD000297D6B7D22680B43C2F86C35D5E90012F3
:109CE0002368C3F81425C3F80C152B7D012B55D020
:109CF0002C2303FB06F3FA18C2F804802A69FA50F1
:109D0000B8F1000F2FD022682B7F3A4D0021C2F806
:109D10001C11D2F81C2100922268DDF800C0C2F8A4
:109D20004411D2F84411226801910199C2F80453F8
:109D30002168090B4AB25B01002ADBB250DB02F159
:109D4000604202F5614282F8003321680A0B53B287
:109D5000002B09DB01215B09274D02F01F0201FAEC
:109D600002F245F8232021682C2303FB067300220E
:109D700001250424C1F8004583F82A50C3E90622CE
:109D800083F829205A6102B0BDE8F081112002B0A9
:109D9000BDE8F081082002B0BDE8F081AB68591C35
:109DA00006D003F5E0734FF0A042002142F82310E3
:109DB000EB685A1C0DD001224FF0A04102FA03F3C8
:109DC000C1F80835EB6803F5E073032241F823205E
:109DD000EB682268A968C2F80835C2F8101587E751
:109DE000064A01F00F010A441376AEE7342D002035
:109DF000A99A02008000020000E100E0FCEC00E013
:109E0000F8B5324E047902682C2303FB0463002169
:109E10005B68C2F80015B3B103682D4AC3F8082384
:109E20000368190B4AB2002A0EDB520920320123C3
:109E3000284D01F01F0103FA01F145F82210BFF38C
:109E40004F8FBFF36F8F0368D3F80CC5D3F8147529
:109E5000D3F80815D3F810554FF0FF32C3F8142586
:109E6000C3F80C2503689445C3F80825C3F81025EA
:109E700006D00CF5E07C4FF0A043022243F82C20E2
:109E80007B1C06D007F5E0774FF0A043022243F891
:109E900027206A1C06D005F5E0754FF0A04302228A
:109EA00043F825204B1C06D001F5E0714FF0A0438C
:109EB000022243F821200068FFF7EAFD2C2303FB70
:109EC0000464002384F82A306360F8BD342D002038
:109ED0008402020000E100E0F0B5314E05792C2348
:109EE00003FB056385B05C69002C53D15A6199600E
:109EF0001C6283F828400268C2F81C41D2F81C1189
:109F0000026802910121029F91600268D3F808C0A3
:109F1000C2F81C41D2F81C1101910199D3F820E03C
:109F2000196A5F681CF80EE001311962C2F81CE57D
:109F300017B1204605B0F0BD5C691A6A0168944209
:109F400003D819E093F828203ABBD1F81C21002A45
:109F5000F8D0C1F81C71D1F81C210392039AD3F8F0
:109F600020E01A6A1CF80EE001321A62C1F81CE502
:109F70001A6A9442E9D80168D1F81C31002BFBD051
:109F80000123CB6000202C2303FB056500236B61BC
:109F900005B0F0BD112005B0F0BD0F20F3E700BF04
:109FA000342D0020F0B5524BD3F824218BB0002A79
:109FB0006ED00021C3F82411D3F824210492022288
:109FC0008DF81820049AD3F880044A4AC3F8800414
:109FD0000990D3F83C05D3680890C2E906110793AD
:109FE0001168536806A89847414BD3F84421BAB189
:109FF0000021404AC3F84411D3F8444190690394C6
:10A00000039C68B1D3F83C35D06808930123C2E9BA
:10A01000061107908DF8183006A8D2E9001398476A
:10A02000334BD3F82021BAB10021C3F82011D3F863
:10A030002021029201202F4A029CD860506958B119
:10A04000D3F84C05936808908DF818105161079368
:10A0500006A8D2E900139847254BD3F85821AAB196
:10A060000021C3F85811D3F85801224A01900198F1
:10A07000506958B1D3F84C05936808908DF81810C2
:10A080005161079306A8D2E9001398470BB0F0BDC1
:10A09000D3F810110029A7D0C3F81021D3F810115C
:10A0A0001448059105998169D3F83C458C429BD1B0
:10A0B000C569C768D0E900168DB1D3F800C28561C3
:10A0C0002CF02005C261C3F800520369C36001226D
:10A0D000CDE907748DF8182006A8B04784E701235E
:10A0E0008561CDE907748DF8183006A8B0477BE785
:10A0F00000200040602D00202DE9F0430779734EC9
:10A100004FEAC70808EB070506EB850587B095F809
:10A110002030002B40F0A880894604466C49006836
:10A120001546FFF78FFC002840F09A80D9F80030E0
:10A13000591C0DD001224FF0A04102FA03F3C1F8DF
:10A140000835D9F8003003F5E073032241F82320E5
:10A15000D9F804305A1C06D003F5E0734FF0A04242
:10A16000002142F823102368D9F81820C3F82425C9
:10A1700099F8141099F8152023680A43C3F86C2540
:10A18000D9E900312268C2F80C35C2F8141599F8E3
:10A190001430012B6CD008EB07029200B3185D60FD
:10A1A000D9F81030B3502168002D48D0002399F819
:10A1B0001C20C1F81031D1F8101101912168DDF88F
:10A1C00004C0C1F82031D1F8201102912168DDF8D6
:10A1D00008C0C1F82431D1F8241103912168DDF8B9
:10A1E0000CC0C1F84431D1F8441104912168DDF864
:10A1F00010C0C1F85831D1F8581123680591354D78
:10A200000599C3F804532168090B53014AB2002A87
:10A21000DBB254DB02F1604202F5614282F80033A6
:10A2200021680A0B53B2002B09DB01215B092A4D7F
:10A2300002F01F0201FA02F245F82320216808EB20
:10A24000070306EB8303002201250824C1F800451B
:10A2500083F82050C3E906225A6107B0BDE8F083B5
:10A26000112007B0BDE8F083082007B0BDE8F083F7
:10A27000D9F80830591C06D003F5E0734FF0A0421E
:10A28000002142F82310D9F80C305A1C0FD00122BB
:10A290004FF0A04102FA03F3C1F80835D9F80C30A9
:10A2A00003F5E073032241F82320D9F80C3022682B
:10A2B000D9F80810C2F80835C2F810156BE7074A3C
:10A2C00001F00F010A441376AAE700BF602D0020B9
:10A2D000A59F02001003420000E100E0FCEC00E05A
:10A2E0002DE9F04106794A4C0268F500AB1904EB00
:10A2F000830382B05B68B3B1464BC2F8083303688E
:10A300001B0B59B200290EDB490920310127DFF868
:10A3100008C103F01F0307FA03F34CF82130BFF321
:10A320004F8FBFF36F8FA91904EB8101D2F8003270
:10A33000896923F02003C2F8003241B10023C2F83A
:10A340004431D2F844310093012300995360002333
:10A35000C2F85831D2F858310193AB19012104EBFE
:10A360008303019FD1609969D2F85831002BFBD04B
:10A3700019B1D2F84431002BF6D00023C2F80035D1
:10A3800003684FF0FF31D3F80C85D3F814E5D3F808
:10A390000875D3F810C5C3F80C15C3F81415036875
:10A3A0008845C3F80815C3F8101506D008F5E078FD
:10A3B0004FF0A043022143F82810BEF1FF3F06D022
:10A3C0000EF5E07E4FF0A043022143F82E10BCF1C1
:10A3D000FF3F06D00CF5E07C4FF0A043022143F88C
:10A3E0002C107B1C06D007F5E0774FF0A04302212C
:10A3F00043F827101046FFF74BFB354404EB850468
:10A40000002384F82030636002B0BDE8F08100BF13
:10A41000602D00201003420000E100E001F06043E5
:10A42000B3F1005F2CD1F0B40579264EEF007C1912
:10A4300006EB840482B0636923BB6261A160026899
:10A44000C2F82031D2F820C10268CDF804C0DDF88E
:10A4500004C0C2F85831D2F8582100920268DDF8E1
:10A4600000C0D4F814C0C2F84415C2F848C5026848
:10A470000121916062684AB1184602B0F0BC704791
:10A4800010207047112002B0F0BC7047036800E054
:10A49000B2B9D3F82011D3F858210029F8D07AB9ED
:10A4A0000122DA600268D2F85831002BFBD000207C
:10A4B0003D4406EB85060023736102B0F0BC704793
:10A4C0000F20F5E7602D002076DF704700487047C9
:10A4D000A822002000487047A42D002000487047A3
:10A4E000842D002000487047982D002008B5FEF705
:10A4F00005FE00B908BDBDE80840FCF7CBBD00BFB4
:10A500002DE98048564D574C85B001F0A5FF02F06B
:10A510006DFBFFF7EBFF17225349284602F00FFDB2
:10A5200005F1100602F086FB05F11201A81C02F0ED
:10A53000C1FB02F0CDF902F0A3F902F0E9F902F053
:10A54000C5F802F001FC96E807006B4603C31A80C9
:10A5500095E80F0002F0EEF902F06CF902F094FABF
:10A56000A5F1200706F1020807F1160907F1060A0E
:10A57000FCF7E6FB002833D0237813F0100F237884
:10A5800035D05B0754D42378180710D504224946E8
:10A59000364802F0D4FC2378F87E397F7A7F3887FA
:10A5A0006FF3C303237087F8371087F8362096E8D7
:10A5B00007006B4603C31A8095E80F0002F0BAF952
:10A5C00002F09EFB41462A4802F044FB23786FF3D9
:10A5D0000413237002F058FAFCF7B2FB0028CBD129
:10A5E000FEF7A2FD237813F0100F2378C9D1990646
:10A5F00028D423785A06BBD523789B07B8D494F87F
:10A6000000B0CBF3001BBBF1000FB1D102F04AFA4E
:10A6100096E807006B4603C31A8095E80F0002F026
:10A6200089F902F031FA23786BF3861323709FE7E0
:10A63000102251460E4802F082FC23786FF3820309
:10A640002370A0E702F060F93B210088FFF73CFF90
:10A6500008B1FCF71FFD23786FF34513237087E7DC
:10A66000C8220020A42D002090220020DA22002001
:10A67000CA2200202DE9F84F4400DFF85CB126180B
:10A680000BEBC6068146F76A012F8A46904667D0D3
:10A690003DD3022F30D100F1010909EB4909756A58
:10A6A0004FEAC9090027B36A346AAB4203F1FF32AB
:10A6B0009CBF1B1903F1FF33A4EB05048CBF531B94
:10A6C0005B1B0BEB0902444528BF44469C42506883
:10A6D00028BF1C4628445146224602F030FC336A0B
:10A6E00025449D422744A8EB0408A24408D0756283
:10A6F000B8F1000FD7D100E000273846BDE8F88F49
:10A7000000231D467362B8F1000FCCD1F5E7B36AA0
:10A71000756AAB429CBF326A9B18013B5B1B984534
:10A72000EBD8044400F101090BEBC40409EB49091F
:10A730000BEBC90B266ADBF80400761BB0452844F6
:10A7400043D33246A8EB060502F0F9FB0AEB0601FB
:10A75000DBF804002A4602F0F2FB47466562CCE7CC
:10A76000D6E90825B76AAF4298BFBF18461C013F1B
:10A7700006EB46067F1B0BEBC606474528BF474640
:10A780007068A2EB05084745284412D3A14442460D
:10A79000A7EB08050BEBC90B02F0D1FB0AEB080194
:10A7A00070682A4602F0CBFBCBF824503846BDE84F
:10A7B000F88FA1440BEBC90B3A463D4402F0BFFBB6
:10A7C000CBF824503846BDE8F88F4246454402F0A5
:10A7D000B6FB4746656290E72C31002038B5114C36
:10A7E000114B1248E36110254FF40073104A1149D0
:10A7F0002362E06400232565E01D0225A3626362F5
:10A80000E362A3656365E365A261A264C4E90455DC
:10A8100002F0A8FB2046084902F0A4FB2023A37104
:10A8200038BD00BF2C310020B82D0020A82D0020FD
:10A8300078D9020084D9020088D902006DDF704700
:10A8400079DF70477DDF704764DF70472DE9F04F97
:10A8500083B004880C9EBDF83490B6F800A0002C9C
:10A8600039D09846002317468B4605461C4603E020
:10A870002A880134A24224DD6A6852F8240001903B
:10A8800000220DF1030101A8FFF7DEFF20BB9DF8B8
:10A890000320BA42ECD13288B91803B389452BDBC7
:10A8A00042440DF1030101A80123FFF7CDFF98B940
:10A8B00031889DF803200A4432802A880134A2425C
:10A8C000DADC43B13388013BA3EB0A039BB2FF2BD5
:10A8D00012D808F80A30002003B0BDE8F08F02312A
:10A8E0000132894592B207DB328008F802B0328823
:10A8F000013292B23280D3E70C2003B0BDE8F08F72
:10A900002DE9F04700231788138090F82D3086B08A
:10A91000144605460E46002B40F0FB80AA78002A1C
:10A9200040F0FD80EA78A2B1D91CB94200F2F38070
:10A930000221F154238801339BB201212380F15479
:10A9400023880B449BB22380F25423880B449BB290
:10A9500023806A68AAB1D91CB94200F2DC800221C6
:10A9600092F90020F154238801339BB20A212380FD
:10A97000F154238801339BB22380F254238801339E
:10A9800023802B89002B40F01B812B8A002B40F069
:10A990002F812B8B002B40F043812B6A002B44D05E
:10A9A0002288911DB94200F2B6801988052940F22B
:10A9B00003816FF4486801EB080080B24FF27D3CE0
:10A9C000604540F2F9805888052840F2F5806FF420
:10A9D000486E86441FFA8EFEE64540F2ED804FF643
:10A9E000FF7C614504D0604502D0814200F2E480E2
:10A9F0000521B1542288013292B212212280B15431
:10AA00002288013292B222801988B1543244090A54
:10AA100051702288023292B222805B88B354324451
:10AA20001B0A53702388023323806B6A002B2FD0BC
:10AA30009988B4F800C0881C0CF102020244BA42A2
:10AA400069D8FE2867D8033106F80C102288013235
:10AA500092B2FF212280B1542288013292B2228028
:10AA60001988B1543244090A51702088023080B2EA
:10AA700020809A8862B199680393002900F09C8035
:10AA8000304402F05CFA039B9A88238813442380A5
:10AA900095F82C30002B40F08A80287800283BD095
:10AAA0002B88012B00F08880228802F1020CBC4523
:10AAB00031D8012804D16B78023313449F422AD342
:10AAC000BB1E9B1A06A99BB221F8083D06EB0C00A1
:10AAD000FFF7B8FE00BB2978BDF81020022900F06E
:10AAE000048168789042C0F0FB809342C0F0F88007
:10AAF0000921FE2A0FD82388501CF05423880133E3
:10AB00009BB22380F154238801331A442280002011
:10AB100002E0082F23D80C2006B0BDE8F0870433EC
:10AB2000BB42F8D804A8FFF78BFE0028F4D1238895
:10AB3000BDF810200321F154238801339BB2192161
:10AB40002380F154238801339BB2F1182380F254FF
:10AB5000120A4A70238802339BB22380E2E604A8DB
:10AB6000FFF76CFE0028D7D113880822CA54238827
:10AB700001339BB21B222380CA542088013080B24B
:10AB80002080062208440DF1110102F0D8F9238833
:10AB90009DF8102006339BB212F0FE0218BF01226E
:10ABA0002380F254238801339BB22380B6E6D5F884
:10ABB0002880B8F1000F4CD1072006B0BDE8F0871F
:10ABC00005F108080222CDE9004740461146334608
:10ABD000FFF73CFE00289FD1CDE9004740463346B1
:10ABE00010220621FFF732FE00283FF4CEAE93E795
:10ABF00005F11008CDE90047404633460222032103
:10AC0000FFF724FE002887D1CDE9004740463346B0
:10AC100010220721FFF71AFE00283FF4BAAE7BE7A7
:10AC200005F11808CDE900474046334602221421B9
:10AC3000FFF70CFE00287FF46FAFCDE900474046D8
:10AC4000334610221521FFF701FE00283FF4A5AE80
:10AC500062E7B8F804200232FE2A3FF65CAF238890
:10AC60004FF000094FF0160A0132F25423880133E5
:10AC70009BB2238006F803A0238801339BB2238074
:10AC8000B8F80020F2543344120A5A702388023371
:10AC90009BB22380B8F80410F0180A4661B1D8F8C6
:10ACA00008301946002B87D002F049F9B8F8042083
:10ACB000238813449BB2238009F1010995F82C20C5
:10ACC0005FFA89F94A4509EB49087FF6E6AEAA6AB8
:10ACD00002EB8808B8F804200232FE2AC4D91AE729
:10ACE000012906D01A46082103E79342BFF400AFBA
:10ACF000F8E78342F6D302460821FAE675DF70478B
:10AD000076DF70477ADF70477BDF704730B51D4BC9
:10AD10001A8884B2A24283B001D003B030BD1A4D6C
:10AD2000187A297B88420FD32A7C00211972E2B954
:10AD30006B69002BF1D00022ADF806408DF804209D
:10AD400001A8984703B030BD104603F10A01FFF790
:10AD5000D5FF28B11128E0D0AB69002BF1D1DCE799
:10AD60001A7A01321A7203B030BD3B212046FFF738
:10AD7000C7FF30F00803DBD0AB69002BD8D0984771
:10AD8000D6E700BFD42F0020B82F0020F0B50288EE
:10AD9000112A83B0034649D036D9122A08D0502A46
:10ADA00004D16C4DC188EA89914251D003B0F0BD05
:10ADB000694C828821889142F8D1E1896589B1F591
:10ADC000FA7F24BF6FF4F9700E18588938BF002637
:10ADD00085424FD8A58985424CD39B89B34249D33C
:10ADE00001F2F311994245D35A4B5B694FF48071DC
:10ADF0002181002BDAD00121ADF806208DF8041056
:10AE000001A8984703B0F0BD102ACFD1C27B012A18
:10AE1000CCD1514C21884FF6FF7291423CD04D4B22
:10AE20009B69002BC2D004209847BFE74A4C828818
:10AE300023889A42BAD16068FCF73AFC18B1454BB6
:10AE40009B6903B198474FF6FF73238003B0F0BDB1
:10AE5000028A022AAAD1404C86882788B742A5D107
:10AE6000123000F06BF9002856D16068FCF720FC26
:10AE700070B99BE7374D267A6068D5E90131002E1D
:10AE800008BF194600236372FCF7ACFB00288DD085
:10AE9000AB69002BB5D189E7304D8288228003CD84
:10AEA000C4F80E10E689C4F80A00B6F5FA7F28BF88
:10AEB0006FF4F9754FF00001588AB4F80AC0217296
:10AEC00028BF7119234D8445EF8919D8B4F80CC0F7
:10AED000844515D39B8A8B4212D306F2F3169E4209
:10AEE0000ED301216172002F7FF460AF6B69002BDC
:10AEF0003FF45CAF8DF80410ADF8062001A880E7A0
:10AF000000236372002F7FF451AF60686968FCF71B
:10AF100069FB0028BCD149E7637A63B9D5E90131FF
:10AF2000267A60683A46002E08BF1946FCF75AFB9D
:10AF30000028ADD13AE76B6900222272002B3FF462
:10AF400035AF0122ADF806608DF8042001A89847BE
:10AF50002CE700BFB82F0020D42F0020E82F0020BE
:10AF600000282FD0F8B5054606460FCD164F3C46B3
:10AF70000FC4844695E80700144B3B6084E8070043
:10AF8000BCF1000F18D06046FFF7BCFE98B93268DC
:10AF90001068516803C30E4B0E490F4A18464FF60E
:10AFA000FF7440F8041F1C800021FCF705FB0028FB
:10AFB00014BF03200020F8BD1846FFF7A5FE0028A7
:10AFC000E9D0F8BD0E207047B82F0020E82F0020F0
:10AFD000D42F0020F02F00200DAD02002DE9F04706
:10AFE0000388B0F80490103B98B080460A2B1BD819
:10AFF000DFE803F02F281A1A1A1A1A1A1A1D060067
:10B00000047A46482409032C494665D8FCF7E6FD36
:10B01000032C63D049464248FCF7E0FD022C61D086
:10B0200049464048FCF7DAFD18B0BDE8F087037ADE
:10B03000002BF9D1437A39481B0749466AD4FCF7FB
:10B04000CDFDF1E749463848FCF7C8FD18B0BDE82A
:10B05000F087364A936818A8DB4340F8603D516892
:10B06000FCF7E6FD009B0193019B63B300273C4680
:10B07000214601A8FCF7BCFD28B118AB03EB470340
:10B08000013723F8284C0134142CF1D10D970DAE63
:10B090000FCE02AC0FC40FCE0FC496E8070084E8B1
:10B0A000070087B10DF10A0A214E0AEB47073AF86B
:10B0B000025F204C204629460434FCF78FFDA6424F
:10B0C000F8D1BA45F3D1B9F1130F12D90420FBF727
:10B0D000E1FF18B0BDE8F087FCF776FD494610485F
:10B0E000FCF772FD49460F48FCF76EFD18B0BDE84D
:10B0F000F08749460C48FCF767FD49460D48FCF7C8
:10B1000063FD98F80F30022B8ED149460A48FCF7B0
:10B110005BFD89E7FCF758FD86E700BF283000207B
:10B120002430002020300020183000201030002073
:10B130008C300020143000201C300020007800F0FB
:10B140000100704790DF7047A5DF7047B5DF70479B
:10B1500008B90E20704730B403464FF01712002094
:10B160001B2541F61B3419611A60C3F806201D71B6
:10B170009872D8729C8130BC704700BF70B58588CA
:10B1800084B01DBB0388232B0C4621D06FD93A2BEA
:10B1900054D0552B00F0AF80242B00F09A80A37A76
:10B1A000A3B1E1880020FFF7CFFF00286DD0112860
:10B1B0000CD0FEF737F8694A694B6A499B1ADB08DD
:10B1C0001B04024643F00100FBF73CFC04B070BDD9
:10B1D000037A0A7B0395934228BF134602A96A4665
:10B1E00028460095ADF80830ADF80A30ADF80450A7
:10B1F000FFF7A8FF0028D2D0584B594EF61AF60890
:10B20000FEF710F8360446F0010603462A4630469B
:10B210005549FBF78FFCBDF80020BDF8023002B99C
:10B220001BB152493046FBF785FCBDF80420002ACB
:10B23000B5D030464E49FBF705FCB0E74389C988D5
:10B2400022698B4228BF0B46172B38BF1723238157
:10B250004AB1E17A39B140F677210291ADF80C306C
:10B2600002A9204690470023E372A372AEE7102B99
:10B270000FD0112B93D14FF0171241F61B338D7263
:10B28000CD72C1F806208B81A0E70122A072E27284
:10B290009CE70B790B73C27B012A4DD0022A01D1A6
:10B2A0004A88CA80627B9A42BFF479AF00259BB27C
:10B2B00028466A4602A9ADF80830ADF80A30039571
:10B2C0000095ADF80450FFF73DFF00283FF467AF4D
:10B2D00092E70B69027A4A73002B3FF460AF4DF698
:10B2E0007A21ADF80C5002918DF80C2002A920466D
:10B2F0009847A37A54E7C388C988A572172B38BF2B
:10B3000017238B4228BF0B4628462381FFF71EFFD9
:10B31000A8B9E37A002B7FF442AF2369002B3FF4F6
:10B320003EAF40F6772122890291ADF80C2002A9A8
:10B3300020469847A37A33E70A88CA80B2E7FDF728
:10B3400071FF064A064B0B499B1ADB081B04024699
:10B3500043F00100FBF776FBDBE700BF50DF0200A4
:10B36000A0DF0200CCDA0200B8D9020004DA020041
:10B3700044DA02009CDA0200B0DF704766DF7047F3
:10B3800060B159B10378DE2B0AD00B684360DE222E
:10B390004FF6FF7302704380002070470E20704705
:10B3A0000820704738B10378DE2B02D1418000209D
:10B3B0007047082070470E20704700BF19B110B1C8
:10B3C0000B78DE2B00D0704730B505464B8880885F
:10B3D000984285B00C4606D02A88012A0DD0512A01
:10B3E00020D005B030BD0B7A002B35D12B88112B26
:10B3F00048D0512B4DD0012BF3D12B7A012BF0D11A
:10B4000062888242EDD123720021FFF7B7FF002846
:10B410004ED0112808BF2372E3D063689847E0E755
:10B420006388A8888342DCD1AA79022AD9D1A97B72
:10B4300001F0FD0004282ED00529D2D10020694654
:10B44000C1E90200009048608DF800201846FFF71F
:10B4500093FF0028E1D1C4E70021FFF78FFF0346E7
:10B46000A8B1112812D0636898472B88112B05D0FA
:10B47000512BD5D0012BB4D1A888BEE7AA88638808
:10B480009A42AED14FF6FF736380AAE7012323727D
:10B49000EBE70346C6E7694600204FF4C0754860F5
:10B4A0000090C1E902008DF80020ADF80450CDE70E
:10B4B000207296E710DF704711DF704770B53B4D83
:10B4C0002B7884B0002B63D1394E3A49012302A86E
:10B4D0003370FDF75FFE039B002B4FD1364902A866
:10B4E000FDF758FE039B4BB1D3E9002100209047A4
:10B4F00002A8FDF759FE039B002BF5D12F4A00232C
:10B5000012688DF8083002A80192FCF70FF92C4957
:10B5100001A8FFF7CFFFB0FA80F304465B099DF85E
:10B5200008002B70FCF728F9002C2ED1254B26495A
:10B530001C70347091F81623EC2352091341DB0779
:10B540002FD5224B9A683ABB4FF480030B601A49FF
:10B5500002A8FDF71FFE039BBBB1D3E90021012028
:10B56000904702A8FDF720FE039B002BF5D10CE0CD
:10B5700002A8FDF719FE039B002BAFD0D3E90021F1
:10B58000002090470028F3D10446204604B070BD47
:10B590000824204604B070BD1A6842F480021A6084
:10B5A000D5E742F20200FBF775FDD0E78D300020B1
:10B5B0008C30002014DB02002CDB020010DB0200C8
:10B5C000B57002008E30002000E100E01C31002048
:10B5D000F0B5334D2B7883B0002B58D0314E324923
:10B5E000012368463370FDF7D5FD019B002B44D144
:10B5F0002E496846FDF7CEFD019B4BB1D3E90021F2
:10B60000022090476846FDF7CFFD019B002BF5D146
:10B61000002768468DF80070FCF788F8FFF74CFFAC
:10B6200004469DF800002F70FCF7A6F864BB204B81
:10B6300034709A687ABB1F4B4FF48002C3F88020A5
:10B64000BFF34F8FBFF36F8F18496846FDF7A2FD18
:10B65000019BCBB1D3E90021032090476846FDF759
:10B66000A3FD019B002BF5D1204603B0F0BD684639
:10B67000FDF79AFD019B002BBAD0D3E900210120F0
:10B6800090470028F3D10446204603B0F0BD0824BB
:10B69000204603B0F0BD1A6822F480021A60D3E796
:10B6A0008D3000208C30002014DB02002CDB0200E7
:10B6B0001C31002000E100E0054B1B7833B1054B45
:10B6C0001B780BB9FFF7FABEFFF782BF082070475F
:10B6D0008C3000208D300020014B1878704700BF5F
:10B6E0008D30002000B583B068460849FDF752FD53
:10B6F000019B43B1D3E9002090476846FDF754FD14
:10B70000019B002BF6D103B05DF804FB20DB0200A7
:10B7100060DF704769DF704761DF7047134B1B784C
:10B720001BB330B5124D91B034240DF1020103A8C2
:10B73000ADF80240FFF7F0FF88B9294601A8FDF7F0
:10B7400029FD029B002BF0D0D3E9002103A89047EC
:10B7500001A8FDF729FD029B002BF5D1E5E705289F
:10B7600001D0FBF797FC11B030BD70478F3000203F
:10B7700078DD0200002900F0A68070B5534B0B6005
:10B7800084B00C4605460C22002101A801F0E2FB22
:10B790000126062301A922688DF8045020208DF887
:10B7A0000660ADF80830FFF7B5FF00287DD10C2208
:10B7B000002101A801F0CEFB012100238DF8051026
:10B7C00022688DF8063001A940208DF80730FFF778
:10B7D000A1FF00285BD10C22002101A801F0BAFBD7
:10B7E0000123184622688DF8043001A9FFF792FF63
:10B7F00000283ED10C22002101A801F0ABFB4FF440
:10B80000B0632268019301A9A120FFF783FF10BB59
:10B810000C22002101A801F09DFB9DF80430226854
:10B8200043F0010301A9A0208DF80430FFF772FF57
:10B8300008B904B070BDFDF7F5FC254A254B264933
:10B840009B1ADB081B04024643F00100FBF7FAF8E1
:10B85000002004B070BDFDF7E5FC1D4A1D4B1F49DB
:10B860009B1ADB081B04024643F00100FBF7EAF8D1
:10B87000CEE7FDF7D7FC164A164B19499B1ADB0891
:10B880001B04024643F00100FBF7DCF8B2E7FDF7CA
:10B89000C9FC0F4A0F4B13499B1ADB081B040246D5
:10B8A00043F00100FBF7CEF895E7FDF7BBFC084A33
:10B8B000084B0D499B1ADB081B04024643EA0600AD
:10B8C000FBF7C0F873E70E20704700BF602200202E
:10B8D00050DF0200B8DF020074DC020020DC02004E
:10B8E000D4DB020088DB020040DB0200F8B506462C
:10B8F0000768FFF70DFF3368BB42054605D825BB37
:10B900001A4B01221A702846F8BD194B194C1A49D6
:10B91000E41AE408240444F002042046FAF7FCFE8A
:10B920003A46204633681549FBF704F94FF0805337
:10B930003268D3F80C3112499B0203F100532046C0
:10B940009A1AFBF77FF8002DDAD02846FDF76AFC3B
:10B95000074A084B0B499B1ADB081B04024643F0BD
:10B960000100FBF76FF82846F8BD00BF8F300020BC
:10B9700050DF0200B8DF0200C8DC0200F8DC020081
:10B980002CDD020058DD02004BDF704710B5114C72
:10B9900084B001A8FFF7F8FFA8B9214602A8FDF777
:10B9A000F9FB039B002BF4D0D3E9002101989047C9
:10B9B00002A8FDF7F9FB039B002BF5D101A8FFF7C7
:10B9C000E3FF0028E9D0052801D0FBF763FB04B0B2
:10B9D00010BD00BF90DD02002DE9F041734B1A68E5
:10B9E00088B0002A4CD1DFF8DC8198F82E30002B8B
:10B9F00054D16F4B1A686AB100221A6008A81B68FC
:10BA00000393022100F80C1DD8F80030039988F840
:10BA100010209847674B1C68002C7CD1D8F8147014
:10BA20005FB34FF000450126B7FA87F101F14603F5
:10BA30009B0003F1804202F5E042A3F58C73D2F83B
:10BA400000E083F0040025FA01F1C0F3800CDB086C
:10BA500005A827EA0107BEF1000F0CD01460126898
:10BA600004928DF818308DF814608DF819C0D8F84C
:10BA70000030049A9847002FD6D108B0BDE8F08175
:10BA80000022DFF840811A60196898F82E30009182
:10BA90000099F3B198F82F30002B46D1464B1A6825
:10BAA000002AA6D00020186098F82D201968B8F850
:10BAB0001A30019191B28B42019C4DD861D03B4B21
:10BAC0003E4A002119601B6802930123029913600A
:10BAD0008FE7D8F80C20D8F80400B8F808108DF8D3
