:020000021000EC
:1090000000600020B5920100099301000B9301005C
:109010000D9301000F930100119301000000000067
:109020000000000000000000000000001393010099
:10903000159301000000000017930100199301002F
:1090400095B801001B93010071BA01001B93010048
:109050001B9301000000000025B9010001CE0100B2
:109060001B9301001B9301001B9301001B93010044
:109070001B93010001D501001B9301001B9301000C
:109080001B930100E5A301001B9301001B9301004A
:109090001B9301001B93010055CA01001B930100A3
:1090A0001B9301001B930100000000000000000062
:1090B0001B9301001B930100000000000000000052
:1090C00000000000000000000000000000000000A0
:1090D0000000000000000000000000000000000090
:1090E0000000000000000000000000000000000080
:1090F0000000000000000000000000000000000070
:10910000000000000000000000000000000000005F
:10911000000000000000000000000000000000004F
:10912000000000000000000000000000000000003F
:10913000000000000000000000000000000000002F
:10914000000000000000000000000000000000001F
:10915000000000000000000000000000000000000F
:1091600000000000000000000000000000000000FF
:1091700000000000000000000000000000000000EF
:1091800000000000000000000000000000000000DF
:1091900000000000000000000000000000000000CF
:1091A00000000000000000000000000000000000BF
:1091B00000000000000000000000000000000000AF
:1091C000000000000000000000000000000000009F
:1091D000000000000000000000000000000000008F
:1091E000000000000000000000000000000000007F
:1091F000000000000000000000000000000000006F
:1092000010B5054C237833B9044B13B10448AFF3C0
:1092100000800123237010BD981D00200000000075
:109220008CF0010008B5034B1BB103490348AFF3B1
:10923000008008BD000000009C1D00208CF0010093
:10924000154B002B08BF134B9D46A3F5803A002118
:109250008B460F461348144A121A05F035F80F4B87
:10926000002B00D098470E4B002B00D098470020D1
:10927000002104000D000D48002802D00C48AFF377
:10928000008004F0C3FF2000290002F0A5FC04F0D8
:10929000A9FF00BF000008000060002000000000DF
:1092A00000000000981D0020002A0020000000009F
:1092B000000000000E4800680E4909680A280AD11B
:1092C000002908D10C4802686FF070031A404FF073
:1092D00040031A4302600949094A0A4B9B1A03DDFD
:1092E000043BC858D050FBDC02F0A8F8FFF7A8FFF9
:1092F0003001001034010010E40E0040E0F10100E4
:10930000E01A0020981D0020FEE7FEE7FEE7FEE7DA
:10931000FEE7FEE7FEE7FEE7FEE7FEE77047000038
:1093200007B5044B0093044A402300F032F803B021
:109330005DF804FB3D930100B51D00202DE9F843C5
:1093400089461446B2B10F4B0F4E0325002743F058
:109350000108224609EB0701002002F0FDFC07444A
:10936000241A48B933782BB14FF47A40C047013DF5
:1093700002D13570BDE8F88301233370002CE8D1A9
:10938000F8E700BF30E30100B41D0020704702F091
:1093900017BDF0B595B01C46164608460D4601F0BF
:1093A00049FF1A9B0D93CDE9086400242346082247
:1093B00005A928460A948DF82C400C9401F058FF1A
:1093C000079B0293BDF81830ADF80C30BDF81A3089
:1093D000ADF80E309DF814308DF8114003F0030203
:1093E000012A1DD1BDF81440059EC3F3C203C4F386
:1093F00083148DF81030A20008230EA9284601F02E
:1094000037FFC6F3952608AB0093224602AB0EA9A0
:10941000304600F04BFB284601F010FF15B0F0BDC0
:10942000022AF8D1BDF81640C3F3C203A4098DF88F
:1094300010300827082C264628BF08263B4632460F
:109440000EA9284601F014FFA41B08AB02AA31465E
:109450000EA8374400F08EFB002CEBD1DBE70000B8
:1094600008B5FFF794FF0421034800F087FA034B87
:1094700001225A7108BD00BFC8F10100E01A0020A6
:10948000037813F0040216D003F00303012B03D07A
:10949000022B09D0012070470A6800880232C0F30D
:1094A000831002440A60F5E70B684288023303EB3D
:1094B00092130B60EEE71046704700002DE9F04F65
:1094C00087B00446851C06A8002300F8113D0E460F
:1094D000904600F00BFE444A53683360936851682D
:1094E00003F580735B1A924602F21C4602F583690B
:1094F00002F21447AB421BD30023B8F1000F6BD02C
:10950000012262F3010343F0040364F38913DAF8E0
:1095100004209DF80700D1B2033115444AF82130E8
:10952000CAF8045000F006FE012007B0BDE8F08F35
:109530000121304601F05CF8484601F072F83846E7
:1095400001F06FF80DF1180BDAF808004BF8100D68
:10955000C0B203300AEB80005946FFF791FF029B2F
:10956000A0B9DAB20AEB8202D16803919A1C0133E6
:10957000DBB20AEB83030292D3F80CB001F00303D1
:10958000012B21D0022B03D083460AE0D8B2E0E7BA
:10959000BDF80E309B0903334FEA1B4B02EB9303DC
:1095A0000293384601F040F810B1029BCAF8083027
:1095B0005946304601F01CF8DAF80830DAF8042091
:1095C00003F580739B1A95E7BDF80C30C3F3831342
:1095D0004FEA1B4B1344E3E7022262F3010343F01B
:1095E000040364F39F5392E7C81E0020064B07480C
:1095F00010B500221A7001F0D6FD044610B90448D7
:1096000001F066FE204610BDC81E00201CF10100BE
:1096100054E3010030B50A4C71B10A4A0A49121BE1
:10962000D20800239A4201D1002030BD31F82350E6
:10963000854202D00133F5E7034654F83300F4E7DE
:1096400030F10100C8F10100941D0020094B0139DF
:1096500003EBC000032909D8DFE801F00A02040681
:1096600004207047007970474079704700207047A8
:109670000220704730F1010070470000034BD3E92E
:109680000130C31A58425841704700BFC81E00201D
:109690002DE9F04186B0FFF7F1FF0546002840F0C4
:1096A000E780744CC4F81804BFF34F8FA06806AE6F
:1096B00046F8100DC0B2033004EB80003146FFF7CE
:1096C000DFFE029B18B1D4F81824002A53D0DAB276
:1096D000991C013304EB8202DBB204EB8303D268F2
:1096E000DB68049302F00303022B039202914FD133
:1096F000BDF80E3060484FEA93184746502F28BFF8
:10970000502767F38F1307F10801ADF80E3001F011
:1097100062FD0546002800F0968001F08BFD03A94C
:1097200000230822284601F098FD0299CE43F6B2A4
:109730000136B600C9B20331B74204EB810124D926
:1097400008233246BF1B284601F087FDFFB24B4974
:1097500006F108033A46284601F07FFD029B08F116
:10976000030803EB98030293D4F81834002B43D179
:10977000D4F8106453E062689A4204D8A260284684
:1097800006B0BDE8F081D8B295E708233A46E2E793
:10979000012B58D1BDF80C303748C3F3831106298B
:1097A00028BF062161F3891302318900ADF80C301E
:1097B00001F011FD0546002845D001F03BFD0023D6
:1097C000082203A9284601F048FD0026BDF80C2018
:1097D000C2F38312B31C96424FEA8303C4D20299A8
:1097E0004A1CC9B20331029204EB810104222846CB
:1097F00001F033FD0136E9E7284601F01FFDFFF7D0
:109800003DFF80F00100C5B2B9E7F3685B7923B191
:10981000336829461B6830469847F3681E68002E57
:10982000F3D1284601F00AFD06A800F8116D00F0FA
:109830005DFCD4F818340BB9029BA3609DF80700B7
:1098400000F078FCDBE7D4F8104454B90C4B0D4819
:109850000D49C01AC008000440F0020000F06AF888
:10986000CDE7236820469B689847E3681C68ECE7CF
:10987000002584E7C81E00201CF10100D41E002032
:1098800030F1010068F1010060E301002DE9F347C8
:1098900080460F46924601A9012218469946FFF7D5
:1098A0000DFE224D78B3019C0026A11C4E4506EB0F
:1098B000010233D100211E4800F064FE80F3100045
:1098C000631CDBB205EB8303000440EA1840D86058
:1098D000E3B20333012115F8232068F3C50205F82C
:1098E000232035F8232066F3891225F8232055F824
:1098F000232067F39F2245F8232061F301026FF3D1
:10990000820205F823202B781BB1FFF7C1FE002847
:10991000FBD1FFF7B1FE02B0BDE8F087D2B205EB94
:1099200082025AF82630D3600136BFE7C81E0020F5
:10993000E422002000231A46FFF7A8BF13B502ACAB
:10994000012344F8042D2246FFF7A0FF02B010BD0A
:1099500007B5CDE9002302236A46FFF797FF03B05E
:109960005DF804FB1FB5CDE90123069B039301AA13
:109970000323FFF78BFF05B05DF804FB30B5134AF6
:10998000D2F810440023214651B9C4682371D2F89B
:1099900010445CB9C2F81004C2681160184630BDAA
:1099A000C9680D799D420AD00968EDE7E468C1688D
:1099B00024680C60D2F81024D2681060EEE70133FE
:1099C0000A2BE0D14FF0FF33E8E700BFC81E0020AC
:1099D00038B5084A0123D2F8104413701D4604B963
:1099E00038BDE3685D71236820465B689847E3688B
:1099F0001C68F4E7C81E002010B5037A052B0C463E
:109A00000FD0437A23B1084A0849204600F06FFE80
:109A10000749204600F06BFE2046BDE8104000F0EC
:109A20005BBE002AF8D0F3E7ABE30100B0E301002E
:109A3000D0E3010073B5C38804460D4633B1144A20
:109A400000921449144A284600F051FE217A052953
:109A50001CD0637A4BB1A088FFF7F8FD0F4B10497B
:109A600053F82020284600F042FE227A0D4BA088B1
:109A700053F822600021FFF7CDFD0B490346324623
:109A8000284602B0BDE8704000F031BE02B070BDA3
:109A9000ABE30100BBE30100B3E3010078E30100A5
:109AA000B0E30100E0E30100D3E301002DE9F0435E
:109AB00085B01F460C9D002306460C46904695F83F
:109AC0000C902B7329463846FFF7B4FFB8F1060F08
:109AD00009D8DFE808F00412181F28334000314687
:109AE000284600F004FE002229463846FFF784FF8E
:109AF00085F80C9005B0BDE8F08322683146284611
:109B000000F0F5FDEFE7D4E900233146284600F0E8
:109B1000EEFDE8E7A36800933146D4E90023284628
:109B200000F0E5FDDFE7E3680193A36800933146A9
:109B3000D4E90023284600F0DAFDD4E72369029334
:109B4000E3680193A36800933146D4E900232846D3
:109B500000F0CDFDC7E76369039323690293E368CF
:109B60000193A36800933146D4E90023284600F00E
:109B7000BEFDB8E708292DE9F84F80460E46174686
:109B80001C4635D8002593F80C901D7319461046D5
:109B9000FFF750FFDFF88CA0DFF88CB0AE4229D978
:109BA00018F805205946204600F0A1FD0135082D82
:109BB000F4D11A49DFF874B0204600F098FD4FF058
:109BC000000A564524D918F80A507E2D17D92E229E
:109BD0005946204600F08BFD0AF1010ABAF1080F40
:109BE000EFD1012221463846FFF706FF84F80C909A
:109BF000BDE8F88F5146204600F079FDD6E704F025
:109C000029FB2844427812F0970FE0D02A46DFE77C
:109C10000349204600F06BFDDEE700BFA6E301002C
:109C2000A4E30100A2E301009CE30100A8E301001A
:109C30001FB50021039001AA44F20100CDE90111F2
:109C400000F004F805B05DF804FB000010B572B632
:109C5000FFF7BEFEFFF71CFD0028FBD1104B114C97
:109C60001149E41AE408240444F00100FFF762FEFD
:109C70000E4B1B68DB0700D500BE0D4944F0020007
:109C8000FFF758FEBFF34F8F0A490B4BCA6802F427
:109C9000E0621343CB60BFF34F8F00BFFDE700BF0F
:109CA00030F1010068F101004AE40100F0ED00E04C
:109CB00056E4010000ED00E00400FA05D0E90223BB
:109CC000D1E90201994208BF90422CBF0120002037
:109CD000704700002DE900480C4800F06DFB0C4B6C
:109CE000D3E9002312EB000B43F1000C094BD3E93D
:109CF00000239C4508BF93455846614603D21BF19B
:109D000080704CF10001BDE8008800BFE81A002017
:109D1000882300200024002037B505460C460A4859
:109D200001A900F09EFB60B10570446001A90648DE
:109D300000F0C1FB18B1054800F042FB002003B061
:109D400030BD0420FBE700BFEC230020E81A002010
:109D50002DE9F341284B1E78044626B900263046EB
:109D600002B0BDE8F0810028F8D0FFF7B3FFD4E9D6
:109D70000223994208BF904238D302AF002307F86C
:109D8000013D384600F0B2F923692BB94FF0FF329C
:109D90004FF0FF33C4E902239DF8070000F0CAF931
:109DA000D4E905309847002538468DF8075000F073
:109DB0009DF92169C1B1D4E90278B8F1FF3F08BF2C
:109DC000B7F1FF3F05D07A1848F10003C4E9022338
:109DD00035469DF8070000F0ADF9002DBED02146B4
:109DE000064801F098FABAE70D46F2E7013308BFDA
:109DF000B2F1FF3FF3D1B1E79023002068E4010006
:109E000013B5114B114918680190082358221048C6
:109E100000F0F2FA044698B90E4A0F4801A900F082
:109E2000ADF9044660B901210B4800F0A5FA012301
:109E30000A4A0948194600F003FA094B01221A7030
:109E4000204602B010BD00BF64E40100942300204E
:109E5000EC230020319F0100E81A0020FFFF7F0063
:109E60009023002030B56AB103684FF0FF344FF003
:109E7000FF355A614A1E5142C3E9024551411961F9
:109E8000002030BD0720FCE7F7B5054602A80024F6
:109E900000F8014D17460E4600F028F9D5E90223D7
:109EA000013308BFB2F1FF3F07D1FFF713FF83195A
:109EB00041F10004C5E9023401249DF8070000F0D7
:109EC00039F94CB12B69AF6103B12E6129460020ED
:109ED000FFF722FF03B0F0BD2046FBE737B505468C
:109EE00002A8002400F8014D00F000F9D5E9022392
:109EF000013308BFB2F1FF3F06D04FF0FF324FF001
:109F0000FF33C5E9022301249DF8070000F012F990
:109F10002CB129460120FFF7FFFE03B030BD2046DB
:109F2000FBE70000014800F047BA00BFE81A002034
:109F30002DE9F74F054600F028FA40B16349D1E911
:109F4000002312F1807643F10007C1E90067002188
:109F5000284600F02AFA38B15D4C236823B1206806
:109F6000FFF7F6FE002323600121284600F01DFACA
:109F700020B1FFF7AFFE574BC3E9000101A95648D6
:109F8000534C00F0A8FA4FF0FF364FF0FF3798B966
:109F9000DFF848814E4C404601F0D3F9002800F02C
:109FA0008880D0E90223591C08BFB2F1FF3F32D1AB
:109FB000404601F0C0F9EEE70378012B20D00BD327
:109FC000022B14D1DFF81481404601F0B4F90028C7
:109FD00077D0C0E90267F7E74168D1E9022301338E
:109FE00008BFB2F1FF3F02D03C4801F094F901A94B
:109FF000394800F09BFA01A9374800F06CFAC6E72F
:10A0000041682368994202D100232360EFE7334877
:10A0100001F09AF9EBE7216891B12168D1E90201D9
:10A020008B4208BF824232D22368D3E90223013334
:10A0300008BFB2F1FF3F03D02168404601F06BF941
:10A04000404601F078F9D0E902678146FFF742FE09
:10A05000B6EB000B67EB010CBBF1010F7CF10003C9
:10A060001ADBDFF884A0D34514D9FFF75BFF00EBC0
:10A070000A024FF496030021194800F005F998B937
:10A08000236813B9284600F0D3F8C4F8009003B051
:10A09000BDE8F08F3246ECE70021114800F07AF974
:10A0A0004846FFF755FE01E00D28F9D00023236054
:10A0B00071E7074B1B68002BE9D1284600F0BCF87C
:10A0C000E5E7084B01221A7091E700BF88230020C2
:10A0D0000824002000240020EC23002068E4010074
:10A0E000E81A002090230020FFFFB40070B5EFF3C2
:10A0F000108672B60C4A946801239CB993600B4B8E
:10A100000B4DD3F8801029401160C3F88050D3F86C
:10A11000841051604FF0FF32C3F88420047006B9F8
:10A1200062B670BD0370FAE70829002000E100E084
:10A13000FC06FFBD10B5084B9A685AB150B9EFF351
:10A14000108172B6054A1C6814605C68546098609F
:10A1500001B962B610BD00BF0829002000E100E08F
:10A16000435882B03BB10023435043580193019BB5
:10A17000012002B070471846FBE7000038B5244CB8
:10A18000437944F82320234C234A121B234C04EB2D
:10A19000C303D2081B79120433B142F002002049F4
:10A1A000FFF7C8FB082038BD03680D88C3F80855C1
:10A1B00090F904308978002B4FEA4111ADBF03F1CB
:10A1C000604303F00F03174D03F56143B5BFC9B2F8
:10A1D000C9B2E95483F8001390F90430002B08DB6E
:10A1E00001215D0903F01F0301FA03F30E4941F851
:10A1F0002530437904EBC30101250D7144F8330088
:10A200000A4942F00300FFF795FB0020CBE700BFAF
:10A210001424002030F1010078F101000C2400200A
:10A2200086E4010014ED00E000E100E0A8E4010094
:10A23000036801221A607047036801225A60704760
:10A24000F7B505684FF480348C40C5F808430568BD
:10A25000C5F848438D0005F5A0750668ADB2002726
:10A26000775175590195019D056801F5A87122F096
:10A270007F4245F821200268C2F8444313B10368C5
:10A28000C3F8044303B0F0BD2DE9F34799464FF4FA
:10A290008038036808FA01F8C3F848830368C3F8F4
:10A2A000088322F07F4502688E000F46D2F804151D
:10A2B000324406F5A076D2F84035C2F84015B6B261
:10A2C00002684FF0000A42F806A05B1A9259009209
:10A2D00023F07F43012B0446009A0BD1254B4FF40A
:10A2E000806043F001039847236843F806A09B5918
:10A2F0000193019B2368D3F80465C3F84483AB1B27
:10A3000023F07F43012B07F5A877236819D1013586
:10A3100043F82750174B4FF4806043F001039847F0
:10A320002368D3F804359E4209D12368C3F84483D7
:10A3300023680020C3F8048302B0BDE8F0870D2035
:10A34000FAE743F827502068D0F804156A1A013A52
:10A35000C9F1FF1322F07F4203F57F439342EED30E
:10A36000002AE2D1013540F827502368D3F804359C
:10A370009942D9E780E4010002680223C2F844331D
:10A3800011B10268C2F8043370474FF4827100685B
:10A39000FFF7E6BE4FF4803303FA01F10368C3F818
:10A3A00048130368C3F808137047890001F5A071CA
:10A3B00089B20068FFF7D4BE0368D3F8040570477C
:10A3C00090F90430002B09DB5A09012103F01F0327
:10A3D00001FA03F34032024941F82230704700BFCE
:10A3E00000E100E0024B034A1B681068184700BFF9
:10A3F000142400200C24002010B561B1B2FBF3F44A
:10A4000003FB1424A4B244B9C0E90014846082811F
:10A41000C381204610BD0E20FCE70920FAE782B078
:10A4200050E8022FC188B2EB324F4FF0000317BF44
:10A4300092B241EA014142EA014104E04268B2EBD2
:10A44000324F08BF012340E80212002AE8D18DF8FC
:10A4500007309DF80730002B0CBF1120002002B000
:10A46000704737B550E8013F9DB2C48925448489BF
:10A47000A54228BF2D1B0489A54202BFBFF32F8F21
:10A48000002207E0C5EA030540E80154002CE9D1A9
:10A490004FF001028DF803200193019B9DF80320EA
:10A4A0000B6002F0FF0322B10B880068184403B070
:10A4B00030BD1846FBE70A884B889A4209D150E81C
:10A4C000012FC2EA024240E80123002BF7D101200C
:10A4D00070470020704737B550E8023F1FFAA3F5D8
:10A4E000C488A54202BFBFF32F8F00220DE0C489AC
:10A4F00025448489A54228BF2D1BC3EA054540E8B1
:10A500000254002CE8D14FF001028DF80320019392
:10A51000019B9DF803200B6002F0FF0322B14B88E2
:10A520000068184403B030BD1846FBE70A884B8822
:10A530009A4209D150E8022FC2EA224240E802239F
:10A54000002BF7D1012070470020704701F01F0257
:10A550004B090121914000EB830000F028B801F085
:10A560001F0301229A404B0900EB8300D14300F006
:10A5700034B84B0901F01F0150F82300C84000F027
:10A580000100704750E8002F0B4640E8003C9CF06B
:10A59000000FF7D11046704750E8002F42EA010340
:10A5A00040E8003C9CF0000FF6D11046704750E8A0
:10A5B000003F43EA010240E8002C9CF0000FF6D176
:10A5C0001046704750E8002F02EA010340E8003CC3
:10A5D0009CF0000FF6D11046704750E8003F03EAA8
:10A5E000010240E8002C9CF0000FF6D110467047A5
:10A5F00050E8003F03EB010240E8002C9CF0000F04
:10A60000F6D11046704750E8003FA3EB010240E846
:10A61000002C9CF0000FF6D1104670470121FFF787
:10A62000BBBF0121FFF7C3BF0021FFF7CBBF10B5B0
:10A6300090B1D0E9012301689B1ADBB20A60013BAB
:10A64000DBB2FF2B026802D10020107110BD11682F
:10A650004C1C14600B70F2E70E20F7E737B5054687
:10A6600002A8002400F8014DFFF740FD2A68696840
:10A6700013688B4210D9591E116013F8014C2A8AB5
:10A68000EB6802FB04342A68AB6811685B1A117925
:10A69000DBB2994238BF13719DF80700FFF74AFDFE
:10A6A000204603B030BD37B5054602A8002300F8A8
:10A6B000013D0C46FFF71AFD2A681368591C11600A
:10A6C000E968641A298AB4FBF1F41C709DF807004C
:10A6D000FFF730FD03B030BD10B5826804462AB1E3
:10A6E00043690168006998470023A36010BD0EB458
:10A6F00003B5039929B102AA04AB42F8043D00F066
:10A7000073F802B05DF804EB03B070470A2938B55E
:10A7100004460D4602D10D21FFF7F8FFA368226819
:10A72000591CA160D554D4E901329A4204D3204681
:10A73000BDE83840FFF7D0BF38BD00002DE9F84F25
:10A740009946DDE90A431746824688460A460126AD
:10A75000BA420FD24E4538BF4E4613F0010B01D11D
:10A7600064B900240125B9F1010F1AD909F1FF39A3
:10A770007D43F8E7B2FBF7F20136E9E79B070ED518
:10A78000B9F1000F0CBF30252025A642EAD2013CCA
:10A7900029465046FFF7BAFF002CF6D1E1E7202505
:10A7A000F3E7B8FBF5F39F42E2D9DFF83890B8FB46
:10A7B000F5F3504619F8031005FB1388FFF7A6FFC1
:10A7C000B5FBF7F5002DF2D1BBF1000F02D00CB1B3
:10A7D000A64201D3BDE8F88F20215046013CFFF787
:10A7E00095FFF4E7BAE401002DE9F74F05469046DE
:10A7F0000E46002900F03A8116F8011B002958D0B6
:10A80000252940F0D180002702E047F001071646D5
:10A81000324612F8013B2D2BF7D0302B04D02B2BD6
:10A8200005D147F00407F2E747F00207EFE70024FD
:10A830002A2B06F101021BD1D8F80030191DC8F8E7
:10A8400000101B6816461C4433782E2B1CD1013691
:10A850004FF0000A314611F8012BA2F1300009280F
:10A8600014D80A2303FB0A23A3F1300A0E46F1E7AA
:10A8700012F8013CA3F130010929E5D80A2101FBB6
:10A880000434303C1646D3E74FF0000A324612F843
:10A89000011B01F0FB0068281646F8D0692916D084
:10A8A00054D8582970D00ED825297DD03378002B64
:10A8B000A2D12B7B002B00F0D980284603B0BDE845
:10A8C000F04FFFF709BF632968D06429EED1D8F8AB
:10A8D0000020111DC8F80010D2F8009089EAE97232
:10A8E000A2EBE9724FF0010B092A61DCD34538BFB6
:10A8F000D3462CB1B9F1000F01DB790700D5013C3B
:10A90000BA0702D5BAF1000F04D0FB0702D4002C1D
:10A9100054D10024B9F1000F58DAC9F100092D21F2
:10A920002846FFF7F3FE07F00302022A05D1BAF129
:10A93000000F02D1002C4DD10024CDE90047534631
:10A940000A2249462846FFF7F9FEAFE7732954D09B
:10A9500016D87029AAD1D8F800301A1DC8F80020DE
:10A96000302128461C68FFF7D1FE78212846FFF7E2
:10A97000CDFE00220823CDE9003221461022E1E776
:10A9800075292FD0782991D1D8F800100A1DC8F860
:10A990000020CDE90047534610222CE0D8F80030C3
:10A9A0001A1DC8F8002019782846FFF7AFFE7DE78A
:10A9B0000A230BF1010B92FBF3F295E7A345A9D211
:10A9C00020212846013CFFF7A1FEA0E77807AAD581
:10A9D0002B21A5E7A345B0D230212846013CFFF743
:10A9E00095FEA7E7D8F80010CDE900470A1DC8F882
:10A9F000002053460A220968A4E7D8F800301A1D3F
:10AA0000C8F80020F907D3F8009012D54F46A7EBFD
:10AA1000090B17F8011B41B9A345BFF447AF20212B
:10AA20002846013CFFF772FEF6E72846FFF76EFE68
:10AA3000EDE7B9F1000F17D0484603F055FC074683
:10AA4000BC4200D954B909F1FF3919F8011F002996
:10AA50003FF42CAF2846FFF759FEF6E720212846A1
:10AA6000013CFFF753FEEBE74F46E9E703B0BDE8D3
:10AA7000F08F000007B50B4688B9124B1248134AF5
:10AA8000C01A0E23C0080093114B0004114940F076
:10AA90000100FEF767FF0E2003B05DF804FB4BB921
:10AAA000084B09480C4AC01AC0080E230093000442
:10AAB000074BEBE703601B68114603B05DF804EB3E
:10AAC000184700BF30F1010090F1010089E5010055
:10AAD000CAE401008EE5010005E60100F7B580B982
:10AAE0002D4B2E482E4AC01AC0080E242D4B009420
:10AAF00000042D4940F00100FEF734FF204603B06A
:10AB0000F0BD4AB9244B2548284AC01AC0080E2473
:10AB100000040094234BECE7D0F800C0BCF1000F18
:10AB200009D11D4B1D48224AC01AC0080824000440
:10AB300000941C4BDDE74BB9174B18481D4AC01A4F
:10AB4000C008092400040094164BD2E78E0709D0F0
:10AB5000114B1248184AC01AC0081024000400946F
:10AB6000104BC6E7C668B1420BD34C1E05691C44A6
:10AB7000AC4206D8DCF80840A44603B0BDE8F0407B
:10AB80006047054B05480D4AC01AC0081024000450
:10AB90000094044BADE700BF30F1010090F10100DB
:10ABA00089E50100DCE401008EE50100B7E5010064
:10ABB000FFE50100BEE50100C2E50100D9E50100A5
:10ABC0002DE9F34188B93D4B3D483E4AC01AC008C3
:10ABD0000E243D4B009400043C4940F00100FEF778
:10ABE000C1FE204602B0BDE8F0814AB9334B34487B
:10ABF000374AC01AC0080E2400040094324BEBE719
:10AC0000D0F800C0BCF1000F09D12C4B2C48314AC0
:10AC1000C01AC0080824000400942B4BDCE74BB991
:10AC2000264B27482C4AC01AC00809240004009467
:10AC3000254BD1E74768D7F80480B3FBF8F708FB4A
:10AC400017374FB11D4B1E48244AC01AC0080924AB
:10AC5000000400941C4BBFE78F0709D0174B18481E
:10AC60001F4AC01AC008102400040094164BB3E712
:10AC700012F0030F09D0114B11481A4AC01AC0082C
:10AC8000102400040094104BA6E7C768B9420BD308
:10AC90004C1E05691C44AC4206D8DCF80C40A446A6
:10ACA00002B0BDE8F0416047044B05480E4AC01AA7
:10ACB000C008102400040094034B8DE730F101001C
:10ACC00090F1010089E50100EEE401008EE501004C
:10ACD0000BE60100FFE50100BEE5010011E6010001
:10ACE0003BE6010053E6010076E60100F7B580B9C6
:10ACF0002A4B2B482B4AC01AC0080E242A4B00941A
:10AD000000042A4940F00100FEF72CFE204603B063
:10AD1000F0BDD0F800C0BCF1000F09D11F4B204896
:10AD2000234AC01AC0080824000400941E4BE8E718
:10AD30004AB91A4B1A481F4AC01AC008092400040D
:10AD40000094194BDDE74768D7F800E00EF1FF37B4
:10AD50000F4209D0114B1248174AC01AC0081024DC
:10AD600000040094104BCCE7C768B9420CD34C1ECA
:10AD700005690EFB0244AC4206D8DCF81040A4463C
:10AD800003B0BDE8F0406047044B05480B4AC01AC9
:10AD9000C008102400040094034BB2E730F1010016
:10ADA00090F1010089E5010001E501008EE5010057
:10ADB000FFE50100BEE5010014E501003AE50100F0
:10ADC0002DE9F04108B10368C3B90E4E0E4B1422B1
:10ADD0009B1B0024B3FBF2F3374602FB03F5A542AD
:10ADE00001D1002008E03B5930190BB91434F6E7C3
:10ADF000DB6998470028F9D0BDE8F081DB69BDE840
:10AE0000F0411847801D0020941D002029DF704765
:10AE100028DF704770B50568AB6886B004460E46FB
:10AE200073B114220021684603F04EFAA36805931B
:10AE30002379019633B1012B0ED0AB686846984751
:10AE400006B070BD01238DF8003023690293E368DA
:10AE5000039363690493F0E702238DF80030E368FD
:10AE60001B030293F5E70846704700207047000077
:10AE7000024B187A003018BF01207047B42400201C
:10AE8000034B187A0122B0FA80F05A7440097047D7
:10AE9000B424002008B510461A4603F00AFA002030
:10AEA00008BD000008B514220021044803F00CFA84
:10AEB0000348FFF7B4FA002008BD00BFB424002007
:10AEC000A424002010B5094C094B43602046FFF72D
:10AED000A5FB40B901F0A4FD1C2320748C22054978
:10AEE0000548FFF789FA002010BD00BFB4240020F8
:10AEF000ACE6010018240020A424002070B5244DE5
:10AF0000244E2B7A2C463BB923492448FFF7E3FA19
:10AF1000306008B9686070BD0223237233681A7903
:10AF200072B1012A24D018460321FFF773FF0023D2
:10AF30002372636018491948BDE87040FFF7F6BAFC
:10AF4000D3E90520121AB2F5805F28BF4FF4805272
:10AF5000D3E903159208012A014438BF012228448D
:10AF6000FFF754FF50B11128DDD101232372D2E73E
:10AF7000D3E903021044FFF74BFFF3E7237C002BD8
:10AF8000C9D10146BDE87040022000F009B800BFF9
:10AF9000B4240020CC240020C8240020A4240020B5
:10AFA00038B5831E012B45D8234C237A002B41D082
:10AFB000022B09D1032830D0204B00221B68E2600D
:10AFC0001A793AB1012A22D0637C7BBBBDE83840B4
:10AFD000FFF794BFD3E905128D1AB5F5805F94BFD2
:10AFE000521902F580529A619142EDD102284FF038
:10AFF000000308BF19462372104B18BF0D211868B3
:10B00000FFF708FF0E490F48FFF790FADCE71A69CF
:10B0100001321A615B699A42E7E7E3680133082B62
:10B0200001D8E360D0E70023E360DFE7BDE8384004
:10B0300001F0E6BC38BD00BFB4240020CC240020C1
:10B04000C8240020A424002000F0FD03012B08D117
:10B05000044B00225A74421E504250411874FFF7AC
:10B060004DBF7047B424002010B5064C201DFFF7DB
:10B07000D5FA28B9637C1BB9BDE81040FFF73EBF85
:10B0800010BD00BFB42400202DE9F34180460D46D9
:10B090000F4801A916461F46FFF7E3F90446A8B179
:10B0A0001C22002103F010F92D0B0123237101A9AB
:10B0B000C4F80080A760E56066610548FFF7FBF90A
:10B0C000FFF7D2FF002002B0BDE8F0810420FAE7CC
:10B0D000A42400202DE9F74381468846104801A9A1
:10B0E00017461E46FFF7BDF90446B0B11C220021E9
:10B0F00003F0EAF800250A9BA36001A92571C4F8B2
:10B100000090C4E9037866610548FFF7D4F9FFF7BA
:10B11000ABFF284603B0BDE8F0830420FAE700BF88
:10B12000A42400202DE9F047B0F806904479D2F825
:10B1300000A09DF8208009FB04F4043C06460AEBBD
:10B140000300A0420F4688BFA4EB030A191DC2F8F2
:10B1500000A0B1FBF9F509FB15114DB9A9EB0104EC
:10B16000544528BF5446BAF1000F04D1BDE8F0871A
:10B170003668013DF1E704317B1970182246B8F1B9
:10B18000000F0ED001461846AAEB040A03F091F80E
:10B19000D145254436684C464FF0000128BF54463F
:10B1A000E1E71946F0E7FFF742BAF8B546790146FC
:10B1B000721E0546002393422D6803D30024A64245
:10B1C00002D8F8BD0133F6E70F682846FFF76BFA9F
:10B1D00001343946F3E72DE9F843CD1C068A0746CA
:10B1E000FFF73CFA043E35440446B5FBF6F5F0B1F2
:10B1F0004FF48073EDB28380C680013D07608146C5
:10B200004FF00008A84512D23846FFF727FA064645
:10B2100048B163790133637108F10108C9F800008E
:10B2200007608146EEE72046FFF7BFFF3446204621
:10B23000BDE8F88301210430FFF7DAB910B5012128
:10B2400004460430FFF7DFF910F0FF0F04D1204669
:10B25000BDE81040FFF7A9BF10BD1FB504AC44F80E
:10B26000042D002200922246FFF75CFF04B010BDBF
:10B270001FB504AC44F8042D012200922246FFF7CA
:10B2800051FF04B010BD41DF70470000064B10B500
:10B2900000241C70054B1C60BFF35F8F04490548F8
:10B2A00000F024F8204610BDD8240020DC24002023
:10B2B000D8E60100D024002008B501F0B1FB18B198
:10B2C000BDE80840FFF7DFBF20BF40BF20BF08BD7B
:10B2D0008268002393608268136182685361826888
:10B2E000D3608268536082681360704701600B68A6
:10B2F00043604A68934204BF002343607047436839
:10B3000043B1026891680B4443605268934204BFA2
:10B3100000234360704770B5446806460D462068B8
:10B3200018B1B3682946984718B923682B6025607F
:10B3300070BD2468F3E74368186808B102681A60B2
:10B3400070474368186870474368186800B97047C9
:10B350008842026802D11A600120704703461046F5
:10B36000F4E700000D4930B5A1F594720225914231
:10B3700001D800200EE08B1ADB1093FBF5F302EBF3
:10B38000C30452F83330834205D802D204F10802D4
:10B39000EDE7606830BD2146E9E700BF34E8010011
:10B3A00008B5FFF7DFFF024B002808BF184608BDAD
:10B3B000F6E60100BFF34F8F0549064BCA6802F459
:10B3C000E0621343CB60BFF34F8F00BFFDE700BFC8
:10B3D00000ED00E00400FA05074B1B78062B09D1AD
:10B3E000064B1B68C3F30313033B042B02D8044A28
:10B3F000D05C704700207047E00F00F0E80F00F0CD
:10B40000F8EB0100074B1868421C04BF064B187884
:10B41000062804D0A0F10A03584258417047012081
:10B42000704700BF30010010E00F00F0024AD2F870
:10B430000034002BFBD0704700E0014010B5914B69
:10B440001B685C1C04BF904B1B78062B05D18F4BEF
:10B450008F4A1B68C3F304231360FFF7BDFF10B1CD
:10B460008C4B8D4A1A60FFF7CDFF28B18B4B8C4A6D
:10B470001B68C3F342331360FFF7AEFF20B1894A64
:10B48000D36823F08073D360FFF7BCFF40B14FF067
:10B4900080430022C3F80C21C3F81021C3F83825DB
:10B4A000FFF79AFF10B1804B03221A60FFF794FF59
:10B4B00040B17E4B05221A6001229A6700229A60F1
:10B4C0003F225A606F4B1A68501C0BBF6E4B784B73
:10B4D0001A781B6802BF08331B68C3F30313062ADC
:10B4E0004ED1033B042B03D8724AD35C002B49D0C6
:10B4F0004FF08052704BD2F80414C3F82015D2F8E4
:10B500000814C3F82415D2F80C14C3F82815D2F87F
:10B510001014C3F82C15D2F81414C3F83015D2F84F
:10B520001814C3F83415D2F81C14C3F84015D2F817
:10B530002014C3F84415D2F82414C3F84815D2F8DF
:10B540002814C3F84C15D2F82C14C3F85015D2F8AF
:10B550003014C3F85415D2F83414C3F86015D2F877
:10B560003814C3F86415D2F83C14C3F86815D2F83F
:10B570004014C3F86C15D2F84424C3F8702501E0D8
:10B580000A2AB5D03F4B1B68591C04BF3E4B1B78A1
:10B59000062B05D1494B4A4A1B6803F04F03136041
:10B5A000FFF730FF48B14FF08043D3F80024D207B3
:10B5B00044BF6FF00102C3F80024324B1B68062B16
:10B5C0000CD13B4B1B68033B042B02D83D4AD35C98
:10B5D00023B13D4A136843F480631360294B1B6811
:10B5E0000A2B07D1324B1B6823B1354A136843F04D
:10B5F0000F031360234B1B68062B0CD12C4B1B68CD
:10B60000033B032B81BF4FF01023D3F808224FF0E8
:10B610008043C3F858254FF01023D3F80022002AA6
:10B6200003DBD3F80432002B17DA28490123C1F8D1
:10B630000435FFF7FBFE4FF010201524C0F8004240
:10B64000FFF7F4FEC0F80442FFF7F0FE0023C1F854
:10B650000435FFF7EBFEFFF7ADFE1D4C2368DB075B
:10B660000CD51A490123C1F80435FFF7DFFE00208D
:10B670002060FFF7DBFEC1F80405EAE7154B164A28
:10B680001A6010BD30010010E00F00F0240300101C
:10B690004035014074C007400DF0ADBA44020010BF
:10B6A0003C050040F0ED00E0A005004010560040D1
:10B6B00034010010EEEB010000C000405802001001
:10B6C000E40E0040F3EB01003C17004000E00140B5
:10B6D0000C120010F01A00200090D00338B5084C6E
:10B6E00004F108030546002818BF1C4623682BB147
:10B6F0001A6822605B6828469847F7E738BD00BFA4
:10B70000E824002020B9054B01225A70FFF7E6BF5C
:10B71000012802D1014A9070F8E77047E024002028
:10B7200020B9034B01225A70FFF7D8BF704700BF02
:10B73000E024002038B50E4C2378B3B90D4863607F
:10B74000A3602361E36000F071F8054601F068F939
:10B7500008B900F079F801232370074BD3F80034BF
:10B760000BB10123A370284638BD8525F5E700BF3E
:10B77000E024002005B701000000014037B502A811
:10B7800000230B4C00F8013DFEF7B0FCE368013BE1
:10B79000E360E36833B9074BD3F8005415B900F000
:10B7A00065F8A5709DF80700FEF7C4FC03B030BD36
:10B7B000E024002000000140012813B50DD003D380
:10B7C00003281FD002B010BD114B0122C3F8802006
:10B7D000BFF34F8FBFF36F8FF4E702A800230D4C28
:10B7E00000F8013DFEF782FC23780BB9FFF7A2FFBA
:10B7F000E3689DF807000133E3600123A370FEF7BF
:10B8000099FCDFE700F020F8FFF7B8FFDAE700BFA8
:10B8100000E100E0E024002000F18040002382B03D
:10B82000036003680193019B02B07047054A1379D6
:10B830002BB9012110601171537118467047852092
:10B84000704700BFF4240020074B1A68D20704D4C5
:10B85000C02283F8002301221A604FF080430122A6
:10B86000C3F81825704700BF00E100E04FF08042A8
:10B8700008B50223C2F808334FF48270FFF7CCFFFB
:10B88000034B01211960D2F81834DB03FBD408BD47
:10B890000C00004010B5124B1B6873B14FF4807060
:10B8A000FFF7BAFF4FF080430122C3F808230D4B86
:10B8B000587910B95A711B6898470B4B1B6873B1C4
:10B8C0004FF48270FFF7A8FF4FF080430222C3F8C5
:10B8D0000823044B01201B68BDE81040184710BD29
:10B8E00000010040F42400200401004000F18040E9
:10B8F00000F5C040002382B0036003680193019B00
:10B9000002B07047800000F1A040D0F8003723F467
:10B910004033C0F80037D0F8003743EA0141C0F89F
:10B92000001770472DE9F3474C4A4D4E4D4D00240A
:10B93000019401211368A2F5C040012B80B206D109
:10B94000D6F804330B4202D0FFF7D0FF0C43043289
:10B95000AA424FEA4101EDD1434B1B68012B0CD1A8
:10B960004FF4BE70FFF7C2FF4FF0A04344F0004415
:10B97000D3F820250192C3F8202514F0FF0F1AD028
:10B980003A4F00250126344210D0AB0003F180432A
:10B9900003F5C043D3F81005D3F8101557F8253038
:10B9A000C0F30420C1F3014103B198470135082DCC
:10B9B0004FEA4606E7D1002C48DA2C4F4FF0A0465C
:10B9C000B8464FF0000A4FF0010907EB0A0393F95C
:10B9D00050104B1C2ED0CAB222F0C00402AB03EBB5
:10B9E000D40313F8041C02F0070309FA03F3194205
:10B9F00020D004F5E073204656F82350C5F30145E6
:10BA0000022D0CBF03210221FFF77CFF09FA04F38A
:10BA1000C6F8203508EB040393F9303058F823308A
:10BA200043B19109032903D0022D12D1012901D17B
:10BA3000204698470AF1010ABAF1040FC5D1D6F899
:10BA400020350193C6F82035002BBAD102B0BDE8ED
:10BA5000F087032DEED10229E9E700BF0061004025
:10BA600000600040206100407C610040FC24002018
:10BA7000014B1B68184700BF5825002076DF704730
:10BA8000004870470C1B0020004870477C250020B0
:10BA9000004870476025002000487047702500204E
:10BAA000F0B585B0FDF7F4FD08B9FFF705FC414E90
:10BAB000337813F0100F3546337843D0580709D543
:10BAC0003D49102201F11C0002F0F3FB33786FF3C3
:10BAD000820333702B78394C13F0080F12D00422F4
:10BAE00004F1160104F1320002F0E3FBE37E238748
:10BAF000237F84F83730637F84F836302B786FF3F8
:10BB0000C3032B70D4F820C0A26AE36A676A2C4C86
:10BB1000206861686E4603C62189318060463946D7
:10BB200002F05CF802F054FAA11CA4F10E0002F03D
:10BB3000FFF92B786FF304132B7005B0BDE8F040CC
:10BB400002F0F0B899060ED502F032F83B210088D9
:10BB5000FFF794FF08B1FEF76BF82B786FF34513EE
:10BB60002B7005B0F0BD33785A06FAD533789B07B1
:10BB7000F7D43778C7F30017002FF2D10F4C02F03B
:10BB8000DFF8D4F820E0D4F824C0E36AA26A54F8BD
:10BB9000300F61686D4603C5218929807046614672
:10BBA00002F01CF802F0BEF8337867F386133370A6
:10BBB000D7E700BF7C250020121B00200C1B0020B3
:10BBC0003C1B002008B5FFF761FB18B1BDE8084039
:10BBD000FEF72EB808BD00001B4C8FB501F078FDB4
:10BBE00002F07EF9FFF7EEFF02F074FA1722174910
:10BBF00004F1200002F05DFB02F08AF904F1320149
:10BC000004F1220002F0BEF901F0B8FF01F08EFF4E
:10BC100001F0D2FF01F0E0FE02F03BFAA26AE36A13
:10BC2000276A666A54F8300F61686D4603C521893A
:10BC300029803846314601F0D1FF01F04FFF02F074
:10BC400071F8FFF72DFFFCE70C1B0020F41A002011
:10BC50000369C1688B429DBF8268D21802F1FF322E
:10BC600003F1FF3394BF501A581A70472DE9F04181
:10BC7000D0E902670446F61B40689642884615469E
:10BC8000384405D902F015FB3D44E560BDE8F0817C
:10BC90003246AD1B02F00DFB2A4608EB0601606838
:10BCA00002F007FBF1E72DE9F843C568064689462F
:10BCB00017464FF000083469B3687068A54228BF82
:10BCC000E418013C621B5C1BBC4228BF3C4694420A
:10BCD00028BF144649462844224602F0EAFAB368CF
:10BCE0002544AB4208BF00253F1BA044A144F5609A
:10BCF000E1D14046BDE8F88310B5114C114AA2616C
:10BD00000223C4E90433104BE361A2644FF40073CF
:10BD10000E4A2362E264002310220D49A362E01D53
:10BD20006362E362A3656365E365226502F0D4FAAA
:10BD30000849204602F0D0FA2023A37110BD00BFAD
:10BD4000142900201FEC01008D2500207D250020F6
:10BD500028EC01002CEC0100F8B5184C182300FB6E
:10BD6000033503FB00402544C46A012C0F461646E8
:10BD700011D003D3022C1BD000240AE02846FFF781
:10BD800067FF864205D8324639462846FFF76EFFE0
:10BD900034462046F8BD2846FFF75AFF864234460F
:10BDA00028BF0446224639462846FFF75FFFF0E7E2
:10BDB0002846BDE8F840FFF776BF00BF14290020F1
:10BDC000FFF79ABF6DDF704779DF70477DDF7047FF
:10BDD00064DF70472DE9F74F0C9CBDF834B027881D
:10BDE000002580468A4691462E46B8F80020B24289
:10BDF0000BDC35B12288013AD21B92B2FF2A39D826
:10BE0000DA55002003B0BDE8F08FD8F8042052F8CE
:10BE10002600019000220DF1030101A8FFF7D8FFD1
:10BE20000028EFD19DF803204A4521D12288002D1A
:10BE300014BF0020022002EB09010144594519DC1E
:10BE40003DB9013292B2228003F802A02288013269
:10BE5000228022880DF103011A4401A8FFF7B8FFE0
:10BE60000028CFD121889DF803200A442280012593
:10BE70000136BAE70C20C5E72DE9F341089CBDF86F
:10BE800024501746CDE9004502220646FFF7A2FFDF
:10BE900048B9102239463046CDE9084502B0BDE820
:10BEA000F041FFF797BF02B0BDE8F0812DE9F04FF8
:10BEB00000231688138090F82D3085B007460D4674
:10BEC000144653B3082E01D80C2026E102A8FFF730
:10BED00079FF002840F0218113880822CA54238862
:10BEE00001339BB21B222380CA542088013080B2C8
:10BEF000208006220DF10901284402F0DAF9238896
:10BF00009DF8082006339BB212F0FE0218BF0122F2
:10BF10002380EA54238801332380BB78FBB1238834
:10BF20000433B342D0D802A8FFF74EFF002840F0F8
:10BF3000F48023880322EA54238801339BB2192218
:10BF40002380EA542388BDF8082001339BB2E91806
:10BF50002380EA54120A4A70238802332380FA7835
:10BF60009AB12388D91CB142AED80221E954238862
:10BF700001339BB201212380E95423880B449BB2F7
:10BF80002380EA5423880B4423807A68AAB123884B
:10BF9000D91CB14298D8022192F90020E954238893
:10BFA00001339BB20A212380E954238801339BB2D9
:10BFB0002380EA542388013323803B89002B40F0FF
:10BFC000A0803B8A5BB1CDE900462B4607220321C6
:10BFD00007F11000FFF750FF002840F09E803B8BD8
:10BFE0005BB1CDE900462B461522142107F118005C
:10BFF000FFF742FF002840F090803A6A002A40F0A4
:10C000008F80D7F82480B8F1000F30D0B8F8043012
:10C010002188981C8A1C0244B2423FF655AFFE2884
:10C020003FF652AF03336B54238801339BB2FF2298
:10C030002380EA54238801339BB22380B8F8002080
:10C04000EA54E918120A4A702088023080B220802F
:10C05000B8F804205AB1D8F8081000296AD028444A
:10C0600002F027F92388B8F804201344238097F8B6
:10C070002C30002B40F09980387800284DD03B8838
:10C08000012B57D021888A1CB2423FF61DAF0128F0
:10C0900005D17B7802330B449E42FFF415AF023E7C
:10C0A000761A04A9B6B221F8086DA818FFF78EFE1B
:10C0B00098BB3978BDF80820022900F0BB807B7856
:10C0C000934202D3B24240F2B380012940F0B480DF
:10C0D0009BB29E42C0F0B080ADF808300821BDF898
:10C0E0000830FE2B3FF6F0AE22880133AB54228895
:10C0F000013292B22280A954228813442380002066
:10C100000BE0CDE900462B460622022107F108008C
:10C11000FFF7B2FE00283FF454AF05B0BDE8F08F42
:10C12000B4F800C00CF10603B3423FF6CDAE11885F
:10C13000052901D80720F0E76FF4486E01EB0E03E4
:10C140009BB24FF27D3E7345F4D95388052BF1D94C
:10C150006FF44860181880B27045EBD94FF6FF7045
:10C16000814203D0834201D09942E3D8052305F8E8
:10C170000C30238801339BB212212380E954238899
:10C1800001339BB223801188E954E818090A4170F1
:10C19000238802339BB223805288EA54E918120A9A
:10C1A0004A702388023323802BE7BB6A002BC1D05F
:10C1B0004FF000094FF00C0A4FF0160B97F82C3097
:10C1C0005FFA89F293427FF657AFB96A0AFB02F22F
:10C1D00001EB0208B8F80430981CFE283FF674AE54
:10C1E000208803332B54238801339BB2238005F826
:10C1F00003B0238801339BB223808A5AEA54E9189A
:10C20000120A4A702088023080B22080B8F80420D8
:10C210005AB1D8F8081000298CD0284402F049F807
:10C220002388B8F804201344238009F10109C5E7E5
:10C23000092154E7B242FBD9ADF808604EE775DF3B
:10C24000704776DF70477ADF70477BDF704700000A
:10C25000034B1A8882420CBF18460020704700BF6B
:10C26000AC270020024B9B6903B11847704700BF01
:10C270009027002037B585B22846FFF7E9FF03462F
:10C2800070B1164C017A227B91420BD200F10A0167
:10C290002846FFF7D4FFE8B1112801D0FFF7E2FFED
:10C2A00003B030BD237C0022027243B13B212846FB
:10C2B000FFF7C7FF30F0080301D0FFF7D3FF636932
:10C2C000002BEDD000228DF80420ADF8065001A817
:10C2D0009847E5E71A7A01321A72E1E790270020C1
:10C2E00013B50B46497A0F4C024669B9D4E90110DF
:10C2F0001C7A002C18BF01465868FDF7C5FD08B12F
:10C30000FFF7B0FF02B010BD002119726369002B66
:10C31000F8D00121ADF806008DF8041001A8984767
:10C32000F0E700BF9027002030B583880588B3F57B
:10C33000FA7F24BF6FF4F9729C184A8838BF002432
:10C3400095420CD84088904209D38A88A24206D3ED
:10C3500003F2F310904234BF0020012030BD0020D2
:10C36000FCE7000070B50388112B014648D002D8C5
:10C37000102B1ED070BD122B52D0502BFAD12F4B48
:10C38000C288DB899A42F5D1038A022BF2D18688D2
:10C390003046FFF75DFF05460028EBD001F11200A3
:10C3A00000F01EF930BB6868FDF798FD0028E1D069
:10C3B00009E0C37B012BDDD14FF6FF70FFF748FF8B
:10C3C000054620B90420BDE87040FFF74BBF8E88BA
:10C3D0001B4A0680002303721368C5F80A300A302E
:10C3E000536843601031FFF79FFF144B6872DB897D
:10C3F000002BBFD129463046BDE87040FFF770BF23
:10C400008088FFF725FF04460028B3D04068FDF779
:10C4100065FD08B1FFF726FF4FF6FF732380A9E7FC
:10C4200086883046FFF714FF05460028A2D0083161
:10C430000A30FFF779FF6872DCE700BF9027002021
:10C44000C0270020F8B5064650B305460FCD154F5E
:10C450003C460FC495E8070084E807003068124B9B
:10C460003B60B8B1FFF7EFFEC8B931680A681A60DF
:10C470004A685A600D480E4A4FF6FF7303800D4B11
:10C4800040F8043F0021FDF7EDFC002814BF032015
:10C49000002004E01846FFF7D8FE0028EAD0F8BDD7
:10C4A0000E20FCE790270020C0270020AC270020AA
:10C4B00075C20100C82700200AB1FEF747B8FEF791
:10C4C0004EB873B50191019C06466CB100252C460F
:10C4D000294601A8FEF74DF818B106EB44030134D4
:10C4E0009D800135142DF3D13046346002B070BD0B
:10C4F0002DE9F04103888488103B8CB00A2B1ED8AC
:10C50000DFE803F006381D1D1D1D1D1D1D583D00D3
:10C510002D4DAB680CA8DB4340F8303D55F8041FA7
:10C52000FEF75BF8009901A8FFF7CBFF0026019BFF
:10C530009E4207D3132C14D90420FDF779FB0CB0CD
:10C54000BDE8F08101AB03EB46030027B3F804809C
:10C55000E81941460437FEF702F8782FF8D1013682
:10C56000E5E721461948FDF7F1FF21461848FDF798
:10C57000EDFFE4E721461548FDF7F1FFDFE7057A17
:10C5800014482D09032D94BF002201222146FFF7F4
:10C5900093FF022D94BF0022012221460E48FFF78F
:10C5A0008BFF012D0D4894BF002201222146FFF789
:10C5B00083FFC4E7037A002BC1D1427A0548C2F356
:10C5C000C0022146F3E700BFE8270020F027002043
:10C5D000EC27002000280020FC270020F82700205E
:10C5E000007800F001007047A5DF7047B5DF7047A5
:10C5F00068B14FF0171303601B2303711723C38027
:10C6000003810023C1608372C372184670470E20F5
:10C610007047000037B583880C4683B90288112A19
:10C6200064D00ED8102A3ED0A37A43B1E18800200E
:10C63000FFF7DAFF002879D10123A072E37203B07B
:10C6400030BD3A2A57D0552AEED1C288C988A37284
:10C65000172A38BF17228A4228BF0A462281184665
:10C66000FFF7C4FF60B1FEF79BFE384A384B3949EB
:10C670009B1ADB081B04024643F00100FDF75EF93C
:10C68000E27A002AD0D1E368002BCDD040F67721A2
:10C69000ADF802202289ADF80010ADF804206946FB
:10C6A00020469847C0E7C37B012B04BF0B88CB8093
:10C6B000C98823898B42B7D20020FFF795FF10B9B4
:10C6C0000123E372B0E7112802D10123A372ABE783
:10C6D000FEF766FE1D4A1E4B1F499B1ADB081B0412
:10C6E000024643F00100FDF729F99DE71722CA80B1
:10C6F0000A818B72E5E74289C988E5688A4228BFCA
:10C700000A46172A38BF1722228165B1E17A51B152
:10C7100040F67721ADF80010ADF80230ADF80420F6
:10C7200069462046A8470023E372CFE7112886D048
:10C73000FEF736FE054A064B07499B1ADB081B0429
:10C74000024643F00100FDF7F9F878E730F1010007
:10C7500088F1010064EC010033EC0100B0DF7047A8
:10C7600066DF704710B5034600214088FFF7F8FFE9
:10C77000024608B91A7210BD112801D10122F9E749
:10C780005B68BDE81040184760B159B10378DE2BF3
:10C790000AD00B684360DE2303704FF6FF734380BB
:10C7A000002070470E2070470820704728B103789A
:10C7B000DE2B04D14180002070470E2070470820F6
:10C7C0007047F0B5054685B00C46F1B1E8B10B787D
:10C7D000DE2B1AD182884B889A4204D10B7A13B18E
:10C7E0000846FFF7BFFF2B88112B32D0512B0ED0FC
:10C7F000012B0AD12B7A012B07D1A988628891429B
:10C8000003D123722046FFF7ADFF05B0F0BDAE881F
:10C810006388B342F9D1AF79022FF6D1AD7B2B1FDC
:10C82000022BF2D800211022684601F04DFD052DA3
:10C8300014BF4FF4C0730023694630468DF8007072
:10C84000ADF80430FFF78AFF0028DED06368984710
:10C85000DBE76388AA889A4204BF4FF6FF736380C0
:10C86000D3E710DF704711DF7047000013B50446AF
:10C8700009496846FEF73AFD019808B902B010BDB3
:10C88000D0E900312046984718B16846FEF737FDD9
:10C89000F2E71120F2E700BFA4EC010013B5044653
:10C8A00007496846FEF722FD019B0BB902B010BD97
:10C8B0002046D3E9002190476846FEF720FDF3E7C4
:10C8C000BCEC01000B4991F816335A09EC231341D3
:10C8D000DB0706D5084B9A683AB94FF480030B6022
:10C8E000704742F20200FDF7A3B91A6842F48002D1
:10C8F0001A60704700E100E008290020084B9A68A0
:10C9000022B11A6822F480021A607047054B4FF476
:10C910008002C3F88020BFF34F8FBFF36F8F704743
:10C920000829002000E100E0F7B5184F3C785CBB17
:10C93000174E012520463570FFF798FF112820D0AB
:10C940002046FFF7ABFF134B1868019002A800F8D0
:10C95000054DFDF7CBFB104901A8FFF782FF044608
:10C96000B0FA80F0400938709DF80300FDF7E2FB53
:10C970003CB90A4B34701C70FFF7A4FF2846FFF740
:10C980008DFF204603B0F0BD0824FAE7652800209B
:10C9900064280020A0EC01004D9C010066280020C6
:10C9A000F7B5154F3B7813B3144E01203070FFF7E5
:10C9B0005DFF11284FF000051BD00220FFF76EFF2E
:10C9C00002A800F8015DFDF791FBFFF74CFF04465C
:10C9D0009DF807003D70FDF7ADFB2CB93470FFF7F3
:10C9E0008DFF0320FFF75AFF204603B0F0BD082457
:10C9F000FAE72C46F8E700BF6528002064280020ED
:10CA0000054B1B7833B1054B1B780BB1FFF7C8BF43
:10CA1000FFF78ABF0820704764280020652800209F
:10CA2000014B1878704700BF6528002007B50849FA
:10CA30006846FEF75BFC019B13B903B05DF804FB8D
:10CA4000D3E9002090476846FEF759FCF3E700BFA2
:10CA5000B0EC0100FFF7EABF60DF704769DF7047A5
:10CA600061DF704730B5114B1B7891B0E3B1104DC9
:10CA700034240DF1020103A8ADF80240FFF7F0FFE6
:10CA800070B9294601A8FEF731FC029B002BF0D0BB
:10CA900003A8D3E90021904701A8FEF730FCF4E792
:10CAA000052801D0FDF7C4F811B030BD672800207B
:10CAB000FCEE010030B5054685B00C46002900F0BB
:10CAC00094804B4B0B600C22002101A801F0FCFB71
:10CAD00001238DF8063022688DF80450062301A941
:10CAE0002020ADF80830FFF7B9FF60B1FEF758FC21
:10CAF000404A414B41499B1ADB081B04024643F064
:10CB00000100FCF71BFF0C22002101A801F0DCFB57
:10CB1000012322688DF8053001A94020FFF79EFF10
:10CB200060B1FEF73DFC334A334B35499B1ADB08B5
:10CB30001B04024643F00100FCF700FF0C22002119
:10CB400001A801F0C1FB0A2322688DF8043001A975
:10CB50000120FFF783FF60B1FEF722FC254A264B38
:10CB600028499B1ADB081B04024643F00100FCF72E
:10CB7000E5FE0C22002101A801F0A6FB4FF4B063F2
:10CB80002268019301A9A120FFF768FF60B1FEF7B9
:10CB900007FC184A184B1C499B1ADB081B04024669
:10CBA00043F00100FCF7CAFE0C22002101A801F0AD
:10CBB0008BFB9DF8043022686FF3000301A9A020CD
:10CBC0008DF80430FFF74AFF68B1FEF7E9FB094A28
:10CBD000094B0E499B1ADB081B04024643F0010077
:10CBE000FCF7ACFE002005B030BD0E20FBE700BF17
:10CBF000E01A002030F10100A0F10100D0EC0100AA
:10CC000016ED010062ED0100AEED0100FFED010047
:10CC1000F8B506460768FFF71FFF3368BB420546B5
:10CC20001DD9194B194C1A49E41AE408240444F09C
:10CC300002042046FCF77EFE336816493A46204639
:10CC4000FCF786FE4FF080533268D3F80C3112495E
:10CC50009B0203F100539A1A2046FCF76FFE25B998
:10CC60000E4B01221A702846F8BD2846FEF798FBA5
:10CC7000054A064B0A499B1ADB081B04024643F08F
:10CC80000100FCF75BFEEEE730F10100A0F10100CE
:10CC900052EE010081EE0100B2EE01006728002093
:10CCA000DCEE01004BDF70471FB50D4C01A8FFF70C
:10CCB000F9FF70B9214602A8FEF718FB039B002B71
:10CCC000F4D00198D3E90021904702A8FEF717FBA2
:10CCD000F4E7052801D0FCF7ABFF04B010BD00BF9E
:10CCE00014EF0100032812D8012A0BD1012908D121
:10CCF00000F10E02D2B200EB40000C4B1A5400209F
:10CD0000704700220129F6D009D3022901D007205B
:10CD10007047064B00EB400018444270EFE7034BAE
:10CD200000EB400018448270E9E700BF682800204B
:10CD300008B5012202210020FFF7D4FF08B107281F
:10CD400010D1072202210120FFF7CCFF08B10728EC
:10CD500008D100210A220846FFF7C4FF10B10728B6
:10CD600008BF002008BD000010B50388102B02D0BA
:10CD7000112B1ED010BD1A4C2168B1B901220846F2
:10CD8000FFF7B0FF08B1072824D1072202210120B4
:10CD9000FFF7A8FF08B107281CD1042202210020B8
:10CDA000FFF7A0FF08B1072814D1236801332360DF
:10CDB000E0E70B4A1368013B1360002BDAD1FFF761
:10CDC000B7FF0028D6D0074B1B68002BD2D0BDE898
:10CDD00010401847034B1B68002BE6D09847E4E748
:10CDE000782800207428002000F1804000F5E04001
:10CDF000002382B0036003680193019B02B0704777
:10CE0000F0B5514B514C1B6885B0DBB14FF48270CB
:10CE100094F82E20FFF7E8FF12B194F82F30A3B159
:10CE2000636802932389ADF80C30E36800218DF824
:10CE30000410002B44D12374236801A898470023D1
:10CE400084F82F3094F82E3003B3414B1B68EBB1BC
:10CE50004FF48070FFF7C8FF94F82D20638B91B2D8
:10CE60008B4238D95B1A21899BB26383CB1A6168E4
:10CE700001EB4301374BC3F82C16C3F830264FF4AF
:10CE80008270FFF7B1FF344B01221A60334B1B68ED
:10CE90005BB14FF48870FFF7A7FF002304A8237449
:10CEA000022300F80C3D236898472D4B1B6813B3F1
:10CEB0004FF48A70FFF798FF0023237405B0F0BD8C
:10CEC000208B608363602081E160002AB4D1214B14
:10CED00001221A60B0E7D2D1E368012184F82F1053
:10CEE0003BB1002161831B49C1F82C36C1F83026C3
:10CEF000C5E76383C3E766694FF000470125002E4D
:10CF0000DCD0B6FA86F227FA02F34632920026EA1D
:10CF1000030602F1804303F5E0431B68002BEED0CB
:10CF20001046FFF761FFA2F58C72D30882F004026D
:10CF3000C2F380028DF808308DF804508DF8092076
:10CF4000236801A89847DAE7047100407C28002094
:10CF500000710040007000400470004010710040FB
:10CF60001471004038B5204A92F82C300546002B49
:10CF700037D111601D490078C1F8F0056878C1F813
:10CF8000F405E878137482F82D30536182F82F305D
:10CF900001246FF0004382F82E0082F82C404FF4F9
:10CFA0008270C1F80833FFF71FFF4FF48070FFF75E
:10CFB0001BFF4FF48A70FFF717FFAB780C485B013B
:10CFC000DBB280F80733802303600223C1F8043307
:10CFD00092F82E300BB1C1F80443C1F8004500208F
:10CFE00038BD0820FCE700BF7C280020007000400E
:10CFF00000E100E010B52C4B1A7C02F0FF04002A7F
:10D000004FD10A79012A9CBF284AC2F8004500F195
:10D010000C0403EB4402127922B993F82D2001325B
:10D0200083F82D2003EB4403CA791A710A7A5A71E6
:10D030004B788A781B01120202F4E06203F030039D
:10D0400013430A7802F003021343CA78120302F46E
:10D05000805213430A79120402F4E02213434A79FE
:10D06000120502F4801213438A79120602F08072CC
:10D0700013430E4A02EB0014000100F18040C4F893
:10D08000183500F5E040CB790C7AC0F81445C0F8AB
:10D0900010350B79012B02D80123C2F8003500208E
:10D0A00000E0112010BD00BF7C280020007000406F
:10D0B00070B5344A147C04F0FF03002C5FD1324C6D
:10D0C000012503261574C4F80863C4F82C16C4F8A7
:10D0D000305692F82D10A9420CD91C46190101F1C5
:10D0E000804101F5E0410133082BC1F81445C1F836
:10D0F0001045F3D100F10C03000102EB430300F1F2
:10D10000804000F5E04019795B79C0F81435C0F82B
:10D1100010151D4901230B604B6042F2107301F59D
:10D120008271086808B9013BFBD14FF48070FFF7AA
:10D130005BFE4FF48270FFF757FE92F82D30012B03
:10D1400011D9104800210B0103F1804303F5E0439E
:10D150000131047F457FC3F814550829C3F81045F1
:10D1600000F10200EFD192F82E10074B29B10321F4
:10D170000020C3F80413107470BD0221F8E71120D9
:10D18000FAE700BF7C28002000700040F0B51B4F7C
:10D190008BB207EB001443EA0243C4F81C35184B6A
:10D1A00040005C6900F1010C4FF0004611F5006F82
:10D1B00026FA0CF64FF0800505FA00F50BBFB443D4
:10D1C00034435C615C610CBFC7F80853C7F8045373
:10D1D00040244FF000455969844025FA00F040F2A0
:10D1E000FF75AA42054A0BBF81430143596159614A
:10D1F0000CBFC2F80843C2F80443F0BD0070004001
:10D200007C28002010B5124B1A7CFAB900F10C01F1
:10D2100003EB4102127922B193F82D20013A83F8F1
:10D220002D2003EB410300241C715C71030103F109
:10D23000804303F5E04340F2FF72C3F8144505490B
:10D24000C3F81045FFF7A2FF204610BD1120FCE7F0
:10D250007C28002000F8FFFF38B5154B6FF0004226
:10D26000C3F80823134A8021C2F88010BFF34F8F00
:10D27000BFF36F8F104A01211160104942F2107202
:10D28000086808B9013AFBD10D4D0024C3F80045E8
:10D290002C7405EB44031B7F13B1E0B2FFF7B2FF20
:10D2A0000134082CF5D1002385F82C3038BD00BF9F
:10D2B0000070004000E100E0087000401471004080
:10D2C0007C28002030DF704731DF70471FB58DF8B4
:10D2D000070004A8002300F8013DFCF707FFFFF753
:10D2E0009FFB50B90DF10701074800F069F90648A6
:10D2F00000F05AF908B100F0E3F89DF80F00FCF7D0
:10D3000019FF05B05DF804FB08F1010007B520B175
:10D3100003280BD003B05DF804FB0F4B1B78012BE7
:10D32000F8D100F0CDF800F0D3F8F3E702A800231D
:10D3300000F8013DFCF7DAFE07480378012B05D120
:10D340000649013000F07CF800F0A8F89DF80700CD
:10D35000FCF7F0FEDEE700BFFC280020CDD2010084
:10D3600013B5124C2378F3B9114A002808BF1046B0
:10D370000288A4F8012002A800F8013DFCF7B6FEDF
:10D38000FFF74EFB30B90B49601C00F059F840B96B
:10D3900000F084F801239DF807002370FCF7CAFE13
:10D3A000002002B010BD8520FBE700BFFC28002054
:10D3B00032EF0100CDD2010010B50446FFF730FB7B
:10D3C00020B9054800F071F9207010BD2046FFF724
:10D3D00079FF0028F5D1F8E708F101002DE9F743BE
:10D3E0000024DFF8589005460E46A0460DF10700D0
:10D3F0008DF80780FCF77AFEFFF712FB074638B975
:10D4000032462946484600F031F9044600F046F815
:10D410009DF80700FCF78EFE47B131462846FFF71E
:10D4200053FF42F207039842044605D0022CDDD098
:10D43000204603B0BDE8F0830524F9E708F10100B8
:10D4400010B5124C2278FAB9114B1960037813F019
:10D45000010F104B1EBFD3F8042542F00102C3F8A0
:10D460000425D3F8002222F00102C3F800224378F9
:10D47000094A5B01DBB282F80D334FF400531360AD
:10D4800001232370002010BD8520FCE70429002023
:10D490000029002000D0004000E100E0064B0022FF
:10D4A0001A6082B01B680193019B044B0122C3F8F0
:10D4B00004231A6002B0704700D1004000D0004041
:10D4C000024A0123C2F808335360704700D000407D
:10D4D000084A0123C2F808335360074B4FF4005247
:10D4E000C3F88020BFF34F8FBFF36F8F034B002231
:10D4F0001A70704700D0004000E100E004290020CD
:10D50000074B00221A6082B01B680193019B054BF8
:10D51000D3F80805044B1B68C0B202B0184700BF1F
:10D5200000D1004000D000400029002002681368AC
:10D530005268934291BFD01A80680130801888BF2A
:10D54000C01A70472DE9F04103681F681D685B68C9
:10D550009D4284BF83680133164688465D1BC268BE
:10D560004168AE42044607FB02110CD872434046A4
:10D5700000F09FFEA3683E449E4288BF00262368B9
:10D580001E60BDE8F08105FB02F73A46404600F018
:10D5900090FEE2686168751B6A4308EB070000F0C3
:10D5A00088FE23681D60ECE7036881681A685B6881
:10D5B0008B4234BF01330023D31A5842584170477D
:10D5C000F7B5044602A8002300F8013D0D46FCF71C
:10D5D0008DFD2046FFF7E8FF10B1237C002B3DD1E5
:10D5E0002168A6684B684A68B24234BF0132002203
:10D5F0004A6038B12168A0680A68824234BF0132AB
:10D6000000220A60E2686068511E072920D8DFE81E
:10D6100001F004101F141F1F1F182A78C25420463F
:10D62000FFF784FF23689A68824200D29860002442
:10D6300015E02A8820F81320F1E72A6840F8232013
:10D64000EDE7D5E9006700EBC300C0E90067E6E756
:10D65000294602FB030000F02CFEE0E704249DF8BD
:10D660000700FCF767FD204603B0F0BDF7B506469E
:10D670000F46144600259AB102A800F8015DFCF798
:10D6800035FD3046FFF752FFA0420CD32246394603
:10D690003046FFF757FF2C469DF80700FCF74AFD80
:10D6A000204603B0F0BD0524F6E713B5044602A8F2
:10D6B000002300F8013DFCF719FD2046FFF736FF77
:10D6C00004469DF80700FCF735FD204602B010BD6A
:10D6D00008B54FF480410020FBF788FF08B1FCF744
:10D6E000A7FABDE80840FBF7BBBEA8DF7047AADF7A
:10D6F000704762DF7047FCF79BBA0288112A0B461D
:10D7000006D0502A07D0102A09D182881A80704783
:10D710004FF6FF72FAE70146184600F034BB704737
:10D72000F0B5284B93B002AA054603F11007164640
:10D7300018685968144603C40833BB422246F7D11F
:10D7400041F201030DF106013046ADF80430FFF758
:10D75000D0FF08B1FCF76CFA1C2200210BA800F0E6
:10D76000B3FD9DF82C30032243F0080300216846E6
:10D770008DF82C3000F0A8FD9DF80230012262F3F4
:10D7800042038DF8023014221123002106A88DF8DF
:10D79000013000F099FD01AB069305230893ADF825
:10D7A000243000230A9306AA2B1D0BA96888CDF804
:10D7B0001CD0FFF79CFF08B1FCF73AFA002013B029
:10D7C000F0BD00BF3CEF0100F0B5324B95B004AAAC
:10D7D000054603F11007164618685968144603C435
:10D7E0000833BB422246F7D141F204030DF10E018A
:10D7F0003046ADF80C30FFF77CFF08B1FCF718FAA3
:10D800001C2200210DA800F05FFD9DF8343001AC12
:10D8100043F00A030322002120468DF8343000F043
:10D8200053FD9DF806301294012702AC67F34203C2
:10D8300041F211160322002120468DF80630ADF882
:10D84000046000F041FD9DF80A30ADF8086067F310
:10D8500042031422002108A88DF80A3000F034FD9C
:10D8600003ABCDE908341023ADF82C30ADF82830E7
:10D87000FEF706F922300C9005F10C0308AA0DA959
:10D880006888FFF734FF08B1FCF7D2F9002015B023
:10D89000F0BD00BF3CEF0100F0B5324B95B004AADB
:10D8A000054603F11007164618685968144603C464
:10D8B0000833BB422246F7D141F205030DF10E01B8
:10D8C0003046ADF80C30FFF714FF08B1FCF7B0F9A3
:10D8D0001C2200210DA800F0F7FC9DF8343001ACAB
:10D8E00043F00A030322002120468DF8343000F073
:10D8F000EBFC9DF806301294012702AC67F342035B
:10D9000041F211160322002120468DF80630ADF8B1
:10D91000046000F0D9FC9DF80A30ADF8086067F3A8
:10D9200042031422002108A88DF80A3000F0CCFC34
:10D9300003ABCDE908340823ADF82C30ADF828301E
:10D94000FEF79EF832300C9005F1140308AA0DA9D9
:10D950006888FFF7CCFE08B1FCF76AF9002015B023
:10D96000F0BD00BF3CEF0100F0B587B000F020F93A
:10D97000184B02AA044603F11007164618685968A6
:10D98000154603C50833BB422A46F7D14FF48053EE
:10D990000DF106013046ADF80430FFF7AAFE08B1DC
:10D9A000FCF746F922464FF6FF7322F8023B01A925
:10D9B0000120FFF79AFE08B1FCF73AF92046FFF77D
:10D9C000AFFE2046FFF700FF2046FFF765FF07B0D8
:10D9D000F0BD00BF3CEF010013B502AC074B44F8AB
:10D9E000043DFEF759F82146FEF7CEFE08B1FCF7DC
:10D9F0001FF9FFF7B9FF02B010BD00BFF7D6010055
:10DA000076DF70477ADF70477CDF70478FDF7047C3
:10DA1000FCF70EB937B50546FEF736F80446FEF7B3
:10DA20002FF82B88212B3ED005D8102B26D0112B78
:10DA30000AD003B030BD3B2B01D0562BF9D11321B6
:10DA4000A888FFF7DDFF29E000220270237862F347
:10DA500000032370237862F34103237000F014FA6B
:10DA600023785A0702D423781B0704D5237843F080
:10DA700010032370DDE700F055F9DAE700F0F4F960
:10DA800000F028FA237843F0020323700A4CAB8895
:10DA90002380FEF701F82188FEF788FE0028C8D011
:10DAA000FCF7C6F8C5E702A9002321F8043DA888C1
:10DAB000FFF7ACFFF2E700BF461B002008B5037874
:10DAC0004BB9054B3B211888FFF79AFF18B1BDE809
:10DAD0000840FCF7ADB808BD461B002000B589B072
:10DAE0001C22002101A800F0EFFB00234FF4A0321C
:10DAF000CDE90132ADF812304FF4F0228DF8143038
:10DB0000084B039206930322074B8DF8102001A8BF
:10DB10000793FEF797FC08B1FCF78AF809B05DF8A7
:10DB200004FB00BFBDDA010011DA01001FB504AC2F
:10DB30001123104804F80C3D00F0D6FB0D4982B2C9
:10DB40002046FFF761FF08B1FCF772F808220DEBE1
:10DB50000200002100F0B8FB074A4FF0C87302A88A
:10DB6000CDE90223FFF74EFF08B1FCF761F804B0DE
:10DB700010BD00BF4CEF01005000A00013B5FEF730
:10DB8000D3FE08B1FCF754F802AC002344F8043D7E
:10DB900001202146FEF78EFF08B1FCF749F8204628
:10DBA000FFF736F808B1FCF743F802B010BD0000EB
:10DBB000004870478C29002008B5FDF769FF002157
:10DBC000FEF716FD18B1BDE80840FCF731B808BDF6
:10DBD00072DF704773DF704774DF704784B070B5D1
:10DBE000A6B02AAC84E80F00FDF74AFF2FA904462F
:10DBF000084600F079FA00F05DF94C23ADF80830E2
:10DC00002AAB04933C221723002108A8ADF80C305E
:10DC100000F05AFB06238DF8233002AB1193052345
:10DC20008DF80030A37F8DF80130BDF8C0308DF83D
:10DC3000073000251A0A41F60A038DF80620ADF8D0
:10DC400014303C220823294617A82F4CADF8183071
:10DC50008DF82050CDF80250CDF81CD000F034FBE8
:10DC600002238DF85C300DF1BF031893012605AB3C
:10DC700018222946204621938DF8886000F024FB65
:10DC80004FF48073BDF8C020A3824FF47A732670DE
:10DC90005343656040F27122A58193FBF2F3A360C8
:10DCA0001A4C08A8221D2168FEF700F908B1FBF7FD
:10DCB000BFFF174AA16817A8FEF7F8F808B1FBF7ED
:10DCC000B7FF114A11491348FFF782FFB8B1124D4F
:10DCD00000F07EF9C82445F001054FF47A40A847CA
:10DCE000013CFAD1BFF34F8F0C490D4BCA6802F4C7
:10DCF000E0621343CB60BFF34F8F00BFFDE726B058
:10DD0000BDE8704004B07047C8290020481B0020BF
:10DD1000541B0020581B002060EF010000ED00E0C4
:10DD20000400FA0508B5054B01211878FFF752FFEA
:10DD300018B1BDE80840FBF77BBF08BD581B0020A9
:10DD400008B5054B1878FFF747FF18B1BDE8084044
:10DD5000FBF76EBF08BD00BF581B002076DF704781
:10DD600038B51446601C05221D4600F093FA30B900
:10DD700000F08AF82B7843F001032B7038BD23782C
:10DD800001332370FAE72DE9F0410C460746FDF711
:10DD900077FE0646FDF778FE31780229054608D958
:10DDA0001321A088FFF7DAFF28B3BDE8F041FBF7A5
:10DDB0003FBFE388BA889A420BD1238A052B2FD123
:10DDC0000346324604F112013846BDE8F041FFF740
:10DDD000C7BFBA899A4210D1228A102A0DD1007881
:10DDE000C0070AD504F11201B01D00F062FA2B78C9
:10DDF00043F004032B70BDE8F081BA8A9A420FD138
:10DE0000228A082A0CD12B78DB0709D504F11201EC
:10DE100006F1160000F04DFA2B7843F00803E9E70D
:10DE200001313170E7E708B5FDF72EFE037843F0C6
:10DE30002003037008BD08B5FDF726FE037843F004
:10DE40004003037008BD000008B5054A05480021DD
:10DE5000FCF708F818B1BDE80840FBF7E9BE08BDBB
:10DE600027DE01006CEF010008B500224FF4A0315D
:10DE70000448FCF709F818B1BDE80840FBF7D8BE24
:10DE800008BD00BF801B00200148FCF727B800BF79
:10DE9000801B002008B5054A05480021FBF7E2FF7A
:10DEA00018B1BDE80840FBF7C3BE08BD37DE01006E
:10DEB00068EF010008B5002204490548FBF7E4FFBC
:10DEC00018B1BDE80840FBF7B3BE08BD0000983AA2
:10DED000601B00200148FCF701B800BF601B002058
:10DEE00008B5FBF78DFF08B1FBF7A2FEFFF7ACFF0B
:10DEF000BDE80840FFF7CEBF41DF704710B50446CC
:10DF00002046FCF75DFF00B910BDFFF7F5FFF7E70E
:10DF100008B5002204490548FCF7ACFD18B1BDE87E
:10DF20000840FBF785BE08BDB8E60100801D002053
:10DF300030B508228BB005460C460DEB02000F49A8
:10DF400000F0B7F9102229460DEB020000F0B1F9FC
:10DF50000822214608A800F0ACF90023009302AA89
:10DF600020234FF414310648FCF72AFE08B1FBF7D2
:10DF70005FFE0348FFF7C2FF0BB030BDA01B0020BF
:10DF8000801D002030B589B005460C4620236A4626
:10DF90004FF414310C48FCF7A1FD08B1FBF748FE23
:10DFA00008220A49684600F075F948B9102202A90A
:10DFB000284600F07EF9082206A9204600F079F9EB
:10DFC000012009B030BD00BF801D0020A01B002033
:10DFD00038B5012200234FF414310948FCF786FEBE
:10DFE00008B1FBF725FE0648064DFFF787FF0A2418
:10DFF00045F001054FF47A40A847013CFAD138BDFD
:10E00000801D002070EF01001FB5114C0123206816
:10E0100061688DF8033006238DF8023001AB03C32D
:10E020000022217A1970104601A98DF800208DF880
:10E030000120FEF7DFFF08B1FBF7FAFD002168467B
:10E04000FEF790FF08B1FBF7F3FD04B010BD00BF71
:10E0500076EF010007B500200DF10601FFF728F863
:10E0600008B1FBF7E5FDBDF806304FF4167213FB5F
:10E0700002F3FF2293FBF2F303EB4300400080B274
:10E080000E23A0F2A46090FBF3F0C0B203B05DF8E1
:10E0900004FB10B5FFF7B8FFFDF7F2FC0446FFF7ED
:10E0A000D9FFA077BDE81040FFF7D6B837B50446D2
:10E0B0000DF107000D46FFF77FF99DF80710A94203
:10E0C00028BF29462046FFF789F908B1FBF7B0FDC4
:10E0D00003B030BD08B50020FFF742F918B1BDE824
:10E0E0000840FBF7A5BD08BD73B50C4605460121E8
:10E0F0000DF10700FFF7DAFF02222946204600F063
:10E10000D8F86278237812F0010F4FEAA2103CD1C0
:10E110001901DB0001F0200103F008030B4351114A
:10E1200001F004010B4300F001000343237093004E
:10E1300023F03F0302F00F021A4362709DF807308C
:10E14000617825783F22B3FBF2F2C2EB82129A1A71
:10E15000D3B2C8074FEA43024FEA53062AD49800C5
:10E1600000F0C00002F01002024306F002061B019C
:10E17000324305F02D0503F0300321F030012A432E
:10E1800019432270617002B070BD99015B0121F0EA
:10E190007F0103F020030B43111101F008010B4331
:10E1A00000F0010003432370530003F0700302F0FA
:10E1B0000702C1E702F0400206F0060603F0100075
:10E1C0003243024325F056052A4322709A01DB00B0
:10E1D00002F0800203F00803134301F077010B43C0
:10E1E0006370D0E708B5074B044613B10021AFF3C5
:10E1F0000080054B1868836A03B19847204600F0F9
:10E2000089F800BF0000000080EF010070B50D4EDE
:10E210000D4CA41BA4100025A54209D10B4E0C4C9B
:10E2200000F07AF8A41BA4100025A54205D170BD0A
:10E2300056F8253098470135EEE756F825309847CF
:10E240000135F2E7781D0020781D0020781D0020A0
:10E250007C1D0020044B054A1B681B6A002B08BF6D
:10E260001346D3F8EC007047A81B00200C1C0020BC
:10E2700082B001B901A942B14BB113780B60127899
:10E28000101C18BF012002B070471046FBE76FF06A
:10E290000100F8E730B50024A24201D1002007E0D8
:10E2A000035D01340D1915F8015CAB42F4D0581B25
:10E2B00030BD10B5431E0A44914200D110BD11F883
:10E2C000014B03F8014FF7E702440346934200D1A4
:10E2D000704703F8011BF9E7034611F8012B03F817
:10E2E000012B002AF9D17047034613F8012B002AAD
:10E2F000FBD1181A0138704749B1FF2A85BF8A231C
:10E3000003600A704FF0FF3098BF01207047084645
:10E3100070470000FEE700BFF8B500BFF8BC08BCBE
:10E320009E467047F8B500BFF8BC08BC9E467047D3
:10E330000338FDD870470000219301008D93010040
:10E340001D9301007274745F6C6F675F6261636B31
:10E35000656E6400E82200207F0000006823002032
:10E360004261636B656E647320666C757368656487
:10E370000061707000000000ABE30100F4E30100F5
:10E38000B3E30100FCE3010004E401000CE401003C
:10E3900014E401001CE4010024E4010020253032D3
:10E3A0007800202020007C002563001B5B306D007E
:10E3B0002573001B5B313B33316D0025734C6F6758
:10E3C000732064726F70706564202825642925733A
:10E3D0000D0A003C25733E2025733A200000000002
:10E3E0000000000050E401002CE4010034E40100CE
:10E3F00039E401001B5B313B33306D001B5B313B6B
:10E4000033326D001B5B313B33336D001B5B313BA3
:10E4100033346D001B5B313B33356D001B5B313B8F
:10E4200033366D001B5B313B33376D007761726EA5
:10E43000696E6700696E666F00646562756700618A
:10E4400070705F627574746F6E00466174616C20E9
:10E450006572726F720053797374656D20726573A3
:10E460006574000001000600000000008023002009
:10E47000BD9C01006170705F74696D657200000081
:10E480000338FDD8704752544320696E7374616E2F
:10E49000636520616C726561647920696E69746975
:10E4A000616C697A65642E005254433A20696E6942
:10E4B0007469616C697A65642E00303132333435A9
:10E4C000363738394142434445466E72665F66735B
:10E4D000746F726167655F696E6974006E72665F02
:10E4E0006673746F726167655F72656164006E72F6
:10E4F000665F6673746F726167655F777269746572
:10E50000006E72665F6673746F726167655F6572D5
:10E5100061736500616464725F69735F70616765F0
:10E520005F616C69676E656428705F66732C20702C
:10E530006167655F616464722900616464725F6928
:10E54000735F77697468696E5F626F756E64732854
:10E55000705F66732C20706167655F616464722C04
:10E5600020286C656E202A20705F66732D3E705FD8
:10E57000666C6173685F696E666F2D3E657261736C
:10E58000655F756E6974292900705F667300257375
:10E5900020636865636B206661696C656420696EE1
:10E5A000202573282920776974682076616C756549
:10E5B00020307825782E00705F64657374006C6578
:10E5C0006E00616464725F69735F616C69676E6538
:10E5D000643332287372632900616464725F697303
:10E5E0005F77697468696E5F626F756E64732870B7
:10E5F0005F66732C207372632C206C656E2900702B
:10E600005F66732D3E705F61706900705F73726347
:10E610000021286C656E202520705F66732D3E708A
:10E620005F666C6173685F696E666F2D3E70726FB6
:10E630006772616D5F756E69742900616464725FF1
:10E6400069735F616C69676E6564333228646573F2
:10E65000742900616464725F69735F616C69676EDD
:10E6600065643332282875696E7433325F7429709B
:10E670005F7372632900616464725F69735F7769B5
:10E680007468696E5F626F756E647328705F66731D
:10E690002C20646573742C206C656E29006E726684
:10E6A0005F6673746F7261676500000000100000A0
:10E6B0000400000001000000C5AE0100A5AE01008D
:10E6C00095AE0100D5B0010089B0010067AE010030
:10E6D0006BAE010071AE0100A0F00100A0F00100DE
:10E6E000040000007077725F6D676D7400736F7265
:10E6F000746C69737400556E6B6E6F776E20657203
:10E70000726F7220636F64650000000000000000FB
:10E7100034E801000100000040E8010002000000B0
:10E720005EE80100030000007FE801000400000033
:10E7300092E8010005000000A3E8010006000000C7
:10E74000B7E8010007000000CFE801000800000062
:10E75000E7E8010009000000FFE801000A000000EE
:10E7600018E901000B00000030E901000C00000076
:10E7700047E901000D0000005BE901000E00000008
:10E780006DE901000F0000007CE9010010000000AD
:10E7900090E9010011000000A7E90100120000004B
:10E7A000B6E9010013000000CBE901008000000081
:10E7B000DFE901008100000000EA010082000000A2
:10E7C0001CEA01008300000038EA01008400000018
:10E7D00056EA01008500000077EA0100860000008B
:10E7E0009CEA010090000000B3EA010091000000E3
:10E7F000D1EA010092000000EFEA0100008200006F
:10E8000004EB01000182000022EB01000282000003
:10E810003EEB0100008400005AEB0100018400007F
:10E820007EEB010002840000A8EB010003840000DD
:10E83000CDEB01004E52465F5355434345535300C1
:10E840004E52465F4552524F525F5356435F4841C6
:10E850004E444C45525F4D495353494E47004E522A
:10E86000465F4552524F525F534F465444455649B6
:10E8700043455F4E4F545F454E41424C4544004E28
:10E8800052465F4552524F525F494E5445524E4197
:10E890004C004E52465F4552524F525F4E4F5F4DB5
:10E8A000454D004E52465F4552524F525F4E4F54B7
:10E8B0005F464F554E44004E52465F4552524F52AE
:10E8C0005F4E4F545F535550504F52544544004E85
:10E8D00052465F4552524F525F494E56414C494451
:10E8E0005F504152414D004E52465F4552524F5289
:10E8F0005F494E56414C49445F5354415445004E84
:10E9000052465F4552524F525F494E56414C494420
:10E910005F4C454E475448004E52465F4552524F59
:10E92000525F494E56414C49445F464C4147530063
:10E930004E52465F4552524F525F494E56414C49E6
:10E94000445F44415441004E52465F4552524F523B
:10E950005F444154415F53495A45004E52465F451A
:10E9600052524F525F54494D454F5554004E5246F6
:10E970005F4552524F525F4E554C4C004E52465FCF
:10E980004552524F525F464F5242494444454E0011
:10E990004E52465F4552524F525F494E56414C4986
:10E9A000445F41444452004E52465F4552524F52DA
:10E9B0005F42555359004E52465F4552524F525F87
:10E9C000434F4E4E5F434F554E54004E52465F45A7
:10E9D00052524F525F5245534F5552434553004E8A
:10E9E00052465F4552524F525F4D4F44554C455F22
:10E9F0004E4F545F494E495449414C495A45440091
:10EA00004E52465F4552524F525F4D555445585FE6
:10EA1000494E49545F4641494C4544004E52465F79
:10EA20004552524F525F4D555445585F4C4F434BE2
:10EA30005F4641494C4544004E52465F4552524F55
:10EA4000525F4D555445585F554E4C4F434B5F46B2
:10EA500041494C4544004E52465F4552524F525F29
:10EA60004D555445585F434F4E445F494E49545F9E
:10EA70004641494C4544004E52465F4552524F5222
:10EA80005F4D4F44554C455F414C52454144595FA1
:10EA9000494E495449414C495A4544004E52465FFB
:10EAA0004552524F525F53544F524147455F46556E
:10EAB0004C4C004E52465F4552524F525F415049B6
:10EAC0005F4E4F545F494D504C454D454E54454463
:10EAD000004E52465F4552524F525F464541545593
