:020000022000DC
:1060000000000120B5620200DD620200DF620200D2
:10601000E1620200E3620200E562020000000000AB
:10602000000000000000000000000000E762020025
:10603000E962020000000000EB620200ED62020073
:10604000198A0200EF620200498D0200A5BA02001F
:10605000EF620200EF6202007D8A020031AE0200B0
:10606000EF620200EF620200EF620200EF620200E4
:10607000EF6202007DB80200EF620200EF620200F0
:10608000EF62020011790200EF620200EF6202008B
:10609000EF620200EF620200759F0200EF620200F1
:1060A000EF620200EF620200EF620200EF620200A4
:1060B000EF620200EF62020000000000000000003A
:1060C000EF620200EF620200EF620200EF62020084
:1060D000EF620200EF620200EF62020000000000C7
:1060E00000000000000000000000000000000000B0
:1060F00000000000000000000000000000000000A0
:10610000000000000000000000000000000000008F
:10611000000000000000000000000000000000007F
:10612000000000000000000000000000000000006F
:10613000000000000000000000000000000000005F
:10614000000000000000000000000000000000004F
:10615000000000000000000000000000000000003F
:10616000000000000000000000000000000000002F
:10617000000000000000000000000000000000001F
:10618000000000000000000000000000000000000F
:1061900000000000000000000000000000000000FF
:1061A00000000000000000000000000000000000EF
:1061B00000000000000000000000000000000000DF
:1061C00000000000000000000000000000000000CF
:1061D00000000000000000000000000000000000BF
:1061E00000000000000000000000000000000000AF
:1061F000000000000000000000000000000000009F
:1062000010B5054C237833B9044B13B10448AFF3F0
:1062100000800123237010BD18250020000000001D
:1062200004D8020008B5034B1BB103490348AFF380
:10623000008008BD000000001C25002004D80200DA
:10624000154B002B08BF134B9D46A3F5803A002148
:106250008B460F461348144A121A06F019FB0F4BCF
:10626000002B00D098470E4B002B00D09847002001
:10627000002104000D000D48002802D00C48AFF3A7
:10628000008006F0A7FA2000290002F07FFD06F04A
:106290008DFA00BF0000080000000120000000008F
:1062A0000000000018250020A4310020000000009C
:1062B000000000000649074A074B9B1A03DD043B18
:1062C000C858D050FBDC02F0DFF9FFF7B9FF00003F
:1062D00050D902006022002018250020FEE7FEE7CA
:1062E000FEE7FEE7FEE7FEE7FEE7FEE7FEE7FEE786
:1062F000704700BF00B583B0044B0093044A4023AD
:1063000000F036F803B05DF804FB00BF156302002F
:106310003825002002B32DE9F843114B114E884671
:10632000144643F0010903270025224608EB050126
:10633000002002F0E7FD03461D444FF47A40E41AC2
:1063400023B9337833B1C847013F06D001233370F6
:10635000002CEAD1BDE8F88370473770BDE8F883B8
:1063600000C9020034250020704700BF02F07EBE45
:10637000F0B595B0002415460F4608461E4602F0BB
:1063800029F8384623460895082205A91A9D09963A
:106390000D950A948DF82C400C9402F075F89DF838
:1063A00014308DF81140DDE9061003F00302012AD4
:1063B000CDE9020127D0022A04D0384602F00EF8B7
:1063C00015B0F0BDBDF81650C3F3C2038DF8103000
:1063D000AD090826082D2C4628BF0824334622463E
:1063E0000EA9384602F050F82D1B214608AB02AA30
:1063F0000EA8264400F000FD002DEBD1384601F038
:10640000EDFF15B0F0BDBDF81460059DC6F3831611
:10641000C3F3C204B2000EA9384608238DF8104019
:10642000C5F3952502F030F808AB324628460EA990
:10643000009302AB00F03AFC384601F0CFFF15B0F4
:10644000F0BD00BF08B5FFF791FF0421034800F03D
:10645000E5FB034B01225A7108BD00BF38D9020089
:1064600060220020F0B52F4C85B004F5836001F068
:1064700071FB04F2144001F06DFBA368DAB2D01C8A
:1064800004EB800114F8200010F0040041D09F1CA0
:106490000E7806F00306012E3D4633D0022E02F19F
:1064A000030621D004EB86010028F1D104EB82021F
:1064B0000133D2680192DBB204EB830302F00302E2
:1064C000012ADE6827D0022A21D1BDF806309B09B7
:1064D0000333360C05EB9305134801F047FB00B17D
:1064E000A560304605B0F0BD4B8807EB9313DAB2D8
:1064F000D11C9F1C14F821003D4604EB810100F0E3
:106500000400D1E70B88C3F383133B44EFE7002675
:10651000E2E79D1CCAE7BDF80430C3F38313360CD1
:106520001D44D9E7482600205C2A0020064B074876
:1065300010B500221A7001F009FF044610B9044892
:1065400002F016F8204610BD48260020E8D80200C8
:1065500024C9020021B9124B03EBC0000068704748
:10656000104A0F49521AD20815D030B40E4D2B885C
:10657000834212D0002303E035F82340844205D043
:1065800001339A42F8D1002030BC704701EBC300C0
:10659000006830BC7047104670470846F8E700BFF7
:1065A00048D80200E8D8020000250020094B013934
:1065B00003EBC00003290BD8DFE801F00208060452
:1065C0000220704740797047007970470420704777
:1065D0000020704748D80200704700BF2DE9F04105
:1065E00082B002AB002203F8012D334C0746184657
:1065F000884600F0FDFFD4E9015303F580735B1B6F
:10660000012B56D804F21C460121304601F07EFAD7
:10661000FFF728FF0146304601F078FAD4E901235C
:1066200003F580739B1A012BEED9D3B203330232E8
:1066300005219DF8070044F82310626000F0FEFF7A
:1066400000211E4801F040FA80F310006B1CDBB201
:1066500004EB83030004EDB2033540EA1740D86031
:1066600014F8253067F3C50304F8253034F82530D5
:106670006FF3891324F8253054F8252068F39F22FE
:106680001346012161F301036FF3820344F82520CF
:1066900004F8253023781BB906E000F011F818B192
:1066A000D4E901329A42F8D1FFF796FF02B0BDE873
:1066B000F0812A46B9E700BF48260020642A00205E
:1066C0002DE9F0438A4C002385B0C4F81834BFF399
:1066D0004F8FA568EAB2D31C04EB830114F8233072
:1066E000580718D566680B7803F00303012B42D0D6
:1066F000022B03D14B88023505EB9315EAB2D4F88F
:106700001804D31C04EB830128B9AE4239D914F81C
:1067100023305B07E7D404EB82026B1CD268019242
:10672000DBB204EB830302F00302DB680293022A6C
:1067300005F1020600F08C80012A26D0D4F810540E
:106740003DB12B6828469B689847EB681D68002D73
:10675000F7D16848684B6949C01AC008000440F086
:106760000200FFF73BFFD4E90130C01A18BF012037
:1067700005B0BDE8F0830B880235C3F383131D44D5
:10678000BCE7A66005B0BDE8F083BDF804205C4816
:10679000C2F38313062B28BF062363F38912023347
:1067A0009900ADF8042001F0D3FD07460028C5D0BC
:1067B00001F010FE0023082201A9384601F030FE46
:1067C000BDF8043013F4707F00F08F806FF0010982
:1067D000A9EB05090825F1B203312B46042204EB8D
:1067E0008101384601F01CFEBDF8043006F10108B5
:1067F00009EB0802C3F383139342464605F10405EF
:10680000E9D8D4F81834002B65D1D4F8105465B108
:10681000EB685A7928463946002A58D02B681B68FD
:106820009847EB681D68002DF2D1384601F0D6FD7F
:1068300004A8002300F80D3D00F0DAFED4F8183467
:106840000BB9C4F808809DF8030000F0F7FE8AE752
:10685000BDF806302A484FEA93194D46502D28BFFF
:10686000502565F38F1305F10801ADF8063001F0EE
:106870006FFD074600283FF461AF6FEA06085FFA34
:1068800088F801F0A7FD08F1010801A900230822FA
:10689000384601F0C5FD4FEA8808F1B2033145459D
:1068A00004EB81011BD9A5EB0805082342463846B5
:1068B000EDB201F0B5FD2A4608F10803114938464A
:1068C00001F0AEFD09F1030806EB980899E71D6891
:1068D000002D9DD1A9E7384601F080FD43E72A4607
:1068E0000823384601F09CFDECE7B04689E700BF7D
:1068F0004826002088D8020048D8020030C902008B
:10690000E8D80200542600202DE9F04383B002AB02
:10691000002403F8014D364C074618468846914638
:1069200000F066FED4E9015303F580735B1B022B74
:106930005CD804F21C460121304601F0E7F8FFF76D
:1069400091FD0146304601F0E1F8D4E9012303F559
:1069500080739B1A022BEED9D3B203334521033245
:1069600044F823109DF80700626000F067FEAB1C3E
:10697000DBB204EB830300211E48C3F80C9001F046
:10698000A3F880F310006B1CDBB204EB830300045C
:10699000EDB2033540EA1740D86014F8253067F3AC
:1069A000C50304F8253034F82530012161F389133B
:1069B00024F8253054F8252068F39F22134661F30C
:1069C00001036FF3820344F8252004F8253023786F
:1069D0001BB906E0FFF774FE18B1D4E901329A4200
:1069E000F8D1FFF7F9FD03B0BDE8F0832A46B3E71D
:1069F00048260020642A00202DE9F04782B002AD2D
:106A0000002405F8014D3A4C074628469946884629
:106A1000924600F0EDFDD4E9015303F580735B1B52
:106A2000032B63D804F21C460121304601F06EF8B6
:106A3000FFF718FD0146304601F068F8D4E901235C
:106A400003F580739B1A032BEED9D3B20333852150
:106A500044F8231004329DF80700626000F0EEFD58
:106A6000AA1CEB1CD2B2DBB204EB820204EB830360
:106A700000212048C2F80CA0C3F80C9001F024F8C3
:106A800080F310006B1CDBB204EB83030004EDB257
:106A9000033540EA1740D86014F8253067F3C50382
:106AA00004F8253034F82530022262F3891324F8E3
:106AB000253054F8252068F39F221346012161F305
:106AC00001036FF3820344F8252004F8253023786E
:106AD0001BB906E0FFF7F4FD18B1D4E901329A4280
:106AE000F8D1FFF779FD02B0BDE8F0872A46ACE7A0
:106AF00048260020642A00202DE9F04B82B002AD28
:106B0000002405F8014D3D4C804628461F46894625
:106B1000934600F06DFDD4E9015303F580735B1BD0
:106B2000042B68D804F21C460121304600F0EEFF29
:106B3000FFF798FC0146304600F0E8FFD4E9012356
:106B400003F580739B1A042BEED9D3B20333C5210E
:106B500044F8231005329DF80700626000F06EFDD6
:106B6000A81CEA1C2B1DC0B2D2B204EB800004EBBF
:106B70008202DBB204EB8303C0F80CB00021D760C3
:106B80001F480A9ADA6000F09FFF80F310006B1C28
:106B9000DBB204EB83030004EDB2033540EA184096
:106BA000D86014F8253068F3C50304F8253034F8AC
:106BB0002530032262F3891324F8253054F8252068
:106BC00069F39F221346012161F301036FF38203EE
:106BD00044F8252004F8253023781BB906E0FFF798
:106BE0006FFD18B1D4E901329A42F8D1FFF7F4FCF5
:106BF00002B0BDE8F08B2A46A7E700BF4826002078
:106C0000642A0020044BD3E901239A4201D0FFF704
:106C100057BD0020704700BF4826002030B4184DF3
:106C2000D5F8104400215CB1E3681A798A4204D196
:106C300016E0DB681A798A4212D01B68002BF8D163
:106C4000C3681971D5F8103493B1DA68C368126853
:106C50001A60D5F81034DB68186030BC08467047FD
:106C600001310A29DFD14FF0FF31084630BC7047AF
:106C7000C5F81004C2681360084630BC704700BFF6
:106C80004826002038B5084BD3F8104401251D7064
:106C90004CB1E3685D71236820465B689847E36800
:106CA0001C68002CF5D138BD482600202DE9F0479E
:106CB00084B01D460C9C002394F80C802373EB8851
:106CC00081460E461746002B40D1297A05290ED061
:106CD0006B7AA88873BB404B53F821A00021FFF7C3
:106CE00039FC524603463D49204600F0B7FF062FC7
:106CF00009D8DFE807F0046A4249525D330049468B
:106D0000204600F0ABFF2B7A052B05D06B7A5BB9E0
:106D10003349204600F0A2FF204600F093FF84F89C
:106D20000C8004B0BDE8F0872E4A2F49204600F0C1
:106D300095FFEDE7FFF73AFC2C4B2B4953F8202049
:106D4000204600F08BFF297AA888C4E7254A0092E4
:106D50002749284A204600F081FFB6E7D6E904100B
:106D6000D6E900230390D6E902070291CDE9000796
:106D70004946204600F072FFC5E74946D6E90023A0
:106D8000204600F06BFFBEE7B168D6E9002320463D
:106D90000091494600F062FFB5E7D6E90201D6E965
:106DA0000023019100904946204600F057FFAAE7D2
:106DB000D6E90371B068D6E900230291CDE9000756
:106DC0004946204600F04AFF9DE732684946204682
:106DD00000F044FF97E700BFBCC90200ACC9020045
:106DE000B8C90200A0C90200A8C9020048C902002F
:106DF00088C9020080C90200082900D970472DE91E
:106E0000F04F1D46904600232A7B2B7385B0B8F8BF
:106E10000630039207460E46002B7BD198F80810E7
:106E2000052911D098F80930B8F80400002B63D177
:106E30003C4B53F821400021FFF78CFB22460346D0
:106E40003949284600F00AFFDFF8FCB0DFF8FC9073
:106E5000002405E03A5D013400F000FF082C09D061
:106E6000A64249462846F5D85946013400F0F6FEB8
:106E7000082CF5D12D49DFF8D8B0DFF8D890284696
:106E800000F0ECFE00240CE017F804A0BAF17E0F2D
:106E900023D92E2249462846013400F0DFFE082C73
:106EA00008D0A642F0D859462846013400F0D6FE54
:106EB000082CF6D198F80830052B02D098F8093044
:106EC000A3B91B49284600F0C9FE284600F0BAFEC7
:106ED000039B2B7305B0BDE8F08F05F09FFC504479
:106EE0005246437813F0970FD3D0D3E7114A124993
:106EF000284600F0B3FEE4E7FFF758FB0F4B0E49BE
:106F000053F82020284600F0A9FE98F80810B8F899
:106F100004008DE7074A009209490A4A284600F012
:106F20009DFE7BE7BCC90200ACC9020078C9020023
:106F3000B8C90200A0C90200A8C9020048C90200DD
:106F400088C9020080C9020074C902006CC902002D
:106F5000B4C902007CC9020000B585B000230390CB
:106F6000194601AA44F20100CDE9013300F004F80A
:106F700005B05DF804FB00BF10B572B6FFF782FEE6
:106F8000FFF740FE0028FBD1104B114C1149E41AC9
:106F9000E408240444F00100FFF720FB0E4B1B68BB
:106FA000DB0700D500BE44F002000C49FFF716FBDA
:106FB000BFF34F8F0A490B4BCA6802F4E0621343D8
:106FC000CB60BFF34F8F00BFFDE700BF48D8020082
:106FD00088D8020034CA0200F0ED00E040CA020086
:106FE00000ED00E00400FA05D0E90223D1E9020136
:106FF000994208BF90422CBF01200020704700BF7B
:107000002DE9F04F87B0029000F03EFC40B1B84946
:10701000D1E9002312F1807443F10005C1E9004574
:1070200000210298DFF8E48200F04AFC002800F01A
:10703000D080D8F80030002B00F0CB80AD4BD8F8D2
:1070400000401B783BB334B3AB4800F04BFCA84A7C
:10705000AA4BD2E90067D3E9002316EB000947F1F8
:10706000000A9A4508BF91454846514603D219F196
:1070700080704AF10001D4E90223994208BF90428E
:1070800080F08581013308BFB2F1FF3F03D0214674
:107090009B4801F091FA05AB03930023012102986C
:1070A000C8F8003000F00CFC002800F09B809248EB
:1070B000924E00F017FC8E4BD3E90045D6E9002331
:1070C00014EB000945F1000A9A4508BF914548466E
:1070D000514603D219F180704AF10001039FC6E9BD
:1070E00000013946874800F093FC002840F0828078
:1070F000DFF80C92804DDFF8F8A1484601F076FAEF
:1071000000285ED0D0E902235F1C08BFB2F1FF3F28
:1071100000F0EA80D8F80010B1B1D8F80010D1E939
:1071200002018B4208BF824280F09C80D8F8003078
:10713000D3E90223013308BFB2F1FF3F04D0D8F8EE
:107140000010484601F038FA484601F049FA044672
:10715000D4E902232846CDE9002300F0C3FBDAE995
:107160000023664E121843F1000393469C46D6E96D
:1071700000239C4508BF9345DDE9002303D21BF1A2
:10718000807B4CF1000CB2EB0B0063EB0C0101288F
:1071900071F1000769DB5C4FB84200F294804FF454
:1071A00016030021284600F0E9FA002854D00D28E3
:1071B0005FD000234846C8F8003001F017FA0028D5
:1071C000A0D1D8F80030002B4CD1029800F0ACFAD6
:1071D00048E005AB01210298039300F071FB002801
:1071E0007FF465AF039F4748394600F011FC002843
:1071F0003FF47EAF0378434E012B4FF0FF344FF046
:10720000FF3520D064D3022B0FD1DFF8F49048462D
:1072100001F0E6F930B1C0E90245484601F0E0F975
:107220000028F8D1334B01221A703946304600F05D
:107230001DFC3946304600F0EBFB00283FF458AF08
:107240000378012BDED14168D8F80030994263D031
:107250002B4801F0CFF9E8E7D8F80030002B57D0E1
:10726000C8F8004007B0BDE8F08F0021284600F0C4
:107270001BFB204B1B78002B9BD0284600F032FBD9
:10728000DAE90023D6E9006712EB000B43F1000CAA
:10729000BC4508BFB3455846614603D21BF1807018
:1072A0004CF10001D4E90223994208BF904237D241
:1072B000013308BFB2F1FF3F3FF47BAF21464846A0
:1072C00001F07AF975E7284600F00CFBC21966E771
:1072D0004168D1E90223013308BFB2F1FF3FA4D0D6
:1072E000074801F069F9A0E7484601F079F904E799
:1072F000082B0020102B002068220020802B00206B
:1073000050CA02006C2B0020FFFF6900882B002070
:10731000029800F005FAA3E70023C8F8003084E7DC
:10732000002303988DF8143000F062F923692BB91B
:107330004FF0FF324FF0FF33C4E902239DF81400F1
:1073400000F07CF9D4E905309847002303988DF8C4
:10735000143000F04DF92369A3B1D4E90212561C90
:1073600008BFB1F1FF3F9DF814000DD0CE1842F1D7
:107370000007C4E9026700F061F92146484601F0C0
:107380001BF916E79DF8140000F058F911E706AB59
:107390001A46002302F8043D1046039200F028F933
:1073A00023692BB94FF0FF324FF0FF33C4E90223BA
:1073B0009DF8140000F042F9D4E905309847002305
:1073C00003988DF8143000F013F9216921B99DF864
:1073D000140000F033F960E6D4E90256731C08BFCC
:1073E000B5F1FF3F9DF814000BD06A1846F1000379
:1073F000C4E9022300F022F92146034801F0DCF839
:107400004BE600F01BF948E650CA020030B583B0E5
:107410000724002508235822124913488DF80640F6
:10742000ADF8045000F07EFA044610B1204603B0D7
:1074300030BD0E4A0E4801A900F018F90446002894
:10744000F4D101210A4800F015FA01231946094A2E
:10745000074800F06DF9084B012220461A7003B06E
:1074600030BD00BF142B00206C2B002001700200E7
:1074700068220020FFFF7F00102B00208AB130B46B
:10748000A1F101010368B1FA81F14FF0FF344FF02F
:10749000FF354909C3E90412C3E90245002030BCA5
:1074A00070470720704700BF2DE9F04F83B002AD51
:1074B000002405F8044D8246284617460E4600F083
:1074C00097F8DAE90223013308BFB2F1FF3F07D092
:1074D0009DF8040000F0B2F8204603B0BDE8F08F3C
:1074E000204800F0FFF9204B2049D3E90023D1E9DF
:1074F000008912EB000B43F1000CCC4508BFC345DB
:107500005846614603D21BF180704CF1000183198B
:1075100041F10004CAE902349DF8040000F08EF83D
:10752000DAF81030CAF818700BB1CAF810602946A2
:107530000F4800F031FA80B10024C0F804A00470B4
:1075400029460B4800F054FA0028C6D0054800F040
:10755000CDF9204603B0BDE8F08F042003B0BDE8AC
:10756000F08F00BF68220020082B0020802B002015
:107570006C2B002070B582B002AC002504F8045DCD
:107580000646204600F034F8D6E90223013308BF4E
:10759000B2F1FF3F18D04FF0FF324FF0FF339DF8AC
:1075A0000400C6E9022300F049F821460E4800F025
:1075B000F3F980B101234660037021460A4800F0C8
:1075C00017FA58B902B070BD9DF8040000F036F803
:1075D000284602B070BD042002B070BD034800F020
:1075E00085F92846EEE700BF6C2B002068220020BA
:1075F00070B4EFF3108472B60D4B9A68AAB90D49B6
:107600000D4E01259D60D1F8805035401D60C1F8B8
:107610008060D1F884505D604FF0FF33C1F8843052
:10762000027004B962B670BC704701230370F8E7BA
:10763000AC30002000E100E0FC06FFBD094B9A6879
:107640007AB170B910B4EFF3108172B6064A1C68B3
:1076500014605C685460986001B962B65DF8044BD0
:1076600070477047AC30002000E100E0F8B5244ED0
:107670004579244C244B254F9B1B04EBC506DB08A6
:10768000367947F825201B0496BB02680D88C2F89E
:10769000085590F904208978002A21DB02F1604224
:1076A00002F561424901C9B282F8001390F9042041
:1076B000002A07DB164D02F01F0601215209B140D6
:1076C00045F822104279134944F8320004EBC20411
:1076D00043F0030001232371FEF780FF0020F8BD73
:1076E0000D4D02F00F0249011544C9B22976DDE7BC
:1076F00043F002000949FEF771FF0820F8BD00BF02
:1077000048D802008C2B002098D80200942B00202F
:1077100000E100E09CCA0200FCEC00E078CA020034
:10772000036801221A607047036801225A6070479B
:10773000F0B404684FF480358D40C4F808530668EF
:107740008C00C6F8485304F5A0740668A4B200275C
:10775000375182B036590468019601F5A87122F0BC
:107760007F42019E44F821200268C2F8445313B1BD
:107770000368C3F8045302B0F0BC70472DE9F0472A
:1077800088464FF48037016807FA08F7C1F8487354
:107790000168C1F80873064600684FEA88040119B9
:1077A000D0F80455D1F84005C1F8405504F5A0744F
:1077B000A4B231684FF0000941F8049082B0401B38
:1077C0000959009120F07F4001289A4622F07F4518
:1077D000009B0BD1264B4FF4806043F00103984788
:1077E000336843F804901B590193019B3368D3F825
:1077F0000445C3F844732B1B23F07F43012B08F58A
:10780000A87817D130681A4B013540F8285043F05A
:1078100001034FF4806098473268D2F804359C42E7
:1078200022D1C2F8447333680020C3F8047302B055
:10783000BDE8F087336843F828503268D2F8041561
:107840006B1ACAF1FF1A013B0AF57F4A23F07F4306
:107850009A4509D3002BE4D1013542F8285032680B
:10786000D2F804359942DCD00D2002B0BDE8F08793
:1078700070CA020002680223C2F8443311B10268E0
:10788000C2F80433704700BF0368D3F8040150B155
:10789000002282B0C3F80421D3F804310193019B84
:1078A000012002B0704770474FF48033026803FA3A
:1078B00001F1C2F848130368C3F80813704700BF0A
:1078C000890001F5A07189B20368585840B10022BF
:1078D0005A5082B05B580193019B012002B070475F
:1078E000704700BF0368D3F80405704790F904306F
:1078F000002B09DB5A09403203F01F030121034822
:1079000001FA03F340F82230704700BF00E100E0C5
:10791000024A034B10681B68184700BF8C2B0020DD
:10792000942B002099B110B4B2FBF3F403FB1424A0
:10793000A4B244B9C0E9001484608281C3812046A6
:107940005DF8044B704709205DF8044B70470E202A
:10795000704700BF82B050E8022FC188B2EB324FAF
:107960004FF0000317BF92B241EA014142EA0141E0
:1079700004E04268B2EB324F08BF012340E8021234
:10798000002AE8D18DF807309DF80730002B0CBF96
:107990001120002002B0704730B482B050E8013F9F
:1079A0009DB2C48925448489A54228BF2D1B048922
:1079B000A54202BFBFF32F8F002207E0C5EA0305EF
:1079C00040E80154002CE9D14FF001028DF803206A
:1079D0000193019B9DF803200B602AB10B8800687E
:1079E000184402B030BC704702F0FF031846F8E7B5
:1079F0000A884B889A4201D00020704750E8012F36
:107A0000C2EA024240E80123002BF7D1012070476F
:107A100030B482B050E8023F1FFAA3F5C488A542F3
:107A200002BFBFF32F8F00220DE0C4892544848953
:107A3000A54228BF2D1BC3EA054540E80254002C8F
:107A4000E8D14FF001028DF803200193019B9DF8CE
:107A500003200B602AB14B880068184402B030BC88
:107A6000704702F0FF031846F8E700BF0A884B880A
:107A70009A4201D00020704750E8022FC2EA224209
:107A800040E80223002BF7D10120704701F01F02CC
:107A90004B09012100EB8300914000F01FB800BFAB
:107AA00001F01F0201234909934000EB8100D943F3
:107AB00000F020B84B0901F01F0150F82300C84026
:107AC00000F00100704700BF50E8002F0B4640E86F
:107AD000003C9CF0000FF7D11046704750E8003F83
:107AE00043EA010240E8002C9CF0000FF6D110465A
:107AF000704700BF50E8003F03EA010240E8002C55
:107B00009CF0000FF6D11046704700BF50E8003FD0
:107B100003EB010240E8002C9CF0000FF6D1104668
:107B2000704700BF50E8003FA3EB010240E8002C83
:107B30009CF0000FF6D11046704700BF012350E8BB
:107B400000CF4CEA030240E8002191F0000FF6D18B
:107B500060467047012350E8002F42EA030C40E8DA
:107B600000C191F0000FF6D160467047002350E845
:107B700000CF0CEA030240E8002191F0000FF6D19B
:107B800060467047B8B130B4D0E90112521A0468A7
:107B9000D2B2531E2160DBB242B101680A685C1E9A
:107BA000551C0D601370E3B2FF2BF6D10368002063
:107BB000187130BC70470E20704700BFF0B583B01D
:107BC00002AB002503F8015D04461846FFF710FDDF
:107BD000D4E900311A688A4210D9511E196021680F
:107BE000A3680F6812F8015C0A79268AE068DB1B3B
:107BF000DBB29A4206FB050538BF0B719DF8070002
:107C0000FFF71CFD284603B0F0BD00BF30B583B0C0
:107C100002AB002203F8012D054618460C46FFF77B
:107C2000E7FC2A681368591C1160E9682A8A641AFB
:107C3000B4FBF2F41C709DF80700FFF7FFFC03B0E3
:107C400030BD00BF826842B110B504464369016887
:107C5000006998470023A36010BD70470EB400B5BB
:107C600082B0039929B102AA04AB42F8043D00F0A6
:107C70008BF802B05DF804EB03B070472DE9F84FC4
:107C800088469045174605461E46DDE90AB175D37C
:107C900043464FF00109B3FBF7F39F4209F1010995
:107CA000F9D9B14538BFB14611F0010AAA6802D12D
:107CB000BBF1000F43D1012402E0013E07FB04F4B5
:107CC000012EFAD8B8FBF4F18F42F7D92D4E05E01A
:107CD000B4FBF7F4A4B1B8FBF4F1AA68705C531CD0
:107CE000AB602B689854D5E901329A4204FB1188A5
:107CF000EED32846FFF7A6FFB4FBF7F4002CEAD139
:107D0000BAF1000F15D0BBF1000F12D0CB4510D93E
:107D10002024AB682A68591CA960D454D5E90132E3
:107D20009A420BF1FF3B06D2BBF1000F01D0CB45CD
:107D3000EFD1BDE8F88F2846FFF784FFF4E78B0703
:107D400017D42024CB45B6D92B68511CA9609C546C
:107D5000D5E901329A420BF1FF3B05D2BBF1000F8E
:107D6000A9D0CB45F0D1A6E72846FFF76BFFAA685C
:107D7000F4E7002E0CBF30242024E3E74FF0010984
:107D80008FE700BFB0CA0200002900F0F4812DE99E
:107D9000F04F054685B092460C460B78DFF8A8B543
:107DA00001E0237893B1013483B1252B15D0AA6863
:107DB0002968501CA8608B54D5E901329A42F0D34F
:107DC0002846FFF73FFF2378002BECD12B7B002BBD
:107DD00040F0148105B0BDE8F08F2146002711F86E
:107DE000012B2D2A00F0E180302A00F0E2802B2ABE
:107DF00000F0D2802A2A00F0E080A2F13006F3B22F
:107E0000092B03D9B8E1A3F130060146084606EB79
:107E1000860310F8012BA2F13004092C02EB430376
:107E2000F1D92E2A00F0D5800023013101E011F8AC
:107E3000012B02F0FB0068280C46F8D0253A532AA3
:107E4000AFD801A151F822F009800200A37D020001
:107E5000A37D0200A37D0200A37D0200A37D02009A
:107E6000A37D0200A37D0200A37D0200A37D02008A
:107E7000A37D0200A37D0200A37D0200A37D02007A
:107E8000A37D0200A37D0200A37D0200A37D02006A
:107E9000A37D0200A37D0200A37D0200A37D02005A
:107EA000A37D0200A37D0200A37D0200A37D02004A
:107EB000A37D0200A37D0200A37D0200A37D02003A
:107EC000A37D0200A37D0200A37D0200A37D02002A
:107ED000A37D0200A37D0200A37D0200A37D02001A
:107EE000A37D0200A37D0200A37D0200A37D02000A
:107EF000A37D0200A37D0200A37D0200A37D0200FA
:107F0000A37D0200A37D0200A37D0200A37D0200E9
:107F1000A37D020023800200A37D0200A37D020056
:107F2000A37D0200A37D0200A37D0200A37D0200C9
:107F3000A37D0200A37D0200A37D0200A37D0200B9
:107F40003D8002005F800200A37D0200A37D02004D
:107F5000A37D0200A37D02005F800200A37D0200DA
:107F6000A37D0200A37D0200A37D0200A37D020089
:107F7000A37D0200AF800200A37D0200A37D02006A
:107F800023810200A37D02005D810200A37D020027
:107F9000A37D02002380020047F004070C4621461F
:107FA00011F8012B2D2A7FF41FAF47F001070C4673
:107FB000F5E747F002070C46F1E7DAF800301A1D42
:107FC000CAF8002062781E682E2A04F102007FF4AD
:107FD0002BAF4A78A2F13003092B00F25081002325
:107FE00003EB830302EB430310F8012FA2F13001EE
:107FF0000929A3F13003F3D9014616E7284605B055
:10800000BDE8F04FFFF71EBEAB682A68591CA96097
:108010004FF02501D154D5E901329A42FFF4C1AEA7
:10802000CEE6DAF80020111DCAF8001011682846C3
:10803000CDE900671022FFF721FEB2E6DAF8002052
:10804000131DCAF80030AB6829681278581CA86064
:10805000CA54D5E901329A42FFF4A3AEB0E6DAF889
:108060000020111DCAF80010D2F8008088EAE872DA
:10807000A2EBE872092A4FF0010107DDB148A0FB2D
:108080000202D208092A01F10101F7DC994238BF46
:108090001946894607F00202002E71D12AB1002B41
:1080A00000F04B81FA0700F18D8000268AE0DAF8B3
:1080B0000020131DCAF80030AB6829681768581CE7
:1080C0003022A860CA54D5E90123934280F02C8164
:1080D0002A68581C7821A860D154D5E9012393421D
:1080E00080F01D810F2F03D93A4612090F2AFCD8C0
:1080F0004FF0805603E036093FF453AEAB68296871
:10810000B7FBF6F2581CA8601BF80200C854D5E96A
:108110000131994206FB1277EDD32846FFF792FD15
:10812000E9E7DAF800301A1DCAF80020D3F8008019
:10813000FB077ED54746A7EB080917F8013B002B44
:108140005DD0AA682968501CA8608B54D5E901321B
:108150009A42F0D32846FFF775FDECE7DAF80020E5
:10816000111DCAF8001011682846CDE900670A22DF
:10817000FFF784FD15E6704708460026214650E6C5
:10818000B8F1000F01DB780700D5013E02B1CBB199
:10819000F90717D4002E88D0B14513D220220393BB
:1081A000A9682B68481CA8605A54D5E90131994246
:1081B00006F1FF365DD2002E00F0C180B145EFD14F
:1081C000039B4E46B8F1000FC0F296807A070AD59D
:1081D000A9684A1CAA602A682B205054D5E90121BD
:1081E000914280F0968007F00302022A5FD0CDE929
:1081F000006741460A222846FFF740FDD1E54E457B
:108200007FF6CFAD202705E04E453FF4CAAD002EE6
:108210003FF4C7ADAB682A68591CA960D754D5E9AB
:1082200001329A4206F1FF36EED32846FFF70AFDE7
:10823000EAE7B8F1000F24D0404604F039FB0746C6
:10824000BE4220D9FEB14FF0200902E0BE421AD052
:10825000CEB1AB682A68591CA96002F80390D5E931
:1082600001329A4206F1FF36F0D32846FFF7EAFCC6
:10827000ECE728460292FFF7E5FC029A9BE70146ED
:10828000D2E54746DCE708F1FF3818F8013F002B3C
:108290003FF487ADAA682968501CA8608B54D5E9C3
:1082A00001329A42F1D32846FFF7CCFCEDE7002BD0
:1082B0009DD1002E3FD0B14599D2029323464C4622
:1082C000B1461E46AA682B68501C4FF03001A860CA
:1082D0009954D5E901329A4209F1FF3908D2B9F12E
:1082E000000F26D04C45EDD13446029B4E467EE72A
:1082F0002846FFF7A7FCF2E7A9684A1CAA602A688B
:108300002D205054D5E901219142C8F10008FFF415
:108310006AAF28460293FFF795FC029B63E7284665
:10832000FFF790FCAB68DDE62846FFF78BFCAB68F7
:10833000CEE6029B3446002659E71E4642E7039BE1
:10834000B3E600BFCDCCCCCCB0CA0200FFF71ABC5C
:108350002DE9F041058ACE1C043D2E440746B6FBAC
:10836000F5F6FFF72BFC78B3F6B24FF48073013EBD
:108370000446C5800760838027D08046002509E039
:108380006379AE4203F101036371C8F8000007602E
:1083900080461AD03846FFF711FC01350028EFD18E
:1083A0006679721E14D02346013082421B68FBD1CD
:1083B0001F684EB1002523682146013538461C460A
:1083C000FFF724FCAE42F6D100242046BDE8F08140
:1083D0002768EFE704300121FFF798BBF8B50121CA
:1083E00004460430FFF79EFBC0B200B1F8BD6679C9
:1083F000721E12D02346013082421B68FBD11F68D7
:10840000002EF3D0002523682146013538461C464E
:10841000FFF7FCFBAE42F6D1F8BD2768F2E700BFDC
:108420002DE9F843C788467907FB06F6043E02EBC0
:10843000030C0446664503F1040015468846B0FB6C
:10844000F7F238BFF51A07FB120012B1013A24689F
:10845000FCD13E1AAE4228BF2E469DB14FF0000916
:108460000430AD1B2044324608EB090104F005FA44
:10847000AF42B14424683E464FF0000028BF2E466C
:10848000002DEDD1BDE8F8832DE9F843C788467982
:10849000154607FB06F6043E05EB030C1A1D664560
:1084A00004468846B2FBF7F038BFF51A07FB1021E7
:1084B00010B101382468FCD17E1AAE4228BF2E4686
:1084C0009DB14FF0000904312144AD1B324608EB49
:1084D000090004F0D2F9AF42B14424683E464FF09F
:1084E000000128BF2E46002DEDD1BDE8F88300BF66
:1084F00041DF7047064A074B10B5002414701C601A
:10850000BFF35F8F0449054800F040F8204610BDD6
:10851000A02B0020A42B0020C0CA0200982B002012
:1085200000B583B002A8002300F8013DFFF760F812
:10853000F1EE103A23F09F03E1EE103ABFF35F8FA4
:108540000A4B4022C3F884219DF80700FFF776F814
:1085500001F00AFD28B920BF40BF20BF03B05DF87D
:1085600004FBFFF7C5FF03B05DF804FB00E100E08A
:108570008268002393608268136182685361826815
:10858000D3608268536082681360704701600B6833
:1085900043604A68934204BF00234360704700BFB2
:1085A000436843B1026891680B4443605268934248
:1085B00004BF00234360704770B5446806462068D6
:1085C0000D4618B908E02468206828B1B368294628
:1085D00098470028F7D120682860256070BD00BF4B
:1085E0004368186808B102681A60704743681868E1
:1085F000704700BF4068036873B18B4203D107E046
:10860000814204D0034618680028F9D17047184603
:108610000B680360012070471846704730B4184D4E
:10862000A5F59472AB1ADB1003EBD3735B1002EB6E
:10863000C30152F83330984228BF0C4605D311E0ED
:1086400052F8333098420CD221468B1ADB1003EBE0
:10865000D3735B108A4202EBC304F1D3094830BCE8
:1086600070470D46984204D904F10802AA42D9D3B2
:10867000F4E76068034B002808BF1846EFE700BF27
:1086800020CC0200E4CA020030B4AA4B1B685A1C7A
:1086900004BFA94B1B78062B05D1A84BA84A1B6821
:1086A000C3F304231360A44B1B78062B00F00F8147
:1086B000A04B1B685D1C04BF9F4B1B78062B05D18C
:1086C000A04BA14A1B68C3F3423313609A4B1B783B
:1086D000062B00F0E980974B1B685C1C04BF964B8F
:1086E0001B78062B08D14FF080430022C3F80C21E1
:1086F000C3F81021C3F838258F4B1B78062B00F0E8
:10870000B3808C4B1B68581C00F0A1808F4A062B4D
:10871000126822D08E4AD2F8883043F47003C2F82F
:108720008830BFF34F8FBFF36F8F824B1B68062BD0
:1087300000F0DE804FF01023D3F80022002AC0F2B0
:108740003381D3F80432002BC0F22E81814B824A50
:108750001A6030BC7047C2F30312033A042A40F295
:10876000DD804FF080537D4AD3F80414C2F8201501
:10877000D3F80814C2F82415D3F80C14C2F828153D
:10878000D3F81014C2F82C15D3F81414C2F830150D
:10879000D3F81814C2F83415D3F81C14C2F84015D5
:1087A000D3F82014C2F84415D3F82414C2F848159D
:1087B000D3F82814C2F84C15D3F82C14C2F850156D
:1087C000D3F83014C2F85415D3F83414C2F8601535
:1087D000D3F83814C2F86415D3F83C14C2F86815FD
:1087E000D3F840145348C2F86C15D3F84414036806
:1087F000C2F87015591C00F09780062B8AD1584A90
:108800004C4B12681B68574902F04F020A605A1C11
:1088100024D0062B7FF47EAF4FF08042D2F8003494
:10882000DB0774D4434B1B68062B7FF473AF474BB5
:108830001B68033B042B04D84B4AD35C002B3FF44A
:1088400069AF4A4A136843F48063136062E73A49A8
:10885000474A0978126806293FF47DAF364B1B78EA
:10886000062B7FF457AFD7E7414B1B68C3F30313C5
:10887000033B042B3FF645AF3E4AD25C12B13E4A61
:10888000032111603D4AD35C002B3FF43AAF3C4AD0
:108890003C4C3D493D4B05201060012500203F2206
:1088A000256008601A602CE7314B1B68C3F3031383
:1088B000033B042B3FF60FAF354AD35C002B3FF44C
:1088C0000AAF344AD36823F08073D36003E7284BA0
:1088D0001B68C3F30313033B042B3FF6E9AE2E4A98
:1088E000D35C002B3FF4E4AE2C4B2D4A1A60DFE63C
:1088F000164B1B68033B032B7FF61CAF4FF0102277
:108900004FF08043D2F80822C3F8582512E7094BEC
:108910006FF001011B68C2F8001485E721498A5CE9
:10892000002A3FF467AF1CE7034B1B78062B3FF48C
:1089300066AF93E730010010E00F00F02403001051
:1089400040350140440200103C0500403401001055
:1089500000ED00E0702200200090D00300C0004035
:1089600058020010E40E004014D002003C170040F2
:10897000E80F00F01CD00200A00500401CD002004F
:1089800010560040885600401856004014560040CB
:108990001CD00200F0ED00E01CD0020074C00740C3
:1089A0000DF0ADBA0CD00200184B0122C3F804251B
:1089B000D3F80024002AFBD04FF0102315221349CE
:1089C000C3F80022D1F80034002BFBD04FF0102266
:1089D00015210E4BC2F80412D3F80024002AFBD054
:1089E00000220A49C3F80425D1F80034002BFBD03B
:1089F000BFF34F8F0649074BCA6802F4E062134386
:108A0000CB60BFF34F8F00BFFDE700BF00E0014028
:108A100000ED00E00400FA0510B5154B1A6882B0AD
:108A20007AB10021134A19601B68507900934FF006
:108A300080410123009CC1F8083310B911685371BB
:108A400088470D4B1A6882B100221A601B68019397
:108A50004FF080420221074B0198C2F808131B68AF
:108A6000012002B0BDE81040184702B010BD00BFA1
:108A700000010040A82B0020040100402DE9F04334
:108A800085B00023A34A01931168012900F0AC804E
:108A90001E46A14B1A68012A00F0B6809F4B1A6847
:108AA000012A00F0C3809E4B1A68012A00F0D08092
:108AB0009C4B1A68012A00F0DD809B4B1A68012A42
:108AC00000F0EA80994B1A68012A00F0F780984B71
:108AD0001A68012A0CD0974B1B68012B00F0FC8010
:108AE00016F0FF0F15D1002E30DB05B0BDE8F08386
:108AF000914AD2F804231206EDD500221A601A68B2
:108B000002926033029A1B68012B46F0800600F047
:108B1000E3808A4F00240125A30003F180432E4205
:108B200003F5C0434FEA45050BD0D3F8100557F8BD
:108B30002420D3F81015C0F30420C1F3014102B181
:108B400090470134082CE7D1002ECEDA7C4E4FF04E
:108B5000A047A6F154087B4C012514F9011B4B1CBE
:108B600036D0C9B204AB21F0C00003EBD00201F053
:108B7000070312F80C2C05FA03F31A4228D08300DD
:108B800003F1A04305FA00FED3F80097D3F80027BD
:108B900022F4403CC3F800C7C9F30142022AD3F8CB
:108BA000009714BF4FF4003C4FF4403C49EA0C09D5
:108BB00008EB000CC3F80097C7F820E59CF93030AB
:108BC00058F8233023B18909032940F0958098474C
:108BD000B442C2D1D7F820350193C7F82035002B15
:108BE000B9D105B0BDE8F0835349D1F8046316F05C
:108BF00001063FF44EAF136013680293029B464B8D
:108C00001A68012A7FF44AAF4B4AD2F8042392072C
:108C10007FF544AF00221A601B680293029B3F4B12
:108C20001A68012A46F002067FF43DAF424AD2F8A4
:108C3000042357077FF537AF00221A601B680293A1
:108C4000029B374B1A68012A46F004067FF430AFC6
:108C5000394AD2F8042315077FF52AAF00221A609B
:108C60001B680293029B2F4B1A68012A46F00806E4
:108C70007FF423AF304AD2F80423D4067FF51DAF2A
:108C800000221A601B680293029B274B1A68012A74
:108C900046F010067FF416AF274AD2F80423900658
:108CA0007FF510AF00221A601B680293029B1F4BD6
:108CB0001A68012A46F020067FF409AF1E4AD2F84E
:108CC000042351067FF503AF00221A601B6802934C
:108CD000029B46F04006FAE6164B00221A601B681B
:108CE00003934FF0A043039AD3F82025019246F056
:108CF0000046C3F82025F3E6022A06D0032A7FF4B3
:108D000067AF02297FF464AF61E701297FF460AFA8
:108D10005DE700BF00610040046100400861004061
:108D20000C61004010610040146100401861004077
:108D30001C6100407C61004000600040B02B0020BE
:108D4000042C0020002C0020014B1B68184700BF9A
:108D50000C2C002076DF7047004870478C220020E2
:108D600000487047342C002000487047142C002025
:108D700000487047282C002008B5FFF7BBFB00B95E
:108D800008BDBDE80840FEF7E7B800BF2DE9804800
:108D9000574D584C85B002F0A9FF03F071FBFFF767
:108DA000EBFF03F06DFC17225349284603F065FDE5
:108DB00005F1100603F088FB05F11201A81C03F071
:108DC000C3FB03F0CFF903F0A5F903F0EBF903F0CF
:108DD000C7F803F003FC96E807006B4603C31A804C
:108DE00095E80F0003F0F0F903F06EF903F096FA3E
:108DF000A5F1200706F1020807F1160907F1060A96
:108E0000FDF700FF002833D0237813F0100F2378EC
:108E100035D05B0754D42378180710D5042249466F
:108E2000364803F02AFD2378F87E397F7A7F388729
:108E30006FF3C303237087F8371087F8362096E85E
:108E400007006B4603C31A8095E80F0003F0BCF9D6
:108E500003F0A0FB41462A4803F046FB23786FF35A
:108E60000413237003F05AFAFDF7CCFE0028CBD18F
:108E7000FFF756FB237813F0100F2378C9D199061A
:108E800028D423785A06BBD523789B07B8D494F806
:108E900000B0CBF3001BBBF1000FB1D103F04CFAD3
:108EA00096E807006B4603C31A8095E80F0003F0AD
:108EB0008BF903F033FA23786BF3861323709FE763
:108EC000102251460E4803F0D8FC23786FF382033A
:108ED0002370A0E703F062F93B210088FFF73AFF17
:108EE00008B1FEF739F823786FF34513237087E74D
:108EF000AC220020342C002074220020BE2200204E
:108F0000AE2200202DE9F84F4400DFF85CB12618AE
:108F10000BEBC6068146F76A012F8A46904667D05A
:108F20003DD3022F30D100F1010909EB4909756ADF
:108F30004FEAC9090027B36A346AAB4203F1FF3232
:108F40009CBF1B1903F1FF33A4EB05048CBF531B1B
:108F50005B1B0BEB0902444528BF44469C4250680A
:108F600028BF1C4628445146224603F086FC336A3B
:108F700025449D422744A8EB0408A24408D075620A
:108F8000B8F1000FD7D100E000273846BDE8F88FD0
:108F900000231D467362B8F1000FCCD1F5E7B36A28
:108FA000756AAB429CBF326A9B18013B5B1B9845BC
:108FB000EBD8044400F101090BEBC40409EB4909A7
:108FC0000BEBC90B266ADBF80400761BB04528447E
:108FD00043D33246A8EB060503F04FFC0AEB06012B
:108FE000DBF804002A4603F048FC47466562CCE7FC
:108FF000D6E90825B76AAF4298BFBF18461C013FA3
:1090000006EB46067F1B0BEBC606474528BF4746C7
:109010007068A2EB05084745284412D3A144424694
:10902000A7EB08050BEBC90B03F027FC0AEB0801C3
:1090300070682A4603F021FCCBF824503846BDE87E
:10904000F88FA1440BEBC90B3A463D4403F015FCE5
:10905000CBF824503846BDE8F88F4246454403F02B
:109060000CFC4746656290E7B830002038B5114CDB
:10907000114B1248E36110254FF40073104A114957
:109080002362E06400232565E01D0225A36263627C
:10909000E362A3656365E365A261A264C4E9045564
:1090A00003F0FEFB2046084903F0FAFB2023A371DE
:1090B00038BD00BFB8300020482C0020382C0020DC
:1090C00048D0020054D0020058D002006DDF704733
:1090D00079DF70477DDF704764DF70472DE9F04F1F
:1090E00083B004880C9EBDF83490B6F800A0002C24
:1090F00039D09846002317468B4605461C4603E0A8
:109100002A880134A24224DD6A6852F824000190C2
:1091100000220DF1030101A8FFF7DEFF20BB9DF83F
:109120000320BA42ECD13288B91803B389452BDB4E
:1091300042440DF1030101A80123FFF7CDFF98B9C7
:1091400031889DF803200A4432802A880134A242E3
:10915000DADC43B13388013BA3EB0A039BB2FF2B5C
:1091600012D808F80A30002003B0BDE8F08F0231B1
:109170000132894592B207DB328008F802B03288AA
:10918000013292B23280D3E70C2003B0BDE8F08FF9
:109190002DE9F04700231788138090F82D3086B012
:1091A000144605460E46002B40F0FB80AA78002AA4
:1091B00040F0FD80EA78A2B1D91CB94200F2F380F8
:1091C0000221F154238801339BB201212380F15401
:1091D00023880B449BB22380F25423880B449BB218
:1091E00023806A68AAB1D91CB94200F2DC8002214E
:1091F00092F90020F154238801339BB20A21238085
:10920000F154238801339BB22380F2542388013325
:1092100023802B89002B40F01B812B8A002B40F0F0
:109220002F812B8B002B40F043812B6A002B44D0E5
:109230002288911DB94200F2B6801988052940F2B2
:1092400003816FF4486801EB080080B24FF27D3C67
:10925000604540F2F9805888052840F2F5806FF4A7
:10926000486E86441FFA8EFEE64540F2ED804FF6CA
:10927000FF7C614504D0604502D0814200F2E48069
:109280000521B1542288013292B212212280B154B8
:109290002288013292B222801988B1543244090ADC
:1092A00051702288023292B222805B88B3543244D9
:1092B0001B0A53702388023323806B6A002B2FD044
:1092C0009988B4F800C0881C0CF102020244BA422A
:1092D00069D8FE2867D8033106F80C1022880132BD
:1092E00092B2FF212280B1542288013292B22280B0
:1092F0001988B1543244090A51702088023080B272
:1093000020809A8862B199680393002900F09C80BC
:10931000304403F0B2FA039B9A88238813442380D5
:1093200095F82C30002B40F08A80287800283BD01C
:109330002B88012B00F08880228802F1020CBC45AA
:1093400031D8012804D16B78023313449F422AD3C9
:10935000BB1E9B1A06A99BB221F8083D06EB0C0028
:10936000FFF7B8FE00BB2978BDF81020022900F0F5
:10937000048168789042C0F0FB809342C0F0F8808E
:109380000921FE2A0FD82388501CF054238801336A
:109390009BB22380F154238801331A442280002099
:1093A00002E0082F23D80C2006B0BDE8F087043374
:1093B000BB42F8D804A8FFF78BFE0028F4D123881D
:1093C000BDF810200321F154238801339BB21921E9
:1093D0002380F154238801339BB2F1182380F25487
:1093E000120A4A70238802339BB22380E2E604A863
:1093F000FFF76CFE0028D7D113880822CA542388AF
:1094000001339BB21B222380CA542088013080B2D2
:109410002080062208440DF1110103F02EFA238862
:109420009DF8102006339BB212F0FE0218BF0122F5
:109430002380F254238801339BB22380B6E6D5F80B
:109440002880B8F1000F4CD1072006B0BDE8F087A6
:1094500005F108080222CDE900474046114633468F
:10946000FFF73CFE00289FD1CDE900474046334638
:1094700010220621FFF732FE00283FF4CEAE93E71C
:1094800005F11008CDE9004740463346022203218A
:10949000FFF724FE002887D1CDE900474046334638
:1094A00010220721FFF71AFE00283FF4BAAE7BE72F
:1094B00005F11808CDE90047404633460222142141
:1094C000FFF70CFE00287FF46FAFCDE90047404660
:1094D000334610221521FFF701FE00283FF4A5AE08
:1094E00062E7B8F804200232FE2A3FF65CAF238818
:1094F0004FF000094FF0160A0132F254238801336D
:109500009BB2238006F803A0238801339BB22380FB
:10951000B8F80020F2543344120A5A7023880233F8
:109520009BB22380B8F80410F0180A4661B1D8F84D
:1095300008301946002B87D003F09FF9B8F80420B3
:10954000238813449BB2238009F1010995F82C204C
:109550005FFA89F94A4509EB49087FF6E6AEAA6A3F
:1095600002EB8808B8F804200232FE2AC4D91AE7B0
:10957000012906D01A46082103E79342BFF400AF41
:10958000F8E78342F6D302460821FAE675DF704712
:1095900076DF70477ADF70477BDF704730B51D4B51
:1095A0001A8884B2A24283B001D003B030BD1A4DF4
:1095B000187A297B88420FD32A7C00211972E2B9DC
:1095C0006B69002BF1D00022ADF806408DF8042025
:1095D00001A8984703B030BD104603F10A01FFF718
:1095E000D5FF28B11128E0D0AB69002BF1D1DCE721
:1095F0001A7A01321A7203B030BD3B212046FFF7C0
:10960000C7FF30F00803DBD0AB69002BD8D09847F8
:10961000D6E700BF642E0020482E0020F0B5028857
:10962000112A83B0034649D036D9122A08D0502ACD
:1096300004D16C4DC188EA89914251D003B0F0BD8C
:10964000694C828821889142F8D1E1896589B1F518
:10965000FA7F24BF6FF4F9700E18588938BF0026BE
:1096600085424FD8A58985424CD39B89B34249D3C3
:1096700001F2F311994245D35A4B5B694FF4807163
:109680002181002BDAD00121ADF806208DF80410DD
:1096900001A8984703B0F0BD102ACFD1C27B012AA0
:1096A000CCD1514C21884FF6FF7291423CD04D4BAA
:1096B0009B69002BC2D004209847BFE74A4C8288A0
:1096C00023889A42BAD16068FDF754FF18B1454B20
:1096D0009B6903B198474FF6FF73238003B0F0BD39
:1096E000028A022AAAD1404C86882788B742A5D18F
:1096F000123000F06BF9002856D16068FDF73AFF90
:1097000070B99BE7374D267A6068D5E90131002EA4
:1097100008BF194600236372FDF7C6FE00288DD0EE
:10972000AB69002BB5D189E7304D8288228003CD0B
:10973000C4F80E10E689C4F80A00B6F5FA7F28BF0F
:109740006FF4F9754FF00001588AB4F80AC021721D
:1097500028BF7119234D8445EF8919D8B4F80CC07E
:10976000844515D39B8A8B4212D306F2F3169E4290
:109770000ED301216172002F7FF460AF6B69002B63
:109780003FF45CAF8DF80410ADF8062001A880E727
:1097900000236372002F7FF451AF60686968FDF7A2
:1097A00083FE0028BCD149E7637A63B9D5E901316A
:1097B000267A60683A46002E08BF1946FDF774FE07
:1097C0000028ADD13AE76B6900222272002B3FF4EA
:1097D00035AF0122ADF806608DF8042001A8984746
:1097E0002CE700BF482E0020642E0020782E002099
:1097F00000282FD0F8B5054606460FCD164F3C463B
:109800000FC4844695E80700144B3B6084E80700CA
:10981000BCF1000F18D06046FFF7BCFE98B9326863
:109820001068516803C30E4B0E490F4A18464FF695
:10983000FF7440F8041F1C800021FDF71FFE002864
:1098400014BF03200020F8BD1846FFF7A5FE00282E
:10985000E9D0F8BD0E207047482E0020782E002059
:10986000642E0020802E00209D9502002DE9F047F7
:109870000388B0F80490103B98B080460A2B1BD8A0
:10988000DFE803F02F281A1A1A1A1A1A1A1D0600EE
:10989000047A46482409032C494665D8FEF700F9A6
:1098A000032C63D049464248FEF7FAF8022C61D0F7
:1098B00049464048FEF7F4F818B0BDE8F087037A4F
:1098C000002BF9D1437A39481B0749466AD4FEF781
:1098D000E7F8F1E749463848FEF7E2F818B0BDE886
:1098E000F087364A936818A8DB4340F8603D51681A
:1098F000FEF700F9009B0193019B63B300273C46F0
:10990000214601A8FEF7D6F828B118AB03EB4703B0
:10991000013723F8284C0134142CF1D10D970DAEEA
:109920000FCE02AC0FC40FCE0FC496E8070084E838
:10993000070087B10DF10A0A214E0AEB47073AF8F2
:10994000025F204C204629460434FEF7A9F8A642BF
:10995000F8D1BA45F3D1B9F1130F12D90420FDF7AC
:10996000FBFA18B0BDE8F087FEF790F849461048BA
:10997000FEF78CF849460F48FEF788F818B0BDE8A6
:10998000F08749460C48FEF781F849460D48FEF736
:109990007DF898F80F30022B8ED149460A48FEF721
:1099A00075F889E7FEF772F886E700BFB82E002049
:1099B000B42E0020B02E0020A82E0020A02E0020C3
:1099C0001C2F0020A42E0020AC2E0020007800F0D8
:1099D0000100704790DF7047A5DF7047B5DF704723
:1099E00008B90E20704730B403464FF0171200201C
:1099F0001B2541F61B3419611A60C3F806201D713E
:109A00009872D8729C8130BC704700BF70B5858851
:109A100084B01DBB0388232B0C4621D06FD93A2B71
:109A200054D0552B00F0AF80242B00F09A80A37AFD
:109A3000A3B1E1880020FFF7CFFF00286DD01128E7
:109A40000CD0FEF7EBFD694A694B6A499B1ADB08AB
:109A50001B04024643F00100FCF756FF04B070BD42
:109A6000037A0A7B0395934228BF134602A96A46EC
:109A700028460095ADF80830ADF80A30ADF804502E
:109A8000FFF7A8FF0028D2D0584B594EF61AF60817
:109A9000FEF7C4FD360446F0010603462A4630466A
:109AA0005549FCF7A9FFBDF80020BDF8023002B906
:109AB0001BB152493046FCF79FFFBDF80420002A35
:109AC000B5D030464E49FCF71FFFB0E74389C9883F
:109AD00022698B4228BF0B46172B38BF17232381DF
:109AE0004AB1E17A39B140F677210291ADF80C30F4
:109AF00002A9204690470023E372A372AEE7102B21
:109B00000FD0112B93D14FF0171241F61B338D72EA
:109B1000CD72C1F806208B81A0E70122A072E2720B
:109B20009CE70B790B73C27B012A4DD0022A01D12D
:109B30004A88CA80627B9A42BFF479AF00259BB203
:109B400028466A4602A9ADF80830ADF80A300395F8
:109B50000095ADF80450FFF73DFF00283FF467AFD4
:109B600092E70B69027A4A73002B3FF460AF4DF61F
:109B70007A21ADF80C5002918DF80C2002A92046F4
:109B80009847A37A54E7C388C988A572172B38BFB2
:109B900017238B4228BF0B4628462381FFF71EFF61
:109BA000A8B9E37A002B7FF442AF2369002B3FF47E
:109BB0003EAF40F6772122890291ADF80C2002A930
:109BC00020469847A37A33E70A88CA80B2E7FEF7AF
:109BD00025FD064A064B0B499B1ADB081B0402466F
:109BE00043F00100FCF790FEDBE700BF48D802001D
:109BF000A8D8020074D1020060D00200ACD00200EC
:109C0000ECD0020044D10200B0DF704766DF70473D
:109C100060B159B10378DE2B0AD00B684360DE22B5
:109C20004FF6FF7302704380002070470E2070478C
:109C30000820704738B10378DE2B02D14180002024
:109C40007047082070470E20704700BF19B110B14F
:109C50000B78DE2B00D0704730B505464B888088E6
:109C6000984285B00C4606D02A88012A0DD0512A88
:109C700020D005B030BD0B7A002B35D12B88112BAD
:109C800048D0512B4DD0012BF3D12B7A012BF0D1A1
:109C900062888242EDD123720021FFF7B7FF0028CE
:109CA0004ED0112808BF2372E3D063689847E0E7DD
:109CB0006388A8888342DCD1AA79022AD9D1A97BFA
:109CC00001F0FD0004282ED00529D2D100206946DC
:109CD000C1E90200009048608DF800201846FFF7A7
:109CE00093FF0028E1D1C4E70021FFF78FFF03466F
:109CF000A8B1112812D0636898472B88112B05D082
:109D0000512BD5D0012BB4D1A888BEE7AA8863888F
:109D10009A42AED14FF6FF736380AAE70123237204
:109D2000EBE70346C6E7694600204FF4C07548607C
:109D30000090C1E902008DF80020ADF80450CDE795
:109D4000207296E710DF704711DF704770B53B4D0A
:109D50002B7884B0002B63D1394E3A49012302A8F5
:109D60003370FEF713FC039B002B4FD1364902A83A
:109D7000FEF70CFC039B4BB1D3E900210020904778
:109D800002A8FEF70DFC039B002BF5D12F4A002300
:109D900012688DF8083002A80192FDF729FC2C49C1
:109DA00001A8FFF7CFFFB0FA80F304465B099DF8E6
:109DB00008002B70FDF742FC002C2ED1254B2649C4
:109DC0001C70347091F81623EC2352091341DB0701
:109DD0002FD5224B9A683ABB4FF480030B601A4987
:109DE00002A8FEF7D3FB039BBBB1D3E900210120FE
:109DF000904702A8FEF7D4FB039B002BF5D10CE0A3
:109E000002A8FEF7CDFB039B002BAFD0D3E90021C6
:109E1000002090470028F3D10446204604B070BDCE
:109E20000824204604B070BD1A6842F480021A600B
:109E3000D5E742F20200FDF78FF8D0E71D2F002092
:109E40001C2F0020BCD10200D4D10200B8D10200E6
:109E5000796F02001E2F002000E100E0AC300020EE
:109E6000F0B5334D2B7883B0002B58D0314E3249AA
:109E7000012368463370FEF789FB019B002B44D118
:109E80002E496846FEF782FB019B4BB1D3E90021C6
:109E9000022090476846FEF783FB019B002BF5D11B
:109EA000002768468DF80070FDF7A2FBFFF74CFF16
:109EB00004469DF800002F70FDF7C0FB64BB204BEB
:109EC00034709A687ABB1F4B4FF48002C3F880202D
:109ED000BFF34F8FBFF36F8F18496846FEF756FBED
:109EE000019BCBB1D3E90021032090476846FEF7E0
:109EF00057FB019B002BF5D1204603B0F0BD68460F
:109F0000FEF74EFB019B002BBAD0D3E900210120C4
:109F100090470028F3D10446204603B0F0BD082442
:109F2000204603B0F0BD1A6822F480021A60D3E71D
:109F30001D2F00201C2F0020BCD10200D4D1020014
:109F4000AC30002000E100E0054B1B7833B1054B3D
:109F50001B780BB9FFF7FABEFFF782BF08207047E6
:109F60001C2F00201D2F0020014B1878704700BFC8
:109F70001D2F002000B583B068460849FEF706FB98
:109F8000019B43B1D3E9002090476846FEF708FBE8
:109F9000019B002BF6D103B05DF804FBC8D1020091
:109FA00060DF704769DF704761DF7047134B1B78D4
:109FB0001BB330B5124D91B034240DF1020103A84A
:109FC000ADF80240FFF7F0FF88B9294601A8FEF777
:109FD000DDFA029B002BF0D0D3E9002103A89047C3
:109FE00001A8FEF7DDFA029B002BF5D1E5E7052875
:109FF00001D0FCF7B1FF11B030BD70471F2F00201A
:10A0000020D40200002900F0A68070B5534B0B60ED
:10A0100084B00C4605460C22002101A802F038FC51
:10A020000126062301A922688DF8045020208DF80E
:10A030000660ADF80830FFF7B5FF00287DD10C228F
:10A04000002101A802F024FC012100238DF8051055
:10A0500022688DF8063001A940208DF80730FFF7FF
:10A06000A1FF00285BD10C22002101A802F010FC06
:10A070000123184622688DF8043001A9FFF792FFEA
:10A0800000283ED10C22002101A802F001FC4FF46F
:10A09000B0632268019301A9A120FFF783FF10BBE1
:10A0A0000C22002101A802F0F3FB9DF80430226885
:10A0B00043F0010301A9A0208DF80430FFF772FFDF
:10A0C00008B904B070BDFEF7A9FA254A254B264908
:10A0D0009B1ADB081B04024643F00100FCF714FC4A
:10A0E000002004B070BDFEF799FA1D4A1D4B1F49B0
:10A0F0009B1ADB081B04024643F00100FCF704FC3A
:10A10000CEE7FEF78BFA164A164B19499B1ADB0865
:10A110001B04024643F00100FCF7F6FBB2E7FEF732
:10A120007DFA0F4A0F4B13499B1ADB081B040246AA
:10A1300043F00100FCF7E8FB95E7FEF76FFA084AE9
:10A14000084B0D499B1ADB081B04024643EA060034
:10A15000FCF7DAFB73E70E20704700BF6022002097
:10A1600048D80200C0D802001CD30200C8D20200A6
:10A170007CD2020030D20200E8D10200F8B50646D7
:10A180000768FFF70DFF3368BB42054605D825BBBE
:10A190001A4B01221A702846F8BD194B194C1A495E
:10A1A000E41AE408240444F002042046FCF716FAFA
:10A1B0003A46204633681549FCF71EFC4FF08053A1
:10A1C0003268D3F80C3112499B0203F10053204648
:10A1D0009A1AFCF799FB002DDAD02846FEF71EFAF2
:10A1E000074A084B0B499B1ADB081B04024643F045
:10A1F0000100FCF789FB2846F8BD00BF1F2F002097
:10A2000048D80200C0D8020070D30200A0D30200D8
:10A21000D4D3020000D402004BDF704710B5114CBC
:10A2200084B001A8FFF7F8FFA8B9214602A8FEF7FD
:10A23000ADF9039B002BF4D0D3E90021019890479E
:10A2400002A8FEF7ADF9039B002BF5D101A8FFF79B
:10A25000E3FF0028E9D0052801D0FCF77DFE04B01B
:10A2600010BD00BF38D40200032811D8012A0BD03A
:10A27000012919D00ED302290AD10E4B00EB400060
:10A28000034400205A70704701290AD00022EFE7EA
:10A2900007207047074B00EB4000034400209A70F2
:10A2A000704700F10E02D2B200EB400301490020DA
:10A2B000CA547047202F002010B50388102B07D0F8
:10A2C000112B04D1254B18680138186030B110BD2E
:10A2D000224C216881B10131216010BD012202218F
:10A2E000FFF7C2FF38B3072825D01D4B1B68002B92
:10A2F000EDD0BDE81040184701220846FFF7B4FF33
:10A3000038B1072805D0164B1B6803B19847216860
:10A31000E1E7072202210120FFF7A6FF08B1072885
:10A32000F1D1042202210020FFF79EFF0028EED089
:10A330000728E8D1EBE7072202210120FFF794FF6D
:10A3400008B10728D1D1002108460A22FFF78CFF67
:10A350000028BCD00728C8D110BD00BF302F002076
:10A360002C2F002010B582B038B1B9B101600B6854
:10A37000114602B0BDE8104018470B480B4C0C4B7F
:10A380000C4A0D49001BC0080E24000440F00100D7
:10A390000094FCF7B1FB0E2002B010BD0248034C44
:10A3A000034B064AEDE700BFB0D8020048D80200D0
:10A3B00050D4020018D5020020D502004CD502006E
:10A3C000F0B583B000283CD0002A4BD00668002EA0
:10A3D0004DD003B38F072FD1C768B94210D22C4894
:10A3E0002C4C2D4B2D4A2E49001BC0081024000474
:10A3F00040F001000094FCF77FFB204603B0F0BD65
:10A400004C1E05691C44AC42E9D8B468A44603B0AC
:10A41000BDE8F04060471F4C1D481F4B214A2049B2
:10A42000001BC0080924000440F001000094FCF760
:10A4300063FB204603B0F0BD1548164C164B1A4A74
:10A44000D1E71348134C144B184A1549001BC00898
:10A450000E24000440F001000094FCF74DFB204660
:10A4600003B0F0BD0A480B4C0B4B114AEDE7094C09
:10A470000748094B0F4A0A49001BC008082400047A
:10A4800040F001000094FCF737FB2046B6E700BF20
:10A49000B0D8020048D8020064D4020078D5020087
:10A4A00020D502005CD5020060D5020018D502005C
:10A4B00054D50200A0D502002DE9F04182B0002859
:10A4C00054D0002A64D0D0F800C0BCF1000F69D08D
:10A4D0001C46002B33D04768D7F80480B3FBF8F74D
:10A4E00008FB1737002F3CD18F0723D112F0030F41
:10A4F00053D1C768B94211D23248334C334B344A36
:10A500003449001BC0081024000440F001000094EE
:10A51000FCF7F2FA204602B0BDE8F0814E1E056954
:10A520003444AC42E8D8DCF80C40A44602B0BDE8A4
:10A53000F04160472348244C244B274AE0E7214858
:10A54000214C224B254A2349001BC0080924000442
:10A5500040F001000094FCF7CFFA204602B0BDE8BD
:10A56000F0811848184C194B1D4AECE71548164C59
:10A57000164B1C4A1749001BC0080E24000440F06B
:10A5800001000094FCF7B8FA204602B0BDE8F08163
:10A590000C480D4C0D4B144AECE70A480A4C0B4B87
:10A5A000124AADE7084C0748084B114A0949001BFD
:10A5B000C0080824000440F001000094FCF79CFA55
:10A5C0002046A8E7B0D8020048D8020078D402009C
:10A5D0001CD6020020D50200E0D502005CD50200A6
:10A5E000B4D5020018D50200ACD50200F8D502009F
:10A5F000A0D50200F0B583B0002843D0D0F800C049
:10A60000BCF1000F4ED03AB34768D7F800E00EF126
:10A61000FF370F4231D1C768B94210D229482A4CBE
:10A620002A4B2B4A2B49001BC0081024000440F081
:10A6300001000094FCF760FA204603B0F0BD4D1E07
:10A6400004690EFB0255A542E8D8DCF81040A44688
:10A6500003B0BDE8F04060471B4C1A481B4B1E4A34
:10A660001C49001BC0080924000440F001000094AC
:10A67000FCF742FA204603B0F0BD1248124C134BCF
:10A68000164ACFE7104C0F48104B154A1149001BD2
:10A69000C0080E24000440F001000094FCF72CFADE
:10A6A0002046CAE7084C0748084B0E4A0949001BD8
:10A6B000C0080824000440F001000094FCF71CFAD4
:10A6C0002046BAE7B0D8020048D802008CD4020075
:10A6D000C8D4020020D502005CD50200A0D402003C
:10A6E00018D50200A0D5020018B103680BB1DB69D0
:10A6F000184770B50D4C0E4D0E4B2D1BA3FB0535A9
:10A700002D0910D005EB850504EB850501E0AC4271
:10A7100009D0236820461434002BF8D0DB69984711
:10A720000028F4D070BD002070BD00BF00250020BF
:10A7300014250020CDCCCCCC29DF704728DF704712
:10A740000846704700207047024B187A003018BF47
:10A7500001207047D02F0020034B187A0122B0FA55
:10A7600080F05A7440097047D02F002008B5104679
:10A770001A4602F082F8002008BD00BF08B5142276
:10A780000021044802F084F80348FDF7E3F80020B4
:10A7900008BD00BFD02F0020C02F002010B5094CED
:10A7A000094B43602046FDF7C9F940B9FFF7DCFBD0
:10A7B0001C2320748C2205490548FDF7B3F80020BE
:10A7C00010BD00BFD02F002054D60200342F00202F
:10A7D000C02F002030B55E4C237A87B0002B3AD0D2
:10A7E0005C4B1B68022222721A79002A3ED0012A91
:10A7F0000CD1D3E903021044FFF7A0FF002849D091
:10A80000112803D10123237207B030BD19688A686B
:10A81000C2B1002268460092C0E90222032502610B
:10A8200001959A6805921A79002A4BD0012A07D11E
:10A8300002228DF80020DA68120302925B69049309
:10A840008B68984700234449444823726360FDF7AE
:10A850000DF907B030BD40494048FDF7D9F83D4AF1
:10A86000034610600028BDD16060F2E7D3E90525FA
:10A87000521BB2F5805F28BF4FF48052D3E903101A
:10A880009208012A38BF012229442844FFF754FFC7
:10A890000028B5D1227C002ADBD1227A002AD8D028
:10A8A000022A0AD1E0601A79DAB1012A05D1D3E986
:10A8B000042101328A421A611FD0637C73B1FFF711
:10A8C00043FBC6E701228DF800201A690292DA687C
:10A8D00003925B6904938B689847B3E7FFF77AFFAD
:10A8E000B7E7D3E90512881AB0F5805F94BF121854
:10A8F00002F5805291429A61DFD1002222721968DA
:10A900008868A8B168460092C0E90122C0E9032224
:10A910009A6805921A7982B1012A07D102228DF82C
:10A920000020DA68120302925B6904938B689847EF
:10A9300009490A48FDF79AF8BFE701228DF800207F
:10A940001A690292DA6803925B690493EEE700BF2A
:10A95000D02F0020E82F0020E42F0020C02F00205F
:10A960002DE9F04782B082468946174801A99046F2
:10A970001F46FDF711F810B3044600211C220D46B6
:10A98000124E01F085FF0A9BC4F800A0A360C4E941
:10A990000389676101A925710B48FDF729F8301D6E
:10A9A000FDF7CCF838B9747C34B9FFF713FF2046B3
:10A9B00002B0BDE8F087284602B0BDE8F087042069
:10A9C00002B0BDE8F08700BFC02F0020D02F0020CC
:10A9D0002DE9F04383B081460D46164801A917467C
:10A9E0009846FCF7D9FF08B304461C22002101F069
:10A9F0004FFF114EC4F8009001232D0BC4E90285CE
:10AA0000676101A923710B48FCF7F2FF301DFDF7C8
:10AA100095F838B9747C34B9FFF7DCFE204603B0F2
:10AA2000BDE8F083002003B0BDE8F083042003B04C
:10AA3000BDE8F083C02F0020D02F002000F0FD03E0
:10AA4000012B00D0704730B5604CA0F10100B0FA86
:10AA500080F0237A4009002287B020746274002BB2
:10AA60003AD05B4B1B68022222721A79002A3ED030
:10AA7000012A0CD1D3E903021044FFF75FFE00283E
:10AA800049D0112803D10123237207B030BD1968C2
:10AA90008A68C2B1002268460092C0E902220325FA
:10AAA000026101959A6805921A79002A4BD0012A11
:10AAB00007D102228DF80020DA68120302925B6946
:10AAC00004938B689847002342494348237263608C
:10AAD000FCF7CCFF07B030BD3E493F48FCF798FF7C
:10AAE0003B4A034610600028BDD16060F2E7D3E91D
:10AAF0000525521BB2F5805F28BF4FF48052D3E981
:10AB000003109208012A38BF012229442844FFF784
:10AB100013FE0028B5D1227C002ADBD1227A002A3C
:10AB2000D8D0022A0AD1E0601A79CAB1012A05D127
:10AB3000D3E9042101328A421A611DD0637C63B1DA
:10AB4000FFF702FAC6E701228DF800201A69029287
:10AB5000DA6803925B690493B3E7FFF73BFEB9E75A
:10AB6000D3E90512881AB0F5805F94BF121802F578
:10AB7000805291429A61E1D100222272196888685C
:10AB8000A8B168460092C0E90122C0E903229A6890
:10AB900005921A7982B1012A07D102228DF800208C
:10ABA000DA68120302925B6904938B68984709493B
:10ABB0000948FCF75BFFC1E701228DF800201A6904
:10ABC0000292DA6803925B690493EEE7D02F0020CB
:10ABD000E82F0020E42F0020C02F0020831E012B2F
:10ABE00000D9704730B58E4C237A87B0002B31D016
:10ABF000022B2BD103286BD1E3680133082B79D9C1
:10AC0000884B00221B68E26022720D2519688A6851
:10AC1000C2B1002268460092C0E902220261019599
:10AC20009A6805921A79002A00F0B980012A07D1A2
:10AC300002228DF80020DA68120302925B69049305
:10AC40008B68984778497948FCF710FF637C1BB103
:10AC5000FFF77AF907B030BD237A002B5BD0714B38
:10AC60001B68022222721A79002A5FD0012A0BD1B6
:10AC7000D3E903021044FFF761FD002869D01128D1
:10AC800002D101232372E5E719688A68C2B1002264
:10AC900068460092C0E902220325026101959A6884
:10ACA00005921A79002A70D0012A07D102228DF864
:10ACB0000020DA68120302925B6904938B6898475C
:10ACC00000235949594823726360FCF7CFFEC1E75E
:10ACD000544B00221B68E2601A796AB1012AB5D18F
:10ACE000D3E9042101328A421A6111D0637C002B1E
:10ACF000AED1B4E7E360F9E7D3E90512881AB0F5FD
:10AD0000805F94BF121802F5805291429A61EDD192
:10AD1000002525727AE744494448FCF779FE414A08
:10AD20000346106000289CD1606093E7D3E90525B5
:10AD3000521BB2F5805FD3E9031028BF4FF4805255
:10AD40009208012A38BF012229442844FFF7F4FC65
:10AD500093E7227C002A7FF47DAF227A002A3FF419
:10AD600079AF022A0AD1E0601A7912B3012A05D11B
:10AD7000D3E9042101328A421A6126D0637C002B78
:10AD80007FF466AFFFF726FD64E701228DF800200F
:10AD90001A690292DA6803925B6904938EE70122D2
:10ADA0008DF800201A690292DA6803925B690493B5
:10ADB00046E7D3E90512881AB0F5805F94BF1218F0
:10ADC00002F5805291429A61D8D10022227219680C
:10ADD0008868A8B168460092C0E90122C0E9032250
:10ADE0009A6805921A7982B1012A07D102228DF858
:10ADF0000020DA68120302925B6904938B6898471B
:10AE000009490A48FCF732FEB8E701228DF8002014
:10AE10001A690292DA6803925B690493EEE700BF55
:10AE2000D02F0020E82F0020E42F0020C02F00208A
:10AE30002DE9F041734B1A6888B0002A4CD1DFF835
:10AE4000DC8198F82E30002B54D16F4B1A686AB110
:10AE500000221A6008A81B680393022100F80C1D49
:10AE6000D8F80030039988F810209847674B1C6881
:10AE7000002C7CD1D8F814705FB34FF00045012648
:10AE8000B7FA87F101F146039B0003F1804202F516
:10AE9000E042A3F58C73D2F800E083F0040025FAB9
:10AEA00001F1C0F3800CDB0805A827EA0107BEF119
:10AEB000000F0CD01460126804928DF818308DF8D1
:10AEC00014608DF819C0D8F80030049A9847002F04
:10AED000D6D108B0BDE8F0810022DFF840811A60C9
:10AEE000196898F82E3000910099F3B198F82F3036
:10AEF000002B46D1464B1A68002AA6D000201860C5
:10AF000098F82D201968B8F81A30019191B28B4247
:10AF1000019C4DD861D03B4B3E4A002119601B6813
:10AF200002930123029913608FE7D8F80C20D8F818
:10AF30000400B8F808108DF814300690ADF81C1015
:10AF4000002A46D03448B8F81810C8F80420012266
:10AF5000C8F80C30A8F81A10A8F808100260D8F841
:10AF6000003005A89847002388F82F3069E70022B1
:10AF70001A601B680593059B88F8102008B0BDE88F
:10AF8000F081D8F80C30D8F80400B8F808108DF823
:10AF900014200690ADF81C10DBB1B8F81810C8F8F2
:10AFA0000430C8F80C20A8F81A10A8F80810D6E742
:10AFB000B8F80800184C5B1A9BB2D8F80410A8F82F
:10AFC0001A30C01A01EB4001C4F82C16C4F8302620
:10AFD000A1E7002388F81030C1E7D8F80C3053B14E
:10AFE0000D49A8F81A00012088F82F00C1F82C3666
:10AFF000C1F830268FE70122A8F81A3088F82F20F0
:10B0000089E700BF047100401071004014710040D6
:10B01000007100400470004000700040EC2F0020E0
:10B02000234B93F82C20002A40D170B4214C057892
:10B030001960C4F8F05545781F49C4F8F4556FF00D
:10B0400000451A7485B0C678C4F808530A600968C8
:10B0500003911A49039D0A600968194D02910299EA
:10B060002A608178286801904901164883F82D20CC
:10B070005A6183F82F20C9B2012283F82E60019D06
:10B0800083F82C2080F807138021016093F82E307C
:10B090000221C4F804130BB1C4F80423054B0122A8
:10B0A0000020C3F8002505B070BC70470820704729
:10B0B000EC2F00200070004004710040007100403F
:10B0C0001471004000E100E0A349A44B6FF0004080
:10B0D000802270B4C1F80803C3F88020BFF34F8FFB
:10B0E000BFF36F8F9E4B01221A6001F58A7142F205
:10B0F000107301E0013B02D00A68002AFAD0994B94
:10B10000954C197F93F82D205D690020C4F8000547
:10B11000187429B1197C01F0FF0600297FD001467F
:10B12000987F28B1187C00F0FF04002800F08C8084
:10B1300093F8200028B1187C00F0FF04002800F0EC
:10B140009C8093F8220028B1187C00F0FF040028AE
:10B1500000F0AE8093F8240028B1187C00F0FF04C2
:10B16000002800F0C08093F8260028B1187C00F079
:10B17000FF04002800F0D28093F8280018B1187C52
:10B1800000F0FF0450B193F82A0030BB002940F0D2
:10B19000E080002283F82C2070BC704772486E4912
:10B1A00093F82A6083F8284083F82940C0F81445B2
:10B1B000C0F810456D48C1F87C054FF40020C1F877
:10B1C0000803013A4FF48020C1F80803D2B225F4F5
:10B1D00040250121002E00F0BC80187C00F0FF0407
:10B1E0000028D3D162485C4983F82A4025F44035D1
:10B1F0005D6183F82B40013AC0F814455B4DC0F8FF
:10B2000010454FF400144FF48010C1F88C55D2B2A1
:10B21000C1F80843C1F8080383F82D20B9E7534962
:10B22000C4F81465013AC4F8106580201E775E7773
:10B23000C4F81C154021C4F80803D2B2C4F808139E
:10B2400025F0404501216BE74A4843499C77DC776C
:10B25000C0F81445C0F810454448C1F82C05013A1F
:10B260004FF400744FF48070C1F80843D2B2C1F8B3
:10B27000080325F0405501215AE73F48364983F835
:10B28000204083F82140C0F81445C0F810453748E5
:10B29000C1F83C05013A4FF400644FF48060C1F8F6
:10B2A0000843D2B2C1F8080325F04065012148E700
:10B2B0003248294983F8224083F82340C0F81445D6
:10B2C000C0F810452948C1F84C05013A4FF4005424
:10B2D0004FF48050C1F80843D2B2C1F8080325F0FA
:10B2E0004075012136E726481B4983F8244083F83E
:10B2F0002540C0F81445C0F810451C48C1F85C054D
:10B30000013A4FF400444FF48040C1F80843D2B2F0
:10B31000C1F8080325F44005012124E719480E4926
:10B3200083F8264083F82740C0F81445C0F810453C
:10B330000E48C1F86C05013A4FF400344FF48030E8
:10B34000C1F80843D2B2C1F8080325F44015012121
:10B3500012E75D6160E700BF0070004000E100E0BF
:10B3600008700040EC2F00206070004000F8FF07DC
:10B37000707000401070004020700040307000403D
:10B380004070004050700040334A137C002B60D165
:10B39000F0B40C79012C4ED900F10C0502EB4503F9
:10B3A0001B7923B992F82D30013382F82D304B7878
:10B3B0008E7891F800C04F791B01360206F4E066E2
:10B3C00003F030033343CE780CF0030C360306F45D
:10B3D000805643EA0C0333438E793F0507F4801708
:10B3E000360602EB450206F0807624043B431B4DF3
:10B3F00004F4E0243343234305EB0016CC791471A5
:10B4000000010C7A547100F18040C6F8183500F53F
:10B41000E040CB790A7AC0F81425C0F810350B79D2
:10B42000012B02D90020F0BC70470123C5F800357C
:10B430000020F0BC704703F0FF05084BC3F800552F
:10B4400000F10C0502EB45030C791B79002BAED102
:10B45000A8E71120704700BFEC2F002000700040CB
:10B46000F0B45D4C227C82B0002A40F0B18094F8A8
:10B470002D60012502F0FF03584A25740327AE42D0
:10B48000C2F80873C2F82C16C2F8305623D9544DAE
:10B490005449554F554EC2F81435C2F81035C5F809
:10B4A0001435C5F81035C1F81435C1F81035C7F892
:10B4B0001435C7F81035C6F81435C6F81035C5F878
:10B4C0005435C5F85035C1F85435C1F85035C2F877
:10B4D0008435C2F8803500F10C03000104EB43030E
:10B4E00000F1804000F5E0405A793C4E404D1B7918
:10B4F000C0F814250122C0F810353E49326042F2EE
:10B5000010732A6001E0013B02D00A68002AFAD0D9
:10B51000394994F82D00374B00220A6009680191DF
:10B5200001991A601B6800930128009B3FD92B48A2
:10B53000657FC0F81455257FC0F810552849E57F70
:10B54000C1F81455A57FC1F81055264A94F821502A
:10B55000C2F8145594F82050C2F81055224B94F8B4
:10B560002350C3F8145594F82250C3F8105594F89A
:10B570002550C0F8545594F82450C0F8505594F80C
:10B58000275094F82600C1F8545594F82960C1F862
:10B59000500594F8285094F82B00C2F8546594F89C
:10B5A0002A10C2F85055C3F85405C3F8501594F842
:10B5B0002E3043B9094B0222C3F804230020207423
:10B5C00002B0F0BC7047054B0322C3F80423F5E733
:10B5D000112002B0F0BC7047EC2F0020007000403A
:10B5E00010700040207000403070004040700040FB
:10B5F00004700040047100400071004030DF70476B
:10B6000031DF704700B585B004AB002203F8012D8F
:10B610008DF807001846FBF7EBFFFEF7A5FC30B1ED
:10B620009DF80F00FCF70AF805B05DF804FB0DF17A
:10B630000701084800F046F9064800F035F90028EF
:10B64000EED000F0F1F89DF80F00FBF7F7FF05B022
:10B650005DF804FB24D9020000B583B090B1032843
:10B660000DD102A8002300F8013DFBF7C1FF0D48F2
:10B670000378012B0FD09DF80700FBF7DFFF03B025
:10B680005DF804FB074B1B78012BF8D100F0CCF8D8
:10B6900000F0D6F8F3E70449013000F083F800F039
:10B6A000B1F8E8E76C30002005B6020010B5144C84
:10B6B000227882B00ABB02AB124903F8012D0028A0
:10B6C00008BF08460288A4F801201846FBF790FF3F
:10B6D000FEF74AFC40B101239DF807002370FBF7F9
:10B6E000ADFF002002B010BD0749601C00F05AF801
:10B6F0000028F7D100F086F8EDE7852002B010BDF4
:10B700006C30002088D6020005B6020010B5044651
:10B71000FEF72AFC18B12046FFF770FF18B1024867
:10B7200000F09EF9207010BD24D902002DE9F043ED
:10B73000DFF86C9083B007460E46002542F20708FA
:10B740000CE09DF80700FBF779FF31463846FFF71C
:10B7500057FF404504461DD0022C17D10DF10700BC
:10B760008DF80750FBF744FFFEF7FEFB0028E8D1F9
:10B7700032463946484600F01BF9044600F042F8CC
:10B780009DF80700FBF75AFF022CE7D0204603B0D4
:10B79000BDE8F0830524204603B0BDE8F08300BF78
:10B7A00024D90200134A137813BB10B40378124C47
:10B7B000DB07216006D51149D1F8043543F00103B8
:10B7C000C1F804350D4C0E49D4F8003223F00103C2
:10B7D000C4F8003243785B01DBB281F80D334FF4DB
:10B7E00000530B600123137000205DF8044B704779
:10B7F00085207047743000207030002000D0004059
:10B8000000E100E0064A074B0021116082B0126897
:10B81000019201990122C3F804231A6002B0704713
:10B8200000D1004000D000400349044A0123C1F880
:10B8300008331360704700BF00D0004004D00040C0
:10B8400010B40A480A4C0B4A01234FF40051C4F8C3
:10B8500008330360C2F88010BFF34F8FBFF36F8FC0
:10B86000054B00221A705DF8044B704704D000406D
:10B8700000D0004000E100E074300020074B084990
:10B88000084A0020186082B01B680193019BD1F820
:10B8900008051368C0B202B0184700BF00D10040CD
:10B8A00000D00040703000200368826818685B6830
:10B8B000934234BF01330023C01AB0FA80F040092C
:10B8C000704700BFF0B583B002AB002503F8015DFF
:10B8D000044618460F46FBF78BFE2368A2681E68D5
:10B8E0005868904238BF451CAE4213D05D68596815
:10B8F0008A420CD800225A60E2686068531E072B07
:10B9000046D8DFE803F0423E45314545451901314F
:10B910005960F1E7207C002840D15D6859688A426F
:10B9200044D9013159602268A16813688B4234BF41
:10B93000013300231360DFE7D7E9002300EBC500E4
:10B94000C0E90023226813685068834214D8C31AE0
:10B9500091689DF80700994238BF9360FBF76EFE2F
:10B960000024204603B0F0BD3B6840F82530226833
:10B97000136850688342EAD9A16801310144CB1AA7
:10B98000E6E73B8820F81530DCE73B784355D9E7FC
:10B99000394605FB020000F070FFD3E79DF8070071
:10B9A000FBF74CFE0424204603B0F0BD5860BAE714
:10B9B0002DE9F041144682B01AB9204602B0BDE824
:10B9C000F081054602A8002300F8013D0E46FBF772
:10B9D0000FFE2868036841688B420ED9AA680132BD
:10B9E0000A44D31A9C420BD905249DF80700FBF7A3
:10B9F00025FE204602B0BDE8F081CB1A9C42F3D868
:10BA0000D0F8008007684368EA6869689F4284BF8D
:10BA1000AB680133DF1BBC4202FB08110DD802FBEF
:10BA200004F2304600F029FFA9682B6844448C4298
:10BA300088BF00241C600024D7E707FB02F84246B9
:10BA4000304600F01AFFEA686968E71B06EB080059
:10BA500002FB07F200F011FF2B6800241F60C4E70F
:10BA600010B582B002AB002203F8012D044618463F
:10BA7000FBF7BEFD236818685B6898420AD9A46882
:10BA800001341C44241A9DF80700FBF7D7FD20461B
:10BA900002B010BD1C1A9DF80700FBF7CFFD204631
:10BAA00002B010BDF0B58C4BD3F824218DB002B399
:10BAB0000022C3F82421D3F824210592059AD3F853
:10BAC0000421B2B9854C0222A168C3F80813A26010
:10BAD000A268C3F80423D3F86021002A40F0BF8095
